:100000000C94ED0B0C94150C0C94150C0C94150C15
:100010000C94150C0C94150C0C94150C0C94150CDC
:100020000C94150C0C94150C0C94150C0C94150CCC
:100030000C94150C0C94150C0C94150C0C94150CBC
:100040000C9468340C94150C0C94150C0C94150C31
:100050000C94150C0C94150C0C94150C0C94150C9C
:100060000C94FF1C0C94150C911694168E179F1669
:10007000B216BD16CA16DD16EA16F916FE161417C4
:100080000D1721173F17301753177E1762176F1779
:100090004C17D01722181418F417F4172218DE176B
:1000A0002218221822182218221822182218221880
:1000B000F41714182218C917446F73652028706547
:1000C0006C6C6574732900496E74657276616C207E
:1000D00028686F757273290046454544494E47208C
:1000E00053455454494E4753005345542054454DAD
:1000F0005045524154555245004F6666004F6E00C0
:100100004C494748544E494E472054494D450054A8
:100110006865726D6F6D65746572200054454D5051
:10012000455241545552455300B0430028696E2052
:1001300070656C6C6574732900456E746572206E11
:10014000657720646F73650028696E20686F75722B
:10015000732900456E746572206E657720696E7430
:10016000657276616C005345542046454544494EBE
:100170004700466565640053657420646F736500CD
:1001800053657420696E74657276616C00536565A1
:100190002070726F6772616D6D696E6700464545CC
:1001A00044494E470045783A2032352A35203D20D3
:1001B00032352E35B04300456E746572206E65771A
:1001C0002074656D706572617475726520736574F5
:1001D00074696E67005345542054454D5045524153
:1001E00054555245004368616E67652070726F67B1
:1001F00072616D6D696E67005365652070726F671F
:1002000072616D6D696E670054454D5045524154A1
:1002100055524500466F726D61743A2048484D4D05
:1002200000456E746572206E6577206C6F63616C3B
:100230002074696D65004C494748544E494E47202B
:1002400054494D45004368616E6765206F666620BE
:1002500074696D65004368616E6765206F6E207418
:10026000696D65005365652070726F6772616D6DB1
:10027000696E67004C494748544E494E47004572E5
:100280006173650043616E63656C0045524153457F
:1002900020454550524F4D00456E7465722074687C
:1002A00065726D6F6D65746572206E756D626572D5
:1002B0000053455420544845524D4F4D45544552E6
:1002C000005365742061697220746865726D6F6D8A
:1002D000657465720053657420776174657220746B
:1002E0006865726D6F6D657465720052656164203A
:1002F00074656D70657261747572657300544845FC
:10030000524D4F4D455445525300466F726D6174C6
:100310003A20595959594D4D444448484D4D53532D
:1003200000456E746572206E6577206C6F63616C3A
:100330002074696D65005345542044415445204163
:100340004E442054494D45005365742064617465E2
:1003500020616E642074696D6500434C4F434B000F
:10036000457261736520454550524F4D00466565A5
:1003700064696E670054656D70657261747572654D
:10038000004C696768746E696E6700546865726DC9
:100390006F6D657465727300436C6F636B004D41E4
:1003A000494E204D454E5500FFFFFFFFFFFFFFFF69
:1003B000FFFFFFFFFFFFFFFFFFFFFFFFFFFFFFFF4D
:1003C000FFFFFFFFFFFFFFFFE1FF3F000000000016
:1003D00000000000000000FCF1FFFFFFFFFFFFFF37
:1003E000FFFFFFFFFFFFFFFF7100E00000000000C4
:1003F00000000600000000F0310FCF0000000000F8
:1004000000000600000000E0B190D00000000000F5
:1004100000000600000000C0B190D0000000000005
:100420000000060000000080B190D0000000000035
:100430000000060000000080B190D0000000000025
:100440000000060000000080310FCF000000000017
:1004500000000600000000803100C0000000000025
:1004600000000600000000803101C700000000000D
:1004700000000600000000803101C1000000000003
:1004800000000C00000000803107C70000000000E1
:1004900000001800000000807100E0000000000073
:1004A0000000300000000080F1FFFF0000000000AD
:1004B0000000600000000080E1FF7F0000000000FD
:1004C0000000C000000000800100000000000000EB
:1004D000000080010000008001000000000000001A
:1004E0000000000300000080010000000000000088
:1004F0000000000600000080010000000000000075
:100500000000000C0000008001000000000000005E
:100510000000001800000080010000000000000042
:10052000000000F0FFFFFFFF0100000000000000DE
:10053000000000000000008001000000000000003A
:10054000000000000000008001000000000000002A
:10055000000000000000008001000000000000001A
:10056000000000000000008001000000000000000A
:1005700000000000000000800100000000000000FA
:1005800000000000000000800100000000000000EA
:1005900000000000000000800100000000000000DA
:1005A00000000000000000800100000000000000CA
:1005B00000000000000000800100000000000000BA
:1005C00000000000000000800100000000000000AA
:1005D000000000000000008001000000000000009A
:1005E000000000000000008001000000000000008A
:1005F000000000000000008001000000000000007A
:100600000000000000000080010000000000000069
:100610000000000000000080010000000000000059
:100620000000000000000080010000000000000049
:100630000000000000000080010000000000000039
:100640000000000000000080010000000000000029
:100650000000000000000080010000000000000019
:100660000000000000000080010000000000000009
:1006700000000000000000800100000000000000F9
:1006800000000000000000800100000000000000E9
:1006900000000000000000800100000000000000D9
:1006A00000000000000000800100000000000000C9
:1006B00000000000000000800100000000000000B9
:1006C00000000000000000800100000000000000A9
:1006D0000000000000000080FFFFFFFFFFFF070099
:1006E00000000000000000800300000000000C007B
:1006F0000000000000000080010000000000F8FF82
:10070000FFFFFFFFFFFFFFBF010000000000080028
:1007100000000000000000E00100000000000800F0
:1007200000000000000000C0010000000000080000
:100730000000000000000080010000000000080030
:100740000000000000000080010000000000080020
:100750000000000000000080010000000000080010
:1007600000000000000000C00300000000000C00BA
:1007700000000000000000E007000000000006008C
:1007800000000000000000F0FFFFFFFFFFFFFFFF81
:10079000FFFFFFFFFFFFFFFFFFFFFFFFFFFFFFFF69
:1007A000FFFFFFFFFFFFFFFF005EBCE2613FDD8355
:1007B000C29C7E20A3FD1F419DC3217FFCA2401E41
:1007C0005F01E3BD3E6082DC237D9FC1421CFEA031
:1007D000E1BF5D0380DE3C62BEE0025CDF81633D21
:1007E0007C22C09E1D43A1FF4618FAA427799BC511
:1007F00084DA3866E5BB5907DB856739BAE4065801
:100800001947A5FB7826C49A653BD987045AB8E6F0
:10081000A7F91B45C6987A24F8A6441A99C7257BE0
:100820003A6486D85B05E7B98CD2306EEDB3510FD0
:100830004E10F2AC2F7193CD114FADF3702ECC92C0
:10084000D38D6F31B2EC0E50AFF1134DCE90722CB0
:100850006D33D18F0C52B0EE326C8ED0530DEFB1A0
:10086000F0AE4C1291CF2D73CA947628ABF5174990
:100870000856B4EA6937D58B5709EBB536688AD480
:1008800095CB2977F4AA4816E9B7550B88D6346A70
:100890002B7597C94A14F6A8742AC896154BA9F760
:1008A000B6E80A54D7896B35BE000202040402047C
:1008B000050A0AFFFE05FE06FF010F022C06DB20DB
:1008C0000500A204210761E364A400220733322556
:1008D0005901230A55A2AD1AAA1AAA02240A731EA4
:1008E0002D6E90C14C00250A55A245AE0C324853DE
:1008F000260C65A22D8394410629962A270531B23C
:1009000064280772DE4C7506290872DE24A696025A
:100910002A06332E25752B0733672DAD042C07329D
:10092000DA4429002D05132A652E0511A2242F096A
:10093000631EB58A29460030085322ADB22A003121
:100940000652E26C35320854624DC5E608330A544B
:100950006265A3A4D1480034095462259A698300D2
:10096000350A54626568B0D14800360A54624D6554
:10097000B062520037095462656410DB00380A54D3
:10098000624DC5A4625200390A54624DC5B4415249
:10099000003A0631E324053B0852DA2C83A4003CDC
:1009A0000A54621D24959146013D07332665830153
:1009B0003E0A546225238D92CA003F0964624DC5E8
:1009C000361501400B65A26D65A09295E1024109C3
:1009D00054624D45396600420A546265C591E24849
:1009E00000430A54624D450D625200440954626549
:1009F00045732400450A54626568B0321801460AFE
:100A000054626568B032C800470A54624D6590660A
:100A100052004809546225CA3165004907532265CE
:100A2000C56A4A0A54626D830C6452004B095462D1
:100A3000259A23C5004C0753222536074D0B55A296
:100A400045ADA4924A1A044E09546225CAA566000F
:100A50004F0954624D4533290050095462654539A8
:100A60005206510A54624D4599D2480052095462C7
:100A7000654539520C530953226D830C16005408F6
:100A8000532265C5160055085462253A9302560C48
:100A900055A2258354A698328800570B55A22503EA
:100AA0000D34505D0058095462259A49C500590A11
:100AB000645E259A6983A4005A09546265C4361895
:100AC000015B0772DE6475095C0A631E25661033DC
:100AD00088015D0772DE44750D5E062332AD015F4D
:100AE00006145E6504600622F62406610844624D21
:100AF000459906620A5462258315655200630743CF
:100B0000226D6620640A54621DA4116552006508B6
:100B100044624D451507660954624D450D640667EC
:100B20000A645A4D459936480A6809546225831566
:100B3000CD00690651A2240D6A0873D934C3E602B8
:100B40006B09532225A69554006C0651A264086DCA
:100B50000945A245B554D2206E0744626545336FFE
:100B60000944624D45991400700A645A4D45395242
:100B70000619710A645A4D459936C82072094462B3
:100B800065450D3200730944626D65941600740862
:100B900053222DAD580175074462259A69760844A1
:100BA00062259A4901770A45A225039554170078D2
:100BB00009446225CAA46200790A645A259A6983A5
:100BC000A4007A08446265C472047B0A731E35C5AA
:100BD0009441CC207C06719EE4087D0B731E258316
:100BE00098418A29027E0935A62D83548304A107E2
:100BF00061DF248D00A20A645E1DA4919A2B02A3DA
:100C0000096462CD2A671C01A4084466654839045A
:100C1000A50E759E258354830C36C8608308A606EE
:100C2000719E640DA70C745E6D64A462D26824008A
:100C3000A80613362505A910771E76830C52542A70
:100C400003A96A90C104AA063332ED08AB083466E2
:100C50002DA99802AC0935A66568945100AD05121E
:100C6000EA44AE0F771E76830C52926AA96E90C149
:100C700004AF0614766504B0063332AD0BB10853E9
:100C8000222DAD8C06B208433245839406B3074348
:100C90003265A621B40622F64C01B50C659A25A64C
:100CA00098621A1B6504B60C65A26D8C34525231E1
:100CB000C514B70511EB24B807331A2D8305B907FE
:100CC00043322DC934BA0944724D45991400BB0909
:100CD000346625C5A41200BC0E672226835883946F
:100CE00089D41C1906BD0F67222683588314334804
:100CF0006D903218BE1069A266830C64062B93A90E
:100D000006716618BF09645E3553B1A500C00B8437
:100D1000622DA34CA828C70CC10A8462B5A65494BE
:100D20006306C20B84624DC50C55946306C30B84E5
:100D3000622DA94CA828C70CC40A7462AD862ACAC1
:100D40003103C50A74624D132ACA3103C60D5722F6
:100D50006E8C98415C23833802C70C745A4D450D44
:100D600062D2204600C80C84622DA30C87062B8318
:100D700011C90B8462B52686062B8311CA0C8462C6
:100D80004DC58C86062B8311CB0B7462AD46438315
:100D900095C108CC0A832225838C56AC06CD0983E5
:100DA000223565B46235CE098322AD0D56AC06CF2F
:100DB0000973222565B06235D00A55A26DC691CA65
:100DC000B400D10B84622DA90CA35C6A06D20B84FB
:100DD000622DA34CA8682605D30A8462B5A65434B4
:100DE0009302D40B84624DC50C55349302D50B8409
:100DF000622DA94CA8682605D60A7462AD862A9A87
:100E00004901D70633262575D80C56E25583A846E6
:100E100092194800D90B84622DA30CA3332900DA60
:100E20000A8462B526A2332900DB0B84624DC58C8F
:100E3000A2332900DC0A7462AD46D1991400DD0B9F
:100E4000945EB526A29936480ADE0A6462258315A7
:100E5000E54819DF0954624D4555AA04E00B746258
:100E60002DA34CA828D300E1097462B5A654946957
:100E7000E20A74624DC50C559469E30B74622DA9A6
:100E80004CA828D300E4096462AD862ACA34E50A76
:100E900074624D6A42459906E60A4722CE8A51A6F7
:100EA0003806E709631A6D66205302E80B74622D59
:100EB000A34CA8A8E200E9097462B5A6545471EAEB
:100EC0000A74624DC50C555471EB096462AD862AF3
:100ED000AA38EC0862E22466900AED0862E24C83CC
:100EE0005401EE086322AD8D6205EF09532225659A
:100EF000142B00F00B65A24D43B5628A5102F10A32
:100F000074622DA90C573403F20B74622DA34CA804
:100F1000289302F30A7462B5A654944901F40B7441
:100F2000624DC50C55944901F50B74622DA94CA86E
:100F3000289302F60A6462AD862ACAA400F709550E
:100F4000A23553435311F80944624DA5919202F919
:100F50000A74622DA30CA39906FA097462B526A23D
:100F60009906FB0A74624DC58CA29906FC0964625D
:100F7000AD46D14C03FD0B945AB526A29936480ACA
:100F8000FE0D845A25830C569423659001FF0B8433
:100F90005AAD46D14C1B240500000000BF000302DF
:100FA0000304030504060A00FE07FE0700014202CF
:100FB0008807C4200500620721073943C7A004221F
:100FC000079B52476209230E3D424F294906A5322D
:100FD00028A52401240C3D4257B6D4B624D92200BA
:100FE000250C3D424FA474ABB4480900260D3D4288
:100FF0004F9644495649A4480927061953C7002863
:1010000008BB425752AA152909BB424756AA940069
:101010002A0A2D4647965406A52D2B0A2D46571809
:101020000D5218012C079B3E8F52022D060D4EC704
:10103000202E089B3E4FB224002F083D4267AD632F
:1010400008300B3D425796D46C492D02310A3D427F
:1010500057262561D320320C3D42CF92859194854D
:101060008300330C3D42C7206699AA250B00340C3F
:101070003D425F2625A564D0C204350B3D42C731F1
:1010800031855AB200360C3D4297948589494B16FA
:1010900000370B3D42C720666156CC00380C3D42FC
:1010A000CF9269C99269C902390C3D42CF92498AEF
:1010B000126691043A0ABB3E4FB2A4C992003B09A2
:1010C000BB3E4FB2A44A093C08BC425FD4D8003DA5
:1010D000081D4AC7A00E023E08BC4247D8D4063FAE
:1010E0000A3D42CF9235E65004400C3D42CF924932
:1010F0004B62491700410C3D425796D4B461C8B4C5
:1011000000420D3D42C71055A264AA448302430A1F
:101110003D42CF92896DC902440F3D42C71055A28E
:10112000244AA2241A1400450B3D42C7311C9230B8
:101130001C04460A3D42C7311C92B008470B3D4291
:10114000CF9289A52D5900480A3D4247661B86CC9F
:10115000164908BB42C71275194A0A3D42D716B64E
:101160004491044B0D3D42472625252D892A5900DF
:101170004C083D4247D8E3204D0B3D4247A62D4B3E
:10118000A2D9024E0C3D4247A64D4A226D5A004F4D
:101190000A3D42CF92794B1600500C3D42C79064F5
:1011A000DAA0844500510A453ECF9279A9AC01529C
:1011B0000D3D42C79064DAA0942A5900530B3D427A
:1011C000CF92A9AB962C0054093D42C720853D0122
:1011D00055093D4247E65BB200560D3D4247664B1E
:1011E0004A4994641100570A3D4247E69228C92DA6
:1011F000580B3D4247A625B54A4D0B590A3D42477B
:10120000A625B5B0095A0A3D42C720661D07015BF5
:1012100008BB42C710751A5C083D424798760C5DC2
:1012200008BB42C7D469085E081D525796D4025FB6
:10123000060D3EC7206006125B4714610A2D42CF9F
:101240009A0C5A3204620B3D424758316993A2000E
:10125000630A2D42CF928959B200640A3D4267C5A4
:10126000B4498A12650A2D42CF920D43BA00660B2B
:101270003D429754C98628AC01670C3D3ACFA0691E
:10128000C9106AC902680A3D4247583169B6006907
:1012900008BB424F28B50C6A0BCC3A5FACD5242969
:1012A00051006B0B3D4247589392A992056C08BBC5
:1012B0004287D4CB006D0B2D4287D2A2244AA205CF
:1012C0006E092D424762D26C016F092D42CF92D92F
:1012D0009205700C3D3A4762D22645094300710AD7
:1012E0003D3A8F699314252C72092D424762128B67
:1012F0000073092D42CF921E1400740C3D424F988A
:101300000D51588A140075092D4247E6A42801762C
:101310000B2D4247A625A5248B00770A2D42476650
:1013200049942E00780A2D424796D42AB500790CAC
:101330003D3A47665294504B16007A092D42C7A099
:10134000B50D027B0ABC4297122662140A7C06394C
:1013500043C7217D0BBC428718854A9848007E0907
:101360001D524FA4245202A005006207A107394371
:10137000473208A20E3D3E573628511225D9104556
:1013800000A30C3D429754C9B630521400A40B2D53
:101390004247964C49B46401A50D453E47A625B584
:1013A0006890C21200A6063943C732A70B453ECF4C
:1013B000124E9DC66401A8068B5E4712A90D3D42E0
:1013C000CF9229C9A4245AB200AA0AB446CF102940
:1013D0004A7108AB0C2E4257254AA22CCAA200AC77
:1013E00007944AC79005AD068C4EC710AE0C3D421F
:1013F000CF920DC93469C902AF060D5EC720B00790
:101400009B524F1700B10B354257180D52180D0261
:10141000B209AC4E8F12350D01B309AC4EC7988896
:101420004302B406125B8F02B50A353E47669B1431
:101430002504B60F3D42CF30244392285112255146
:1014400012B706094F4700B806123B8F02B908AB26
:101450004E4F225506BA0AB4468F1249893A04BB48
:101460000D2E42479445599444491401BC0D4E3EFB
:101470004FA816A7504BA2210DBD0C4E3E4FA816EB
:10148000973049C370BE0E4D3E879AA59194494945
:10149000328401BF0A3D42570E8559CB02C00C452C
:1014A000424F9A2D99360C9916C10C45425F6DC971
:1014B000B461C8B400C20D45425796444BA60D43D3
:1014C000A605C30D45424FA4484BA60D43A605C42F
:1014D0000C45424F1D58326D18322DC50D454257EF
:1014E00096444BA60D43A605C60C3E42D790949A4F
:1014F00086216A1AC70B4D3ACF92896DC95603C827
:101500000C45424F368CE19084E120C90C45425F86
:10151000328CE19084E120CA0C454257348CE19032
:1015200084E120CB0C45424F6518C32109C341CC4F
:101530000AC34247962C51CB00CD0AC34257922C86
:1015400051CB00CE0AC3424F6548A29601CF0AC3D1
:101550004247922D51CB00D00E3D42C71055A221DB
:101560002925D1A000D10C454257D26D521269D322
:1015700002D20B45424F9A2D995BB200D30A4542E5
:101580005F6DC9DC9205D40C45425796444BE696F4
:101590002C00D50B454257D2B4646EC902D60B4518
:1015A000424F1D5832B76401D70A2D424796D42ABC
:1015B000B500D80C3D42CF125D92694A1600D90A97
:1015C00045424F1A65DE9205DA0A45425F29F396D5
:1015D0002C00DB0B45425796C4995BB200DC0A45F0
:1015E000424F39F3962C00DD0B45425F29D3925AC6
:1015F0005802DE0C3D42473824D9A0844500DF0D57
:101600003D42CF924949A992290A00E00C45424F38
:101610009A236B3268C910E10C45425F1D59934112
:101620004B8600E20D45425796E4C09A0C5A3204AC
:10163000E30D454257D20EACC9A0254300E40C3D52
:10164000424F1D5893414B8600E50D454257966425
:10165000D99A0C5A3204E60C2E42CF1026C93065B6
:101660008300E70B3D3ACF928959B2D500E80C458B
:10167000424F9A234B360CE902E90C45425F1D5953
:10168000B261481700EA0D45425796E4C0920D43F7
:10169000BA00EB0C3D424F1D58B261481700EC09EF
:1016A000C34247164A2D03ED08C3424F556A19EE4F
:1016B00008C3424F9BD432EF09BB424792492D03E6
:1016C000F00B3D42872A2D992D5900F10B454257C9
:1016D000D29C98345B00F20C45424F9A234B664BE8
:1016E0001600F30B45425F1D59325BB200F40C4506
:1016F000425796E4C092D99205F50C454257D20E56
:101700002C992D5900F60B3D424F1D58325BB2000B
:10171000F70A2D46570E0C3A1001F80B2D42CF2038
:101720002DC9342800F90B45424F9A039993A2041E
:10173000FA0A45425F1DC89C1425FB0B454257968B
:10174000C49993A204FC0A3D424F3973529400FDA0
:101750000D4D3A5F2933294AA8250B00FE0C453A66
:10176000473824996D50C210FF0D4D3A4F39332937
:101770004AA8250B0000000000000000080002013C
:101780000000030407000000000000000001020444
:1017900008102040800102040810200102040810F3
:1017A00020040404040404040402020202020203EA
:1017B00003030303030000000023002600290000A8
:1017C000000000250028002B000000000024002756
:1017D000002A00008C19161CD22211241FBECFEF44
:1017E000D8E0DEBFCDBF13E0A0E0B1E0E8E1F5E76F
:1017F00002C005900D92AA32B107D9F727E0AAE2FC
:10180000B3E001C01D92A234B207E1F71BE0CDEEB8
:10181000DBE004C02197FE010E94E936CA3ED107F1
:10182000C9F70E9483360C948A3A0C940000CF9238
:10183000DF92EF92FF920F931F93CF93DF936C0190
:10184000EB017B01E40EF51E00E010E0CE15DF0594
:1018500061F06991D601ED91FC910190F081E02D4C
:10186000C6010995080F191FF1CFC801DF91CF916B
:101870001F910F91FF90EF90DF90CF90089590937C
:10188000BD038093BC031092C0031092BF0310925B
:10189000BE0384E291E090931B0280931A020895A4
:1018A000CF93DF93CDB7DEB729970FB6F894DEBF9D
:1018B0000FBECDBF0E942220AB01BC019E01285F5C
:1018C0003F4F82E095E00E944525AE014F5F5F4F9C
:1018D0000E942C1E8B812A8130E09CE3899F200D81
:1018E000311D11248091F4049091F50428173907D3
:1018F00044F081E04091F2045091F304241735073D
:101900000CF080E029960FB6F894DEBF0FBECDBF75
:10191000DF91CF910895E0911A02F0911B020280AD
:10192000F381E02D309709F009958CE094E00E9456
:101930007F2BE0911A02F0911B020190F081E02DC3
:1019400009958CE094E00E94912B8111F2CF0895CB
:1019500080911A0290911B028851914011F40C94CD
:101960008B0C0895CF92DF92EF92FF92CF93DF938B
:10197000CDB7DEB72C970FB6F894DEBF0FBECDBF44
:101980008091C0039091C103A091C203B091C303A1
:1019900088879987AA87BB871C86CE0108960E94F4
:1019A0001837825B8F838091C4039091C503998718
:1019B00088871A86CE0108960E9418378E83815038
:1019C0008C3010F080E048C08091C6039091C7032E
:1019D00099878887CE0108960E9418378D83815099
:1019E0008F3180F78091C8039091C90399878887C8
:1019F000CE0108960E9418378B83893118F78091A1
:101A0000CA039091CB0399878887CE0108960E94DC
:101A100018378A838D33B0F68091CC039091CD0333
:101A200099878887CE0108960E94183789838D335D
:101A300048F6CE0101960E942F1FAB01BC0182E047
:101A400095E00E94DF256B017C010E942D23C701D8
:101A5000B6010E94EF1F81E02C960FB6F894DEBF0E
:101A60000FBECDBFDF91CF91FF90EF90DF90CF9071
:101A700008950F931F93CF93DF93EC018C010C5FBC
:101A80001F4FFC01E958FF4F0190F081E02DC80184
:101A900009958E3F2FEF920780F4FE01E658FF4F25
:101AA000C758DF4F9C0140816881C8010E94E62E23
:101AB000288190E0820F911D888381E090E0DF9182
:101AC000CF911F910F9108958091F6042091F70412
:101AD0003091F8044091660350916703882329F000
:101AE00081E02417350744F406C02150310981E014
:101AF000421753070CF080E00895CF92DF92EF92E7
:101B0000FF920F931F930E9422200091FA041091DC
:101B1000FB042091FC043091FD04601B710B820BCF
:101B2000930B20E13EE040E050E00E94C7368091F8
:101B30000005909101056C01990FEE08FF0881E006
:101B40002C153D054E055F0508F480E01F910F91AF
:101B5000FF90EF90DF90CF900895CF93C091F10464
:101B60000E94500CC81749F06091F10481E0682789
:101B70006093F104CF910C942936CF9108950F937F
:101B80001F930E94B23400912A0510912B052091D9
:101B90002C0530912D05DC01CB01801B910BA20B94
:101BA000B30B81339547A105B10530F19091F9044C
:101BB00080915202992379F0893C98F4853110F490
:101BC00091E003C0883C19F49FEF909353029091E9
:101BD0005302890F07C08A3178F08F3110F489E100
:101BE00001C08550809352026091520270E083E000
:101BF0001F910F910C9465351F910F91089580915D
:101C0000F10481110E947D0D8093F9040895CF9312
:101C1000C091F6048091640381110E94640DC8177D
:101C200049F081E06C2F68276093F60480E0CF9143
:101C30000C942936CF91089561E083E00E94ED3540
:101C40006FEF70E083E00C9465350E94B2346093CE
:101C50002A0570932B0580932C0590932D058FEF0B
:101C6000809352026FEF70E083E00C9465358CEB4B
:101C700093E20E94BB200E94B42021E0029709F069
:101C800020E0822F0895CF93DF93C0E0D0E060E0A2
:101C9000CE010E94453A2196C11584E0D807B9F7D4
:101CA000DF91CF910895CF93DF9300D0CDB7DEB70A
:101CB0009A83898342E050E060E074E0CE010196AF
:101CC0000E943B3A0F900F90DF91CF91089580ECE6
:101CD00093E00E94183790930105809300050E94BD
:101CE000530E81E00895CF93DF9300D0CDB7DEB7D8
:101CF0009A83898342E050E062E074E0CE0101966D
:101D00000E943B3A0F900F90DF91CF91089580ECA5
:101D100093E00E9418379093FF048093FE040E9482
:101D2000730E81E00895CF93DF9300D000D0CDB73C
:101D3000DEB769837A838B839C8344E050E064E060
:101D400074E0CE0101960E943B3A0F900F900F90E5
:101D50000F90DF91CF91089542E050E060E074E091
:101D600080E095E00E942B3A42E050E062E074E0AF
:101D70008EEF94E00E942B3A44E050E064E074E07F
:101D80008AEF94E00C942B3A0E94AC0E8091F104FF
:101D900081110E947D0D8093F90408950E942220F4
:101DA0006093FA047093FB048093FC049093FD0409
:101DB0000E94930E1092F9040895CF93DF9300D000
:101DC000CDB7DEB79A83898342E050E060E073E0EC
:101DD000CE0101960E943B3A0F900F90DF91CF9178
:101DE00008950F931F93CF93DF9300D000D01F92DD
:101DF000CDB7DEB78091C0039091C1039A838983E8
:101E00001B82CE0101960E9418378C0183EC93E06F
:101E10000E94183724E0000F111F2A95E1F734E0E3
:101E2000880F991F3A95E1F76AE070E00E94B33697
:101E3000C801860F971F9093F8048093F7040E94BF
:101E4000DD0E81E00F900F900F900F900F90DF91BB
:101E5000CF911F910F91089542E050E060E073E050
:101E60000C942B3A87EF94E00E942C0F809164032E
:101E700081110E94640D8093F60461E080E00E946D
:101E8000ED356091F60480E00C942936CF93DF9312
:101E900000D000D0CDB7DEB79A8389837C836B8373
:101EA00042E050E060E072E0CE0101960E943B3AD1
:101EB00042E050E062E072E0CE0103960E943B3ABD
:101EC0000F900F900F900F90DF91CF9108951F9377
:101ED000CF93DF9300D000D01F92CDB7DEB78091B3
:101EE000C0039091C1039A8389831B82CE0101961E
:101EF0000E941837182F893110F080E030C080918F
:101F0000C2039091C3039A838983CE0101960E94F4
:101F100018378D3390F799272CE3129F800D911D70
:101F2000112420919C0330919D03232B29F490933D
:101F3000F5048093F40404C09093F3048093F204B6
:101F40006091F2047091F3048091F4049091F5048F
:101F50000E94460F1092B9031092B80381E00F90CF
:101F60000F900F900F900F90DF91CF911F910895D8
:101F7000CF93DF93EB0142E050E060E072E00E941B
:101F80002B3A42E050E062E072E0CE01DF91CF9167
:101F90000C942B3A62EF74E084EF94E00E94B80F47
:101FA0000E94500C8093F10461E081E00E94ED35C5
:101FB0006091F10481E00C942936CF93DF931F9256
:101FC000CDB7DEB783E894E00E942929882321F069
:101FD00089830E94250E89810F90DF91CF9108950A
:101FE00004960C94972F6CE97FE08CE094E00E94BB
:101FF000FC2F28E532E04DE060E088E094E00C94AE
:10200000F00FEF92FF920F931F93CF93DF93CDB713
:10201000DEB7E2970FB6F894DEBF0FBECDBF88EAF9
:10202000E82E83E0F82E00E420E840E060E08CE059
:1020300094E00E94BA2A6CE97FE08CE094E00E9470
:10204000FC2F8CE094E00E94F42F28E733E045E079
:1020500065E588E094E00E94F00F69E271E086EDAA
:1020600093E00E943F3768E773E08CE094E00E94C1
:10207000153065E5680F26ED33E045E088E094E033
:102080000E94F00F23E933E044E363E088E094E04A
:102090000E94F00F68EA78E08CE094E00E94FC2F48
:1020A0008CE094E00E94F42F20E833E04FE062E6F9
:1020B00088E094E00E94F00F69E271E086ED93E021
:1020C0000E943F3760E873E08CE094E00E94153096
:1020D00062E6680F26ED33E04FE088E094E00E946E
:1020E000F00F68E873E08CE094E00E9415306CE734
:1020F000681B28E833E046E388E094E00E94F00F94
:102100008091F104882341F002E022E047E069E099
:102110008CE094E00E94F32A8091F604882341F039
:1021200002E022E047E061E18CE094E00E94F32AC3
:102130008091F9048823F1F08091FF048F938091BE
:10214000FE048F9383E692E09F938F938E010F5F3F
:102150001F4F1F930F930E947A37980149E165E062
:1021600088E094E00E94F00F0F900F900F900F9076
:102170000F900F90E2960FB6F894DEBF0FBECDBF62
:10218000DF91CF911F910F91FF90EF9008950F93E2
:102190001F93CF93DF93CDB7DEB72B970FB6F8948D
:1021A000DEBF0FBECDBF482FFB01CB016CE370E05B
:1021B0000E94B33654EC56039001579F300D112402
:1021C0002E0F3F1F3F932F937F936F9324E832E0AE
:1021D0003F932F938E010F5F1F4F1F930F934B87DA
:1021E0000E947A3798014B856CE388E094E00E9466
:1021F000F00F0FB6F894DEBF0FBECDBF2B960FB613
:10220000F894DEBF0FBECDBFDF91CF911F910F912C
:102210000895BC0186ED93E00E943F3766ED73E0C0
:102220008CE094E00E94153090E00895EF92FF92C8
:102230000F931F93CF93DF93CDB7DEB764970FB69D
:10224000F894DEBF0FBECDBF6CE97FE08CE094E078
:102250000E94FC2F8CE094E00E94F42F68ED70E067
:1022600086ED93E00E943F3788ED90E00E940911CF
:1022700097FD01969595879591958195910960E4D3
:10228000680F26ED33E040E088E094E00E94F00F14
:1022900000917904002E000C110B80917A04081B28
:1022A000110987FD13950F5F1F4F4FEF400F20E877
:1022B00060E08CE094E00E94823068EA78E08CE094
:1022C00094E00E94FC2F8CE094E00E94F42FE090B8
:1022D00079040E2C000CFF0880917A04E81AF108AA
:1022E00087FDF39467EC70E086ED93E00E943F3742
:1022F00026ED33E0402F60E088E094E00E94F00F8C
:1023000068EB70E086ED93E00E943F37E00E26ED2B
:1023100033E04E2D60E088E094E00E94F00F4AE048
:10232000BE016F5F7F4F80910005909101050E9473
:102330004D379E012F5F3F4F402F64E688E094E0C9
:102340000E94F00F4AE0BE016F5F7F4F8091FE0454
:102350009091FF040E944D379E012F5F3F4F4E2DFD
:1023600064E688E094E00E94F00F64960FB6F8945B
:10237000DEBF0FBECDBFDF91CF911F910F91FF90B8
:10238000EF9008950F931F93CF93DF936CE97FE055
:102390008CE094E00E94FC2F8CE094E00E94F42FEB
:1023A00060E071E086ED93E00E943F3780E091E0CD
:1023B0000E94091197FD01969595879591958195B4
:1023C000910960E4680F26ED33E040E088E094E096
:1023D0000E94F00FC09179040C2E000CDD0B80914F
:1023E0007A04C81BD10987FDD39521964C2F415003
:1023F00020E860E08CE094E00E9482308CE094E081
:102400000E94F42F00917904002E000C110B809192
:102410007A04081B110987FD13956DEF70E086EDB6
:1024200093E00E943F3726ED33E04C2F60E088E0D8
:1024300094E00E94F00F69EF70E086ED93E00E9457
:102440003F374C2F400F26ED33E060E088E094E00A
:102450000E94F00F6091F4047091F504CE010E9487
:10246000C7106091F2047091F304CE01800F911FA8
:10247000DF91CF911F910F910C94C7103F924F9213
:102480005F926F927F928F929F92AF92BF92CF9204
:10249000DF92EF92FF920F931F93CF93DF936CE93C
:1024A0007FE08CE094E00E94FC2F8CE094E00E949E
:1024B000F42FE091D403F091D5036081718186ED12
:1024C00093E00E943F37E091D403F091D5038081DF
:1024D00091810E94091197FD019695958795919597
:1024E0008195910960E4680F26ED33E040E088E0D3
:1024F00094E00E94F00F00917904002E000C110B63
:1025000080917A04081B110987FD13950F5F1F4FF7
:10251000302E4FEF400F20E860E08CE094E00E9406
:10252000823068EA78E08CE094E00E94FC2F8CE036
:1025300094E00E94F42FC09179040C2E000CDD0B66
:1025400080917A04C81BD10987FDD395239680E436
:1025500090E0801B910BBE010E949F365B01809131
:102560009C0390919D030E94B3366A9D40016B9D30
:10257000900C7A9D900C1124E091D403F091D50336
:10258000C401880F991FE280F380E80EF91E1C2F0A
:10259000C12CD12C2701F70180819181892B09F46D
:1025A00041C0CA14DB04F4F53601680C791C809133
:1025B0009C0390919D036816790681F480917A04BA
:1025C0000C2F081B20E8432D60E08CE094E00E9473
:1025D000F32A60E08CE094E00E94A23082E0E80EF2
:1025E000F11CF2016081718186ED93E00E943F371A
:1025F00026ED33E043E0430D65E088E094E00E947F
:10260000F00F80919C0390919D036816790629F440
:1026100061E08CE094E00E94A230FFEFCF1ADF0A65
:10262000310EB8CFDF91CF911F910F91FF90EF90B6
:10263000DF90CF90BF90AF909F908F907F906F90E2
:102640005F904F903F9008950F931F93CF93DF9328
:102650006CE97FE08CE094E00E94FC2F8CE094E039
:102660000E94F42FE091BC03F091BD036081718161
:1026700086ED93E00E943F37E091BC03F091BD03EB
:10268000808191810E94091197FD0196959587950A
:1026900091958195910960E4680F26ED33E040E063
:1026A00088E094E00E94F00F4091790480917A04D0
:1026B000481B20E860E08CE094E00E94823068EAE9
:1026C00078E08CE094E00E94FC2F8CE094E00E9483
:1026D000F42F40917904042E000C550B80917A045C
:1026E000481B510987FD5395E091BC03F091BD0350
:1026F00002811381D42FC42FCC0FF8016191719105
:102700008F016115710571F086ED93E00E943F37EE
:1027100026ED33E04C2F60E088E094E00E94F00F5B
:10272000CD0FEBCF2CE646E365E08CE094E00E9411
:1027300082306CE97FE08CE094E00E94FC2F8CE01A
:1027400094E00E94EC2F20EC33E046E365E088E063
:1027500094E0DF91CF911F910F910C94F00FE091D5
:102760001A02F0911B020480F581E02D309709F0E8
:1027700009940895A8958EE295E00E94741A0E942B
:10278000DD0F81110C94AF1308958CE094E00E944A
:10279000CA338CE094E00E94C22B60E08CE094E0AD
:1027A0000E94D4330C948B0C88E191E090931B022F
:1027B00080931A020C948B0C0F931F93CF93DF938B
:1027C0008C01EB0197FF06C08DE28883119501957E
:1027D000110921964AE0BE01C80124E0959587952C
:1027E0002A95E1F70E944D3709900020E9F72197DB
:1027F0008EE2FE018193BF010F70112724E6209F16
:10280000C001219F900D11244AE034E095958795F1
:102810003A95E1F70E944D378A81811105C089817F
:102820008A8380E389831B82DF91CF911F910F916F
:1028300008950F931F93CF93DF93CDB7DEB76497BF
:102840000FB6F894DEBF0FBECDBF6CE97FE08CE021
:1028500094E00E94FC2F8CE094E00E94F42F69EE3B
:1028600070E086ED93E00E943F3789EE90E00E9491
:10287000091197FD019695958795919581959109F7
:1028800060E4680F26ED33E040E088E094E00E94C9
:10289000F00F00917904002E000C110B80917A0446
:1028A000081B110987FD13950F5F1F4F4FEF400F56
:1028B00020E860E08CE094E00E9482308CE094E0BC
:1028C0000E94F42FBE016F5F7F4F8091F7049091BB
:1028D000F8040E94DC139E012F5F3F4F402F65E0FC
:1028E00088E094E00E94F00F69E271E086ED93E0E9
:1028F0000E943F37BE016F5F7F4F8CE094E00E94E3
:10290000153065E0680F26ED33E0402F88E094E055
:102910000E94F00F64960FB6F894DEBF0FBECDBFD5
:10292000DF91CF911F910F910895AF92BF92CF92F7
:10293000DF92EF92FF920F931F93CF93DF93CDB768
:10294000DEB764970FB6F894DEBF0FBECDBF6CE95B
:102950007FE08CE094E00E94FC2F8CE094E00E94E9
:10296000F42F6CE171E086ED93E00E943F378CE13B
:1029700091E00E94091197FD019695958795919593
:102980008195910960E4680F26ED33E040E088E02E
:1029900094E00E94F00F40917904042E000C550B36
:1029A00080917A04481B510987FD53954F5F5F4F13
:1029B000C42E415020E860E08CE094E00E94823018
:1029C0008CE094E00E94F42FE090790480917A04E6
:1029D000E81A3AE2A32E33E0B32EF12C00E010E027
:1029E0008091320390913303081719070CF043C00C
:1029F0004BE050E06FE071E0CE0101960E94363767
:102A000080E3800F8C871D86DF2CDC0C9E012F5FFE
:102A10003F4F4D2D60E088E094E00E94F00FBE0132
:102A20006F5F7F4FF501819191915F010E94DC13EF
:102A30009E012F5F3F4F4D2D66E588E094E00E9498
:102A4000F00F69E271E086ED93E00E943F37BE012E
:102A50006F5F7F4F8CE094E00E94153066E5680F51
:102A600026ED33E04D2D88E094E00E94F00F0F5FDB
:102A70001F4FFE0CB5CF64960FB6F894DEBF0FBEA5
:102A8000CDBFDF91CF911F910F91FF90EF90DF901D
:102A9000CF90BF90AF9008950F931F93CF93DF9384
:102AA000CDB7DEB729970FB6F894DEBF0FBECDBF06
:102AB0000E942220AB01BC019E01285F3F4F82E0B3
:102AC00095E00E944525AE014F5F5F4F0E942C1E8E
:102AD00089811F928F938A811F928F938B811F927E
:102AE0008F938FE792E09F938F9383E993E09F9377
:102AF0008F930E947A378F8190E08E54984F9F93E6
:102B00008F938E811F928F938D811F928F938EE86A
:102B100092E09F938F9388E893E09F938F930E9416
:102B20007A3706E613E068E773E0F8018081918167
:102B30000E94DC1360E873E0F801828193810E94B7
:102B4000DC130FB6F894DEBF0FBECDBF29960FB6CB
:102B5000F894DEBF0FBECDBFDF91CF911F910F91D3
:102B60000895FC01218130E0322F22278081282B1B
:102B70003595279544E0220F331F4A95E1F72450FD
:102B80003109468180E190E0841B9109820F931FF7
:102B900008958AE693E00E94D12040E06CEC8AE63A
:102BA00093E00E946B2141E064E48AE693E00C9498
:102BB0006B21EF92FF920F931F93CF93DF938C01C2
:102BC000EB018AE693E00E94D120B8018AE693E007
:102BD0000E94C02140E06EEB8AE693E00E946B21E8
:102BE0008E017E0189E0E80EF11C8AE693E00E94E6
:102BF000A421F80181938F01EE15FF05B1F768E07C
:102C0000CE010E94B32291E02885821301C090E09A
:102C1000892FDF91CF911F910F91FF90EF90089531
:102C2000BF92CF92DF92EF92FF920F931F93CF93B9
:102C3000DF93CDB7DEB761970FB6F894DEBF0FBE56
:102C4000CDBF94E3E92E93E0F92E670100E010E098
:102C500028E0B22E04301105D1F0BE01665F7F4F2F
:102C60008AE693E00E941E22882389F08A858031BB
:102C700089F70F5F1F4FFE013A96D6018B2D019009
:102C80000D928A95E1F788E0C80ED11CE3CF8AE661
:102C900093E00E94ED2110933303009332030E94CE
:102CA000C9156EEE72E080E090E00E94E3348AE2A3
:102CB000C82E83E0D82E00E010E08091320390917E
:102CC000330308171907A4F4BE016F5F7F4FC701D4
:102CD0000E94D915CE0101960E94B115F60181938B
:102CE00091936F010F5F1F4FF8E0EF0EF11CE5CFDE
:102CF00061960FB6F894DEBF0FBECDBFDF91CF91C6
:102D00001F910F91FF90EF90DF90CF90BF900895AB
:102D10008531910508F002C1FC01EC5CFF4F0C9479
:102D2000E93688E191E0F6C01092BB031092BA0335
:102D30001092B9031092B80388EF91E00CC081E0C3
:102D400090E09093BB038093BA031092B903109262
:102D5000B8038AEE91E09093D5038093D4038EE17B
:102D600091E0D8C01092BB031092BA031092B9033D
:102D70001092B8038EED91E0BEC081E090E0909398
:102D8000BB038093BA039093B9038093B80382EC9A
:102D900091E0E1CF85E090E09093BB038093BA038C
:102DA0001092B9031092B80382E191E090931B0254
:102DB00080931A020E941016B1C085E090E09093B3
:102DC000BB038093BA031092B9031092B80388EB47
:102DD00091E091C081E090E09093BB038093BA03AF
:102DE00085E090E09093B9038093B80382EA91E084
:102DF000B2CF0E94430E81E090E052C081E090E0AB
:102E00009093BB038093BA0382E090E09093B90360
:102E10008093B80386E891E09ECF1092BB03109296
:102E2000BA038AE791E067C08AE090E09093BB0321
:102E30008093BA031092B9031092B8038CE091E02A
:102E400069C081E090E09093BB038093BA0383E074
:102E500090E09093B9038093B80388E691E07BCF2C
:102E60008DE090E09093BB038093BA0381E090E003
:102E70009093B9038093B8038CE591E03CC08DE05A
:102E800090E09093BB038093BA031092B903109221
:102E9000B80386E091E03EC00E94CE0E80E090E054
:102EA0000E9488163BC081E090E09093BB03809322
:102EB000BA0384E090E09093B9038093B80382E46E
:102EC00091E049CF80E190E09093BB038093BA03F7
:102ED0001092B9031092B80386E391E00CC080E130
:102EE00090E09093BB038093BA031092B9031092C1
:102EF000B8038AE291E00E943F0C10C080E190E0AC
:102F00009093BB038093BA031092B9031092B80355
:102F100080E091E090931B0280931A020C948B0C3A
:102F2000823451F08434B1F488E191E090931B0233
:102F300080931A020C948B0C8091B8039091B90382
:102F400090939D0380939C038091BA039091BB035F
:102F50000C9488160895833251F0833451F4109202
:102F60009D0310929C0381E090E00C9488160C94D1
:102F7000CE0E0895082E000C990BAA0BBB0BFC017A
:102F8000F297E331F10508F05DC0E75BFF4F0C9469
:102F9000E93688E191E090931B0280931A020CC0FD
:102FA00080919C0390919D03009709F44BC0019779
:102FB00090939D0380939C030C948B0C80919C03B5
:102FC00090919D03E091D403F091D50301969C016B
:102FD000220F331F0280F381E02DE20FF31F2081C7
:102FE0003181232B29F72EC0A091D403B091D503B2
:102FF00080919C0390919D03880F991F1696ED91E7
:10300000FC911797E80FF91F2081318130939D03C0
:1030100020939C0314962D913C911597F901E80F8C
:10302000F91F808191810CC08091B8039091B90300
:1030300090939D0380939C038091BA039091BB036E
:103040000C9488160895823441F11CF4813469F09F
:1030500031C0833409F446C0843461F588E191E0DD
:1030600090931B0280931A023BC0E091BC03F09145
:10307000BD030480F581E02D0995882399F18091A5
:10308000B8039091B90390939D0380939C03809122
:10309000BA039091BB030C9488168091BE03909163
:1030A000BF030097F9F001979093BF038093BE038D
:1030B000FC0113C02091BE033091BF0323313105C1
:1030C00089F0A9014F5F5F4F5093BF034093BE0348
:1030D000F901E054FC4F8083FA01E054FC4F108268
:1030E0000C948B0C08950F931F93CF93DF93CDB760
:1030F000DEB729970FB6F894DEBF0FBECDBFBE0175
:103100006F5F7F4F84E593E00E94D915CE01019651
:103110000E94B11506E613E0F80191838083BE0199
:103120006F5F7F4F8CE593E00E94D915CE01019629
:103130000E94B115F801938382830E94C9152996D4
:103140000FB6F894DEBF0FBECDBFDF91CF911F91B8
:103150000F910895FB0123E0880F991F2A95E1F74D
:10316000BC01739548E050E0CF010C943B3AFB0161
:1031700023E0880F991F2A95E1F7BC01739548E079
:1031800050E0CF010C942B3A64E573E080E090E0CE
:103190000E94B7186CE573E081E090E00C94B718DA
:1031A0006091C00388E06802B00111246C547E4F26
:1031B00080919C0390919D030E94AA180E94C418BC
:1031C00081E00895CF92DF92EF92FF920F931F93C9
:1031D000CF93DF93CDB7DEB729970FB6F894DEBF54
:1031E0000FBECDBF0E94C4180E94C9156EEE72E0DA
:1031F00080E090E00E94E33404E513E084E6C82E0A
:1032000083E0D82E96E6E92E93E0F92EBE016F5F9B
:103210007F4FC8010E94D915F60181936F01882361
:1032200039F0CE0101960E94B115F7019183808398
:10323000085F1F4FF2E0EF0EF11C83E00436180721
:1032400029F781E090E029960FB6F894DEBF0FBE13
:10325000CDBFDF91CF911F910F91FF90EF90DF9045
:10326000CF90089598E288E10FB6F894A8958093DE
:1032700060000FBE9093600062E082E00E94ED3536
:103280000E941C0E0E94C5130E94370E0E94CA0F96
:103290000E94E2180E94320F0E94C40E23E738E118
:1032A00044E358E060E070E08EE295E00E94DF1AAF
:1032B00028EA3CE044E650E060E070E08EE295E011
:1032C0000E94DF1A2FEB3DE048E250E060E070E042
:1032D0008EE295E00E94DF1A2DEA3DE044E853E0DB
:1032E00060E070E08EE295E00E94DF1A27E03EE0A9
:1032F00048E456E260E070E08EE295E00E94DF1A5A
:103300002FEF3DE04CED55E060E070E08EE295E09F
:103310000E94DF1A0C94D413CF92DF92EF92FF92A7
:103320000F931F93CF93DF938EE295E00E94601A74
:103330008DB79EB70C970FB6F8949EBF0FBE8DBF8A
:10334000ADB7BEB711968CE0EAE3F2E001900D92C2
:103350008A95E1F7C0904602D0904702E09048027B
:10336000F090490200914A0210914B0220914C02C8
:1033700030914D0240914E0250914F0260915002A7
:103380007091510282E095E00E94DD2384E0E82EF6
:1033900004E022E232E046E252E06AE272E083E8D0
:1033A00094E00E942C26C8E0D4E01B821A828BE9AC
:1033B00092E09983888384EC91E3909380048093D6
:1033C0007F0410928104109282048CE094E00E94A9
:1033D000CE3183EA92E09983888323E439E247EA95
:1033E00059E260ED72E08CE094E00E94D82B2FEF60
:1033F00049E06AE08CE094E00E945C2A8DB79EB7B9
:103400000C960FB6F8949EBF0FBE8DBF64E08AE69F
:1034100093E0DF91CF911F910F91FF90EF90DF909C
:10342000CF900C94F921FC0110820895CF92DF9285
:10343000EF92FF92CF93DF93EC010E94B2346B01C5
:103440007C018B859C85AD85BE85B701A601481B97
:10345000590B6A0B7B0B89819A81AB81BC81481720
:1034600059076A077B07D8F08881813019F08230CC
:1034700029F00CC0E985FA85099508C061E09885B6
:10348000911160E068878F810E942936CB86DC86A7
:10349000ED86FE868F8598890196988B8F878D8122
:1034A0009E8197FD06C02F853889281739070CF0B3
:1034B0001882DF91CF91FF90EF90DF90CF90089529
:1034C0000F931F93CF93DF93EC018C0106551F4F91
:1034D000CE010E94131A6196C017D107C9F7DF9178
:1034E000CF911F910F9108950F931F93CF93DF9367
:1034F000EC018C0106551F4F8881882319F0CE01FD
:103500000E94161A6196C017D107B1F7DF91CF91CB
:103510001F910F910895FC0190E08081882331F084
:103520009F5F71969A30C9F78FEF0895892F08959C
:10353000AF92BF92CF92DF92EF92FF920F931F93C1
:10354000CF93DF9300D000D0CDB7DEB75C01790117
:10355000680149835A836B837C830E948B1A182FDE
:1035600049815A816B817C818F3FC9F081E11802CA
:10357000A00CB11C112481E0F501808341835283AA
:1035800063837483D682C582F286E1860E94B23458
:10359000F5016387748785879687108A1786812F40
:1035A0000F900F900F900F90DF91CF911F910F917F
:1035B000FF90EF90DF90CF90BF90AF9008950F9362
:1035C0001F930FEF1FEF0E94981A1F910F910895FC
:1035D0008091080690E020910906821B91090895C8
:1035E0009091090680910806981750F4E92FF0E0B1
:1035F000E65FF94F208130E09F5F9093090602C09B
:103600002FEF3FEFC9010895E09109068091080668
:10361000E81730F4F0E0E65FF94F808190E008951C
:103620008FEF9FEF08950895CF92DF92EF92FF9270
:103630000F931F93CF93DF937C01262F972F8A013F
:103640008091E405882391F0C62FD72F6E01C40E18
:10365000D51ECC15DD0571F06991D701ED91FC9176
:103660000190F081E02DC7010995F3CF642F822FDF
:103670000E94D61CC801DF91CF911F910F91FF903E
:10368000EF90DF90CF900895CF93DF931F92CDB747
:10369000DEB769832091E4052223D1F02091E5056E
:1036A000203240F021E030E0FC013383228380E0CF
:1036B00090E015C08091E605E82FF0E0E951FA4F5F
:1036C000998190838F5F8093E6058093E50505C01F
:1036D00061E0CE0101960E94D61C81E090E00F903F
:1036E000DF91CF910895FC011382128288EE93E05E
:1036F000A0E0B0E084839583A683B7838BEA92E051
:103700009183808308951092090610920806109202
:10371000E6051092E5050C941A1C81E08093E405FF
:10372000609307061092E6051092E50508950C9443
:103730008D1B0F93062F21E04091E50567EE75E0A4
:10374000809107060E94801C1092E6051092E50504
:103750001092E4050F9108954F925F926F927F92BD
:10376000AF92BF92CF92EF92FF920F931F93CF939E
:10377000DF935C01F62ED42F28013901EE2021F1D0
:103780000E948D1BCE2DC43008F0C3E0C150C0F0A4
:10379000D501ED91FC91B8E0CB9FC0011124A301AC
:1037A000920104C056954795379527958A95D2F78B
:1037B000CA01B9010190F081E02DC5010995E6CF5C
:1037C00060E0C5010E94991B4D2FD13208F040E204
:1037D0002C2D6AE076E08F2D0E94381C109209068D
:1037E00080930806DF91CF911F910F91FF90EF908A
:1037F000CF90BF90AF907F906F905F904F90089563
:10380000CF92EF920F931F93C22EE12C00E010E0B5
:1038100098010E94AC1B1F910F91EF90CF900895DB
:1038200021E00C94001C61E00C94991B88ED95E05C
:103830000C94731B1092970681E08093950610926A
:10384000940661E082E10E94293661E083E10E94F2
:103850002936E9EBF0E080818E7F808380818D7F47
:10386000808388E48093B80085E48093BC00089549
:10387000413208F043C0909197069111FCCF91E03E
:1038800090939706209395062FEF20932A06109287
:103890006F06240F20936E069093960690919606DD
:1038A000880F892B8093960680919406813061F46D
:1038B00010929406809196068093BB008091BC0084
:1038C00083FDF8CF85EC01C085EE8093BC0080912C
:1038D00097068130E1F380916F06841710F44091D0
:1038E0006F0620E736E0FB01D9018A2F821B84177F
:1038F00018F48D918193F9CF842F089580E0089575
:103900000F93413208F04AC0909197069111FCCF75
:1039100032E030939706009395063FEF30932A06E6
:1039200010926F0640936E06FB0160E776E0DB01C4
:103930003A2F361B341718F431913D93F9CF10927A
:10394000960630919606880F832B80939606809179
:103950009406813061F410929406809196068093CB
:10396000BB008091BC0083FDF8CF85EC01C085EEE3
:103970008093BC00222321F0809197068230D1F3FE
:1039800080912A068F3F79F080912A06803241F09B
:1039900080912A06803331F094E005C091E003C0A5
:1039A00092E001C093E0892F0F910895613298F45D
:1039B00020919706243089F460934C06FC012EE494
:1039C00036E0D9018A2F821B861718F481918D93D6
:1039D000F9CF80E0089581E0089582E0089585EDB3
:1039E0008093BC008091BC0084FDFCCF10929706B0
:1039F000089585EC8093BC001092970608951F925D
:103A00000F920FB60F9211242F933F934F935F9312
:103A10006F937F938F939F93AF93BF93EF93FF9396
:103A20008091B900887F803609F49EC078F588328D
:103A300009F45DC090F4803109F456C038F488234D
:103A400009F4F5C0883009F44FC0F5C0883109F495
:103A50004EC0803209F45FC0EEC0803409F46AC001
:103A600058F4803309F457C0883309F0E4C08093D8
:103A70002A060E94F91CDFC0803509F44FC0883542
:103A800009F45DC0883409F0D6C0D3C0883909F480
:103A9000C4C0A8F4883709F467C038F4883609F43C
:103AA00063C0803709F460C0C6C0883809F4B5C067
:103AB000803909F45FC0803809F0BDC05BC0803B2D
:103AC00009F483C038F4803A09F466C0883A09F4EE
:103AD0007CC0B1C0803C09F4A4C0883C09F4A1C0FA
:103AE000883B09F487C0A7C08091960610C09091CA
:103AF0006F0680916E06981770F5E0916F0681E071
:103B00008E0F80936F06F0E0E059F94F808180932B
:103B1000BB0085EC83C080932A068BC0E0916F06C2
:103B200081E08E0F80936F068091BB00F0E0E0593A
:103B3000F94F808390916F0680916E066BC0E09183
:103B40006F0681E08E0F80936F068091BB00F0E0DE
:103B5000E059F94F80838091950681116AC081E018
:103B60008093940684EA5EC083E080939706109267
:103B70002B06CFCF80912B06803208F04EC0E0910B
:103B80002B0681E08E0F80932B068091BB00F0E026
:103B9000E45DF94F8083BDCF0E94F91C80912B0614
:103BA000803230F4E0912B06F0E0E45DF94F1082B2
:103BB00060912B0670E0E0919006F09191068CE206
:103BC00096E0099510922B0636C084E08093970604
:103BD00010924D0610924C06E0919206F0919306D9
:103BE000099580914C06811105C081E080934C06B7
:103BF00010924E06E0914D0681E08E0F80934D06A7
:103C0000F0E0E25BF94F80818093BB0090914D061C
:103C100080914C06981708F47CCF85E88093BC000F
:103C20000AC085EC8093BC001092970604C01092E5
:103C30002A060E94EF1CFF91EF91BF91AF919F91D7
:103C40008F917F916F915F914F913F912F910F9045
:103C50000FBE0F901F9018956F927F928F929F9238
:103C6000AF92BF92CF92DF92EF92FF920F931F938A
:103C7000CF93DF93EA012CE3C22ED12CE12CF12C5F
:103C8000A70196010E94C7366883CA01B901A7013E
:103C900096010E94C7366983CA01B90128E130E064
:103CA00040E050E00E94C73669017A016A83CA0188
:103CB000B9016C5F7F4F8F4F9F4F27E030E040E0AE
:103CC00050E00E94C7366F5F6B83812C912C5401AA
:103CD00040E034E6632E712C00E911E0242F30E03F
:103CE0002E54384FF901E370FF27309789F4C9014A
:103CF000B3010E94B336892B31F4C901B8010E9487
:103D0000B336892B29F48EE691E0A0E0B0E004C040
:103D10008DE691E0A0E0B0E0880E991EAA1EBB1EC1
:103D2000D501C401AA27BB27C816D906EA06FB0697
:103D300010F04F5FD3CF4E83309799F4C90164E6FA
:103D400070E00E94B336892B39F4C90160E971E053
:103D50000E94B336892B29F48EE691E0A0E0B0E012
:103D600004C08DE691E0A0E0B0E0881A990AAA0AA2
:103D7000BB0AC818D908EA08FB08C90164E670E064
:103D80000E94B3368C01C90160E971E00E94B3362C
:103D9000A7EBB2E020E0213041F4309751F4011557
:103DA000110529F4009729F402C04C9103C04DE19C
:103DB00001C04CE150E060E070E0C416D506E606B4
:103DC000F70640F0C41AD50AE60AF70A2F5F1196E3
:103DD0002C3009F72F5F2D83C394CC82DF91CF91D4
:103DE0001F910F91FF90EF90DF90CF90BF90AF9019
:103DF0009F908F907F906F900895CF92DF92EF9277
:103E0000FF92C090A806D090A906E090AA06F09074
:103E1000AB066C157D058E059F0571F06B017C016D
:103E20004CEA56E00E942C1EC092A806D092A90629
:103E3000E092AA06F092AB06FF90EF90DF90CF9051
:103E400008950E94FD1E8091AF0690E008950E94A3
:103E5000FD1E8091B20690E08E54984F08956F92A7
:103E60007F928F929F92AF92BF92CF92DF92EF920A
:103E7000FF920F931F93CF93DF93EC01EE81AE2F50
:103E8000B0E020E833E341EE51E00E9405374B01FA
:103E90005C0122EB37E0FD0104E610E080E9E82E4A
:103EA000FF24F394C901825B97408E179F07DCF4CF
:103EB000C90183709927892B99F4C901B8010E941F
:103EC000B336892B31F4C901B7010E94B336892B6F
:103ED00039F480E8880E81E5981E81E0A81EB11CA7
:103EE0002F5F3F4FDFCF6D80712CEE54F84FCF0125
:103EF00064E670E00E94B3367C01CF0160E971E0B6
:103F00000E94B3366C0101E010E0E370FF27061554
:103F100017052CF50230110581F4309771F4E11486
:103F2000F10419F4C114D10441F480E8880E8BE344
:103F3000981E86E2A81EB11C0FC0D801AA54BD4F1E
:103F4000AC91B0E020E831E541E050E00E94053757
:103F5000860E971EA81EB91E0F5F1F4FD8CF49812E
:103F60002A8130E0A0E1BEE00E94EF366B017C01C7
:103F7000242F30E0ACE3B0E00E94EF36DC01CB014F
:103F80008C0D9D1DAE1DBF1D28816C017D01C20ED3
:103F9000D11CE11CF11CAC81B0E0119720E831E5A7
:103FA00041E050E00E941037DC01CB018C0D9D1DDB
:103FB000AE1DBF1DBC01CD01680D791D8A1D9B1D65
:103FC000DF91CF911F910F91FF90EF90DF90CF90F5
:103FD000BF90AF909F908F907F906F9008950F93B8
:103FE0001F936093A4067093A5068093A6069093F2
:103FF000A70600915402109155022091560230916B
:104000005702DC01CB01800F911FA21FB31F8093C9
:104010009C0690939D06A0939E06B0939F0682E017
:1040200090E090939B0680939A060E94B23460932E
:10403000A0067093A1068093A2069093A3061F91F9
:104040000F910895CF92DF92EF92FF920F931F93FB
:104050000E94B234C090A006D090A106E090A206C3
:10406000F090A3068B019C010C191D092E093F0934
:104070008091A4069091A506A091A606B091A706EE
:10408000083E134021053105D0F00196A11DB11D58
:104090008093A4069093A506A093A606B093A706C6
:1040A000B701A60148515C4F6F4F7F4F4093A00668
:1040B0005093A1066093A2067093A306C9CF4091C6
:1040C0009C0650919D0660919E0670919F068417F4
:1040D0009507A607B707C8F1E0919806F0919906F1
:1040E000309799F10995611571058105910519F0D0
:1040F0000E94EF1F2AC040915402509155026091D6
:104100005602709157028091A4069091A506A09145
:10411000A606B091A706840F951FA61FB71F809310
:104120009C0690939D06A0939E06B0939F0681E007
:1041300090E020919A0630919B06232B11F480E0A9
:1041400090E090939B0680939A066091A4067091EC
:10415000A5068091A6069091A7061F910F91FF904A
:10416000EF90DF90CF9008950E94222080919A06D0
:1041700090919B060895909399068093980680915C
:10418000A4069091A506A091A606B091A7068093DB
:104190009C0690939D06A0939E06B0939F060C9458
:1041A00022200F931F93CF93DF93FC011081C181D5
:1041B000D281F8948A81012F009580238A83898196
:1041C000812B8983789480EE91E00E941F35F894CA
:1041D0008981082309838A81812B8A8386E490E080
:1041E0000E941F35088178948AE991E00E941F356A
:1041F0008881812321F491E09093B30606C01023B7
:1042000081E009F080E01092B306DF91CF911F9119
:104210000F9108951F93CF93DF93FC011081C1810B
:10422000D281812F809560FF12C0F8949A818923F2
:104230008A838981812B89838AE090E00E941F35DF
:104240008A81182B1A83789487E390E011C0F89440
:104250009A8189238A838981812B898381E490E0F3
:104260000E941F358A81182B1A83789485E090E08C
:10427000DF91CF911F910C941F350F931F93CF9314
:10428000DF93FC011081C181D281F8948A81012FD2
:10429000009580238A838981812B898383E090E044
:1042A0000E941F358981082309838A81812B8A8393
:1042B0008AE090E00E941F35C881789485E390E001
:1042C0000E941F351C2381E009F480E0DF91CF912B
:1042D0001F910F910895CF92DF92EF92FF920F936B
:1042E0001F93CF93DF931F92CDB7DEB76C01E62EFD
:1042F00008E010E0FF24F39461E08F2D8E2109F493
:1043000060E0C60149830E940A21FF0C0150110997
:1043100049810115110581F741110CC0F894D601AE
:104320001196ED91FC91129791818C918095892342
:10433000818378940F90DF91CF911F910F91FF901F
:10434000EF90DF90CF900895EF92FF920F931F931D
:10435000CF93DF937C0108E010E0C0E0D1E0C7011B
:104360000E943D218111CD2BDD0F01501109B9F7BC
:104370008C2FDF91CF911F910F91FF90EF900895B7
:10438000CF92DF92EF92FF920F931F93CF93DF9321
:104390001F92CDB7DEB78C01F62E40E065E579833C
:1043A0000E946B21CF2C7981D72E760188E0E80E10
:1043B000F11CF60161916F0140E0C8010E946B2180
:1043C000CE14DF04B1F70F90DF91CF911F910F91C1
:1043D000FF90EF90DF90CF900895FC011386158633
:1043E0001486DC011B9633961E92AE17BF07E1F7C9
:1043F00008950F931F93CF938C01C62F60E08C2FED
:104400000E94ED356C2F70E0FB01E357F84EE4910C
:10441000D801EC93FB01EF55F84EE491F0E0EE0F7C
:10442000FF1FEB54F84E85919491F801928381839C
:10443000C801CF911F910F910C94ED21AF92BF92C3
:10444000CF92DF92EF92FF920F931F93CF93DF9360
:104450001F92CDB7DEB75C01E62ED72EFC01858515
:1044600081115DC0C5010E94D120811105C0F501F7
:104470001386158614866BC040E060EFC5010E946C
:104480006B2101E0F12CC12C11E0C5010E943D21FE
:10449000682FC50169830E943D216981613019F44B
:1044A0008130B9F433C04F2D50E068131BC0F501C3
:1044B0008385181730F4E40FF51F8381802349F4B6
:1044C00002C0181731F060E0193058F4F501148774
:1044D00008C0F501EF0DF11D8381802B838361E01E
:1044E00009C0C12EF501E40FF51F9381802F80953F
:1044F00089238383C5010E940A211F5F000F11F4E5
:10450000F39401E0F7E0FF1508F0BFCF113438F065
:10451000F501C386C11015C081E0858712C0F50181
:1045200013861586148680E0D5011396EE2DFD2D99
:104530009501255F3F4F9D919193A217B307D9F73E
:1045400006C0F5018381882351F381E0EDCF0F9000
:10455000DF91CF911F910F91FF90EF90DF90CF905F
:10456000BF90AF900895DC01E0E0615038F08D918C
:10457000E827F0E0E855F84FE491F7CF8E2F089543
:104580006AE00E94933620E1829F900D1124892FCA
:104590000895982F92959F708F702AE0929F800DBA
:1045A0001124089588ED95E00C94831BCF93DF933D
:1045B000EC0168E670E088ED95E00E94971B60E0F2
:1045C00088ED95E00E94441B88810E94C022682FDC
:1045D00088ED95E00E94441B89810E94C022682FCB
:1045E00088ED95E00E94441B8A810E94C022682FBA
:1045F00088ED95E00E94441B8B810E94C022682FA9
:1046000088ED95E00E94441B8C810E94C022682F97
:1046100088ED95E00E94441B8D810E94C022682F86
:1046200088ED95E00E94441B8E818E510E94C0222D
:10463000682F88ED95E00E94441B88ED95E00E946C
:10464000131C882321F01092B40680E003C081E09F
:104650008093B406DF91CF910895CF93DF93CDB7C8
:10466000DEB727970FB6F894DEBF0FBECDBFAE0101
:104670004F5F5F4F0E942C1E898180688983CE0125
:1046800001960E94D62289818F778983CE01019677
:104690000E94D62227960FB6F894DEBF0FBECDBF7C
:1046A000DF91CF9108951F93CF93DF93EC0168E6DC
:1046B00070E088ED95E00E94971B60E088ED95E042
:1046C0000E94441B88ED95E00E94131C882319F07A
:1046D0001092B4064CC081E08093B40647E050E0ED
:1046E00068E670E088ED95E00E94101C88ED95E08A
:1046F0000E94E81A0797DCF188ED95E00E94F01A15
:10470000182F8F770E94C922888388ED95E00E9438
:10471000F01A0E94C922898388ED95E00E94F01A60
:104720008F730E94C9228A8388ED95E00E94F01A57
:104730000E94C9228B8388ED95E00E94F01A0E94A6
:10474000C9228C8388ED95E00E94F01A0E94C9224C
:104750008D8388ED95E00E94F01A0E94C922825E46
:104760008E83812F8095881F8827881F01C080E055
:10477000DF91CF911F910895CF93DF93CDB7DEB72F
:1047800027970FB6F894DEBF0FBECDBFCE010196BE
:104790000E945323882329F0CE0101960E942F1FE7
:1047A00003C060E070E0CB0127960FB6F894DEBF3F
:1047B0000FBECDBFDF91CF910895AF92BF92CF9240
:1047C000DF92EF92FF920F931F93CF93DF93CDB7BA
:1047D000DEB72C970FB6F894DEBF0FBECDBF5C01DD
:1047E000C982DA82EB82FC820D831E832F83388795
:1047F00049875A876B877C878CE0FE013196D5010B
:1048000001900D928A95E1F79CE0FE017996D50121
:104810001C9601900D929A95E1F72C960FB6F8949C
:10482000DEBF0FBECDBFDF91CF911F910F91FF90E3
:10483000EF90DF90CF90BF90AF9008958F929F92AE
:10484000AF92BF92CF92DF92EF92FF920F931F939E
:10485000CF93DF93CDB7DEB764970FB6F894DEBF82
:104860000FBECDBF3F87598BF22E211109C04F5F7C
:104870004D3040F04FEFA41AB40A31E041E003C0DC
:10488000322F01C031E089898B831A82198281E03D
:104890008D834E838EE48A0D8F83CE0101963C8BEF
:1048A0000E942F1F4B015C010F8510E00E94211F09
:1048B0003C89432F50E04150510967E0649F9001CB
:1048C000659F300D1124A801481B590BCA0107969A
:1048D00067E070E00E94B336D901A80FB91F20E845
:1048E00031E541E050E00E941037680D791D8A1DC6
:1048F0009B1DF11004C060587A4389409109649669
:104900000FB6F894DEBF0FBECDBFDF91CF911F91E0
:104910000F91FF90EF90DF90CF90BF90AF909F905E
:104920008F9008958F929F92AF92BF92CF92DF9215
:10493000EF92FF920F931F93CF93DF93EC015B01F4
:10494000C880D980EA80FB800C811D812E813F8147
:10495000488559856A857B850E941E2468A379A3B2
:104960008AA39BA3CC84DD84EE84FF840889198903
:104970002A893B894C895D896E897F89CE010E9495
:104980001E246B017C016CA37DA38EA39FA3AE8923
:10499000BF892CE330E00E94FE3608A119A12AA1AC
:1049A0003BA148015901861A970AA80AB90A888EBC
:1049B000998EAA8EBB8EAA85BB852CE330E00E941F
:1049C000FE36C61AD70AE80AF90ACC8EDD8EEE8EBC
:1049D000FF8EDF91CF911F910F91FF90EF90DF90AD
:1049E000CF90BF90AF909F908F900895CF92DF921D
:1049F000EF92FF920F931F93CF93DF93EC016A0125
:104A00007B01CB01BA010E94271F8C01688D798D33
:104A10008A8D9B8D0E94271F0817190741F0C70137
:104A2000B6010E94271FBC01CE010E9492240C8D6A
:104A30001D8D2E8D3F8D488D598D6A8D7B8D401734
:104A400051076207730760F4C416D506E606F70639
:104A500090F081E0C016D106E206F30668F00BC0C4
:104A600081E0C016D106E206F30630F0C416D50682
:104A7000E606F70608F480E0DF91CF911F910F91D1
:104A8000FF90EF90DF90CF900895AF92BF92CF92BA
:104A9000DF92EF92FF920F931F93CF93DF93EC017E
:104AA0006A017B018901CB01BA010E94271F5C01C9
:104AB000688D798D8A8D9B8D0E94271FA816B90657
:104AC00041F0C701B6010E94271FBC01CE010E9420
:104AD0009224B701A601CE010E94F624882331F06A
:104AE000F801D183C083AA85BB8507C0CE010C968F
:104AF000F80191838083AE89BF892CE330E00E9466
:104B0000FE366C0D7D1D8E1D9F1DDF91CF911F9177
:104B10000F91FF90EF90DF90CF90BF90AF900895EE
:104B2000CF92DF92EF92FF920F931F93CF93DF9379
:104B3000EC016A017B01CB01BA010E94271F8C01A5
:104B400068A179A18AA19BA10E94271F08171907B4
:104B500041F0C701B6010E94271FBC01CE010E948F
:104B600092240CA11DA12EA13FA148A159A16AA187
:104B70007BA1401751076207730760F4C416D5067E
:104B8000E606F70690F081E0C016D106E206F306CD
:104B900068F00BC081E0C016D106E206F30630F0E3
:104BA000C416D506E606F70608F480E0DF91CF913B
:104BB0001F910F91FF90EF90DF90CF900895CF92CB
:104BC000DF92EF92FF920F931F93CF93DF93EC014D
:104BD0006A017B01CB01BA010E94271F8C0168A1E9
:104BE00079A18AA19BA10E94271F0817190741F0EC
:104BF000C701B6010E94271FBC01CE010E9492246A
:104C0000B701A601CE010E949025882319F0AA853C
:104C1000BB8502C0AE89BF892CE330E00E94FE361E
:104C2000A7019601261B370B480B590BCA01B90186
:104C3000DF91CF911F910F91FF90EF90DF90CF9078
:104C40000895862F0C945936862F642F0C9429369C
:104C5000862F642F0C94ED354F925F926F927F9266
:104C60008F929F92AF92BF92CF92DF92EF920F936B
:104C7000CF93DF93EC015B013A01490102960E9458
:104C80003D2987EC92E0998388836E018CE1C80E00
:104C9000D11C2E0188E5480E511CC6010E943D29F9
:104CA00086E0C80ED11CC414D504B9F7FE01EE5934
:104CB000FF4F7182608232969182808232960083A9
:104CC0003196E0823797B182A08238968AE090E0F0
:104CD00091838083329684EF91E091838083329632
:104CE00011821082C45ADF4F188219821A821B82E5
:104CF000DF91CF910F91EF90DF90CF90BF90AF9069
:104D00009F908F907F906F905F904F9008952F921B
:104D10003F924F925F926F927F928F929F92AF924B
:104D2000BF92CF92DF92EF92FF920F931F93CF9398
:104D3000DF93CDB7DEB728970FB6F894DEBF0FBE6E
:104D4000CDBF98878F8310E04C0186E6880E911CBA
:104D5000EF80F88492E6E90EF11CD4018C911817CB
:104D6000A0F4AF81B8858D919C91F701A081B181AC
:104D7000A10FB11DFC012081318142E06C918F8136
:104D80009885F90109951F5FE8CFF12CEF81F8852F
:104D9000E959FF4FFA83E983CF80D884F4E6CF0E38
:104DA000D11C412C512C320143948F8198858E590E
:104DB0009F4F9C838B83E981FA818081F81608F0EC
:104DC00088C0AF2CB12CAF81B8858D919C91F60134
:104DD000A081B181AA0DBB1DFC012081318141E080
:104DE0006C918F819885F9010995AF81B8858D9176
:104DF0009C91F601A081B181AA0DBB1DFC0122810D
:104E0000338140E06C918F819885F9010995D30138
:104E1000C2010F2C04C0880F991FAA1FBB1F0A9440
:104E2000D2F79C011C0120943094E12CF401808184
:104E3000AF81B885ED91FC91E81648F50E2D10E094
:104E4000AB81BC818D919C91DC01A00FB11F0480CE
:104E5000F581E02D6C918F8198852D833E83099596
:104E6000000F111F2D813E81EF81F885E00FF11FAA
:104E7000892B29F480859185822B932B04C0808512
:104E800091858221932191878087E394CFCFD601AA
:104E90008D919C91DC01AA0DBB1D0280F381E02D58
:104EA00041E06C918F8198850995AF81B885ED912E
:104EB000FC91D6018D919C91DC01AA0DBB1D019046
:104EC000F081E02D40E06C918F8198850995F394F5
:104ED00072CF28960FB6F894DEBF0FBECDBFDF911C
:104EE000CF911F910F91FF90EF90DF90CF90BF90E7
:104EF000AF909F908F907F906F905F904F903F907A
:104F00002F900895FC0180E090E0258D368D2617C6
:104F1000370739F0019636968A309105B1F78FEF51
:104F20009FEF0895FC0126E0629FE00DF11D112422
:104F300050A3478F21E021A3FC01E459FF4F0190CA
:104F4000F081E02D309721F0DC015C968C91099482
:104F500008956F927F928F929F92AF92BF92CF925D
:104F6000DF92EF92FF921F93CF93DF931F92CDB703
:104F7000DEB73C01162FFC0186E0689FE00DF11DB5
:104F8000112411A2878D90A181309105F9F01CF4B4
:104F9000892B51F04FC082309105B1F1039709F090
:104FA00049C040E050E034C0442309F443C041E02C
:104FB00050E0C3010E9492270E94B234F301E85AE4
:104FC000FF4F608371838283938334C049830E943F
:104FD000B234F301E85AFF4FC080D180E280F38001
:104FE0004B015C018C189D08AE08BF087296808149
:104FF0009181A0E0B0E0498188159905AA05BB051B
:1050000018F442E050E004C0411114C043E050E005
:10501000612FC3010F90DF91CF911F91FF90EF900F
:10502000DF90CF90BF90AF909F908F907F906F90C8
:105030000C9492270F90DF91CF911F91FF90EF90EA
:10504000DF90CF90BF90AF909F908F907F906F90A8
:1050500008952F923F924F925F926F927F928F921C
:105060009F92AF92BF92CF92DF92EF92FF920F93F7
:105070001F93CF93DF9300D01F92CDB7DEB79B83F2
:105080008A836C012CE1C20ED11C885A9F4FF60115
:105090002FEF3FEF43815481452B21F4108232835F
:1050A000218315823696E817F907A1F7312C4A803B
:1050B0005B8036E6430E511CAA80BB8087E6A80EB3
:1050C000B11C8A809B80A0E68A0E911CF20180812F
:1050D000381608F05CC0212C8A819B81830D911DBC
:1050E000830D911D9C01285F3F4F7901D5016C9084
:1050F000261408F04AC0F70100811181022C02C079
:10510000169507950A94E2F701701127369C300135
:105110001124620C711CD401ED91FC91E60DF71D78
:105120002081B3018A819B8129830E948227298162
:1051300097FD04C0402F4170682F1AC0019619F5E1
:10514000012B09F1F60160E070E08081811115C04A
:10515000E6E0E69FC001E79F900D1124EA81FB8104
:10516000E80FF91F248F768E658E10A2178E41E00E
:105170008A819B810E94A92706C06F5F7F4F369668
:105180006A30710511F72394B1CF33949FCFEA8130
:10519000FB81B1962A813B81235A3F4F80E0908169
:1051A000911181E03696E217F307C9F70F900F903F
:1051B0000F90DF91CF911F910F91FF90EF90DF90B3
:1051C000CF90BF90AF909F908F907F906F905F90A7
:1051D0004F903F902F900895CF92DF92EF92FF92E1
:1051E0000F931F93CF93DF93EC010E94B2348E0193
:1051F000045A1F4FF801C080D180E280F380AB01D8
:10520000BC014C195D096E097F093C968081918132
:10521000A0E0B0E084179507A607B70778F4CE01A1
:105220000E948726CE010E942928C82F0E94B234EE
:10523000F801608371838283938301C0C0E08C2F67
:10524000DF91CF911F910F91FF90EF90DF90CF9062
:105250000895CF93DF93EC010E94EC28882339F066
:1052600089A1882321F08F8D98A1019711F080E00A
:1052700001C08C8DDF91CF910895FC0110821482C2
:105280001382158208951F93CF93DF93EC01962F1D
:10529000642F9C3268F49A3208F052C0983281F040
:1052A0009932C9F570E080E090E00E94E33448C094
:1052B0009D32B1F080F184EB890F8230D8F02BC0A1
:1052C0006B9610E089918F3F39F0103110F461E056
:1052D00001C062E00E94ED351F5F163199F730C0C2
:1052E000433018F082E090E002C085E090E00E9438
:1052F0001F3526C09F73C90FD11D411107C061E042
:105300008B8D0E94ED3560E08B8D10C062E08B8D3F
:105310000E94ED3515C09034A8F09F73FE01E90F8F
:10532000F11D838D8F3F61F0903118F40E94293672
:1053300007C00E94593621E0892B09F420E02E8B0A
:1053400081E001C080E0DF91CF911F910895CF925D
:10535000DF92EF92FF92CF93DF93EC01683139F146
:1053600038F46431D9F0673109F09EC0F9010FC0FB
:10537000693109F477C0603209F096C06AE40E948E
:10538000E8336EC00DB407FEFDCF8EB54150442307
:1053900009F466C081918EBD0000F4CFE881F981E7
:1053A000418169E40E94E8330E94323459C0A881E7
:1053B000B9811C96EC911C97E150E33028F4F0E0A1
:1053C000E353FD4F808101C080E01896CD90DD90C1
:1053D000ED90FC901B9720E040E052E16AE770E01E
:1053E000C416D506E606F70640F4769567955795F8
:1053F00047952F5F2630A1F727E091E092278C7028
:105400008065292F2695822B9170209137072223C2
:1054100099F04FB7F89420913707213059F42DB304
:10542000209335073DB320913607209523232DBBCC
:105430004FBF02C0409335078CBD9DBDE881F98107
:10544000408169E4CE010E94E833A881B981EA85F0
:10545000FB8520E030E012964C916CE2CE0109957C
:1054600081E023C0A881B981EA85FB8520E030E096
:1054700013964C916CE20995E881F981418169E4C8
:10548000CE010E94E83380913707882349F32FB774
:10549000F8948091370790913507813019F49DBBBE
:1054A0002FBF03C09FBFDCCF80E0DF91CF91FF9083
:1054B000EF90DF90CF900895FC0164A345A326A34D
:1054C00008956F927F928F929F92AF92BF92CF92E8
:1054D000DF92EF92FF920F931F93CF93DF937C01A4
:1054E000C62FB42E48016C0181E7C80ED11CF6010D
:1054F000A080162F120F01E0040F212FC7010E9478
:10550000BA30882341F1D1E03701F0E76F0E711C0A
:10551000C117F9F0F40184918D2319F0F601A082EE
:1055200009C0F301808181110CC081E0A11080E0ED
:10553000F601808300E021E04B2D6C2FC7010E9413
:105540007430CF5FDD0F21F7FFEF8F1A9F0AD1E094
:10555000DFCFF601A082DF91CF911F910F91FF90D5
:10556000EF90DF90CF90BF90AF909F908F907F9003
:105570006F9008958F929F92AF92BF92CF92DF92D9
:10558000EF92FF920F931F93CF93DF935C01962EC0
:10559000C42F822ED42FD00F260F0D2F0E94BA3089
:1055A0008823A1F087E0880DC82EC694C694C694BF
:1055B000D12CCD1759F08701282D4C2F692DC5010D
:1055C0000E94612AEC0CFD1CCF5FF3CFDF91CF91DD
:1055D0001F910F91FF90EF90DF90CF90BF90AF9011
:1055E0009F908F900895DF92EF92FF920F931F93F9
:1055F000CF93DF937C01162FC42FD22ED42FD00F40
:10560000262F2D0D0D2F0E94BA30882359F0CD176B
:1056100049F000E02D2D4C2F612FC7010E947430FE
:10562000CF5FF5CFDF91CF911F910F91FF90EF905A
:10563000DF900895BF92CF92DF92EF92FF920F9387
:105640001F93CF93DF937C01DC01D796BC90D79753
:10565000D896DC90D897ED91FC91C188C0E0D0E05D
:10566000D701ED91FC9111972089D5960D911C9150
:10567000D697B8E02B9FA00111244C9FC0014D9FED
:10568000900D5C9F900D1124080F191F4C2F4D0D8C
:1056900060E0C7010E949D338C2F8F5F8B1528F42B
:1056A00021968C2F8D0D8C15D8F2DF91CF911F9103
:1056B0000F91FF90EF90DF90CF90BF900895FC0185
:1056C000A081B18150969C9147A9949FA00111247B
:1056D00083E0440F551F8A95E1F760E070E085A9EB
:1056E00096A90C944637DC01D8966C93D897D3963C
:1056F000ED91FC91D4970190F081E02D0994CF9326
:10570000DF93EC01FC01EE58FF4F8081882319F0F4
:10571000CE010E945F2B60E0CE01DF91CF910C940F
:10572000732B0F931F93CF93DF931F92CDB7DEB7E9
:105730008C010E941A2BD801D8966C91D897D796D5
:105740008C91D797680FED91FC918189681728F0AB
:10575000C8010E94DE3380E00FC0F801EE58FF4F11
:105760008081882329F0C80169830E945F2B6981A9
:10577000C8010E94732B81E00F90DF91CF911F91A0
:105780000F910895CF93DF93EC010E947F2BCE0100
:105790000E94912B8111FBCF60E0CE01DF91CF9170
:1057A0000C94732B21E0FC01208385EB96E0089597
:1057B000CF92DF92EF92FF920F931F93CF93DF93DD
:1057C0001F92CDB7DEB77C016B0189019A0143E7D7
:1057D00052E363E273E30E940D34CE0101960E940E
:1057E000D22B860126EE30E34981BC01C7010E941D
:1057F00099310F90DF91CF911F910F91FF90EF9012
:10580000DF90CF900895FC01E60FF11D849190E0A8
:10581000982F88273196E4918E0F911D089521309D
:1058200039F020F0223031F4841B0895840F08955C
:10583000860F0895861B0895213039F020F022301C
:1058400031F4861B0895860F0895841B0895840FF4
:10585000089580E00895FC01E259FF4F808108958A
:10586000FC01E359FF4F80818F5F08950F931F93D1
:10587000CF93DF93EC018B01FB01849188833196F8
:10588000E491E983FB013296E491EA83FB013396CC
:10589000E491EB83FB013496E491EC83FB013596B4
:1058A000E491ED83FB013696E491EE83FB0137969C
:1058B000E491EF83FB013896E491E887FB01399688
:1058C000E491E987FB013A96E491EA87FB013B9674
:1058D000E491EB87FB013C96E491EC87FB013D965C
:1058E000E491ED87FB013E96E491EE87FB013F9644
:1058F000E491EF87FB017096E491E88B61E1C801C8
:105900000E94032C9A8B898B63E1C8010E94032CAF
:105910009C8B8B8B65E1C8010E94032C9E8B8D8B29
:10592000DF91CF911F910F910895DC0118964C9152
:105930001897ED91FC911197249130E0042E02C04C
:10594000359527950A94E2F7862F840F883010F456
:10595000E22F0EC031961196FC93EE939491E92FAD
:1059600098E0941B01C0EE0F9A95EAF7E22B88505D
:1059700018968C9381E090E001C0880F6A95EAF751
:1059800081508E2308950F931F93CF93DF938C0143
:10599000EC01C85BDF4F798368831886FC01E75A06
:1059A000FF4F6081CE010E94952C8E83F801E65A4C
:1059B000FF4F6081CE010E94952C8F83F801EF5834
:1059C000FF4F90819A8781E0911180E08B87DF9172
:1059D000CF911F910F910895CF93C62F0E94952CC0
:1059E000C15021E030E001C0220FCA95EAF7821BC6
:1059F000CF9108955F926F927F928F929F92AF9214
:105A0000BF92CF92DF92EF92FF920F931F93CF93AB
:105A1000DF935C01F62E642EEC01C85BDF4F1C8126
:105A2000DD804C0181E7880E911CEE80E11ACE2CBE
:105A3000FE1408F4CF2C5B800C85202F4D2D612F98
:105A40008A810E941C2C782E202F4D2D612F852DB0
:105A50000E940F2C482F662011F09A8504C099856A
:105A6000911108C09B85F40190832C2D672DC501F1
:105A70000E947430FE1420F0FE18D39410E0D5CFAD
:105A80001F0D1C83DD82DF91CF911F910F91FF903D
:105A9000EF90DF90CF90BF90AF909F908F907F90CE
:105AA0006F905F9008956F927F928F929F92AF92C6
:105AB000BF92CF92DF92EF92FF920F931F93CF93FB
:105AC000DF931F92CDB7DEB77C013C0188E4680EFE
:105AD000711CC7010E94C32CF701E15BFF4FD0800E
