:100000000C94420C0C946A0C0C946A0C0C946A0CC0
:100010000C946A0C0C946A0C0C946A0C0C946A0C88
:100020000C946A0C0C946A0C0C946A0C0C946A0C78
:100030000C946A0C0C946A0C0C946A0C0C946A0C68
:100040000C94BC340C946A0C0C946A0C0C946A0CDE
:100050000C946A0C0C946A0C0C946A0C0C946A0C48
:100060000C94531D0C946A0CE516E816E217F3166F
:10007000061711171E1731173E174D17521768171D
:100080006117751793178417A717D217B617C317D9
:10009000A0172418761868184818481876183218C7
:1000A00076187618761876187618761876187618E0
:1000B0004818681876181D18446F736973202870E3
:1000C00069657A61732900496E74657276616C6F37
:1000D0002028686F726173290050524F472E2041CB
:1000E0004C494D454E54414349D34E0050524F4721
:1000F0002E2054454D5045524154555241004170B7
:10010000616761646F00456E63656E6469646F006A
:10011000484F524152494F20494C554D494E414359
:1001200049D34E005465726DF36D6574726F200093
:1001300054454D50455241545552415300B043002F
:1001400028656E207069657A61732900496E747242
:100150006F64757A6361206E7565766120646F7374
:1001600069730028656E20686F7261732900496E9B
:1001700074726F64757A6361206E7565766F20693D
:100180006E74657276616C6F0050524F472E20413D
:100190004C494D454E54414349D300416C696D650E
:1001A0006E7461720043616D6269617220646F7385
:1001B00069730043616D6269617220696E74657272
:1001C00076616C6F00436F6E73756C746172207032
:1001D000726F6772616D616369F36E00414C494DE6
:1001E000454E54414349D34E00456A3A2032352AA0
:1001F00035203D2032352E35B04300496E74726F84
:1002000064757A6361206E756576612074656D70C2
:10021000657261747572612070726F6772616D6171
:1002200064610050524F472E2054454D5045524175
:10023000545552410043616D626961722070726F62
:100240006772616D616369F36E00436F6E73756C05
:100250007461722070726F6772616D616369F36EB1
:100260000054454D504552415455524100466F721D
:100270006D61746F3A2048484D4D00496E74726F3D
:1002800064757A6361206E7565766120686F72614E
:10029000206C6F63616C00484F524120494C554DB2
:1002A000494E414349D34E0043616D6269617220FA
:1002B000686F7261206170616761646F0043616D96
:1002C0006269617220686F726120656E63656E6439
:1002D00069646F00436F6E73756C74617220686F30
:1002E000726172696F00494C554D494E414349D383
:1002F0004E00426F727261720043616E63656C61A1
:100300007200424F5252415220454550524F4D00CB
:10031000496E74726F64757A636120656C206EFA41
:100320006D65726F206465207465726DF374726F11
:1003300000434F4E46494755524152205445524D75
:10034000D34D4554524F00436F6E6669672E20743B
:1003500065726DF36D6574726F206169726500433B
:100360006F6E6669672E207465726DF36D657472C9
:100370006F206167756100436F6E73756C74617295
:100380002074656D70657261747572617300544597
:10039000524DD34D4554524F5300466F726D6174A8
:1003A0006F3A20595959594D4D444448484D4D5381
:1003B0005300496E74726F64757A6361206E75655F
:1003C000766120686F7261206C6F63616C004341DD
:1003D0004D42494152204645434841205920484F0B
:1003E00052410043616D62696172206665636861B4
:1003F000207920686F72610052454C4F4A00426F6D
:100400007272617220454550524F4D00416C696DCA
:10041000656E74616369F36E0054656D7065726139
:100420007475726100496C756D696E616369F36E14
:10043000005465726DF36D6574726F730052656C74
:100440006F6A004D454EDA205052494E43495041A3
:100450004C00FFFFFFFFFFFFFFFFFFFFFFFFFFFF5E
:10046000FFFFFFFFFFFFFFFFFFFFFFFFFFFFFFFF9C
:10047000FFFFE1FF3F00000000000000000000005F
:1004800000FCF1FFFFFFFFFFFFFFFFFFFFFFFFFF8C
:10049000FFFF7100E0000000000000000600000007
:1004A00000F0310FCF000000000000000600000047
:1004B00000E0B190D0000000000000000600000045
:1004C00000C0B190D0000000000000000600000055
:1004D0000080B190D0000000000000000600000085
:1004E0000080B190D0000000000000000600000075
:1004F0000080310FCF000000000000000600000067
:1005000000803100C0000000000000000600000074
:1005100000803101C700000000000000060000005C
:1005200000803101C1000000000000000C0000004C
:1005300000803107C7000000000000001800000024
:1005400000807100E00000000000000030000000AA
:100550000080F1FFFF0000000000000060000000CC
:100560000080E1FF7F00000000000000C0000000EC
:100570000080010000000000000000008001000079
:1005800000800100000000000000000000030000E7
:1005900000800100000000000000000000060000D4
:1005A000008001000000000000000000000C0000BE
:1005B00000800100000000000000000000180000A2
:1005C00000800100000000000000000000F0FFFFBC
:1005D000FFFF01000000000000000000000000001C
:1005E000008001000000000000000000000000008A
:1005F000008001000000000000000000000000007A
:100600000080010000000000000000000000000069
:100610000080010000000000000000000000000059
:100620000080010000000000000000000000000049
:100630000080010000000000000000000000000039
:100640000080010000000000000000000000000029
:100650000080010000000000000000000000000019
:100660000080010000000000000000000000000009
:1006700000800100000000000000000000000000F9
:1006800000800100000000000000000000000000E9
:1006900000800100000000000000000000000000D9
:1006A00000800100000000000000000000000000C9
:1006B00000800100000000000000000000000000B9
:1006C00000800100000000000000000000000000A9
:1006D0000080010000000000000000000000000099
:1006E0000080010000000000000000000000000089
:1006F0000080010000000000000000000000000079
:100700000080010000000000000000000000000068
:100710000080010000000000000000000000000058
:100720000080010000000000000000000000000048
:100730000080010000000000000000000000000038
:100740000080010000000000000000000000000028
:100750000080010000000000000000000000000018
:100760000080010000000000000000000000000008
:1007700000800100000000000000000000000000F8
:100780000080FFFFFFFFFFFF0700000000000000E8
:1007900000800300000000000C00000000000000CA
:1007A0000080010000000000F8FFFFFFFFFFFFFFD7
:1007B000FFBF010000000000080000000000000072
:1007C00000E0010000000000080000000000000040
:1007D00000C0010000000000080000000000000050
:1007E0000080010000000000080000000000000080
:1007F0000080010000000000080000000000000070
:10080000008001000000000008000000000000005F
:1008100000C00300000000000C0000000000000009
:1008200000E00700000000000600000000000000DB
:1008300000F0FFFFFFFFFFFFFFFFFFFFFFFFFFFFD6
:10084000FFFFFFFFFFFFFFFFFFFFFFFFFFFFFFFFB8
:10085000FFFF005EBCE2613FDD83C29C7E20A3FD02
:100860001F419DC3217FFCA2401E5F01E3BD3E608E
:1008700082DC237D9FC1421CFEA0E1BF5D0380DEC0
:100880003C62BEE0025CDF81633D7C22C09E1D4372
:10089000A1FF4618FAA427799BC584DA3866E5BB20
:1008A0005907DB856739BAE406581947A5FB78264E
:1008B000C49A653BD987045AB8E6A7F91B45C69880
:1008C0007A24F8A6441A99C7257B3A6486D85B0532
:1008D000E7B98CD2306EEDB3510F4E10F2AC2F71E0
:1008E00093CD114FADF3702ECC92D38D6F31B2EC0E
:1008F0000E50AFF1134DCE90722C6D33D18F0C5240
:10090000B0EE326C8ED0530DEFB1F0AE4C1291CFF1
:100910002D73CA947628ABF517490856B4EA69379F
:10092000D58B5709EBB536688AD495CB2977F4AACD
:100930004816E9B7550B88D6346A2B7597C94A14FF
:10094000F6A8742AC896154BA9F7B6E80A54D789B1
:100950006B35BE00020204040204050A0AFFFE050C
:10096000FE06FF010F022C06DB200500A204210772
:1009700061E364A40022073332255901230A55A2FA
:10098000AD1AAA1AAA02240A731E2D6E90C14C0039
:10099000250A55A245AE0C324853260C65A22D837C
:1009A00094410629962A270531B264280772DE4C45
:1009B0007506290872DE24A696022A06332E2575AE
:1009C0002B0733672DAD042C0732DA4429002D059F
:1009D000132A652E0511A2242F09631EB58A294604
:1009E0000030085322ADB22A00310652E26C353293
:1009F0000854624DC5E608330A546265A3A4D14881
:100A00000034095462259A698300350A5462656886
:100A1000B0D14800360A54624D65B06252003709C1
:100A20005462656410DB00380A54624DC5A46252FA
:100A300000390A54624DC5B44152003A0631E324EC
:100A4000053B0852DA2C83A4003C0A54621D24950D
:100A50009146013D0733266583013E0A54622523F2
:100A60008D92CA003F0964624DC5361501400B6581
:100A7000A26D65A09295E102410954624D45396627
:100A800000420A546265C591E24800430A54624D2F
:100A9000450D625200440954626545732400450ABD
:100AA00054626568B0321801460A54626568B03213
:100AB000C800470A54624D65906652004809546266
:100AC00025CA3165004907532265C56A4A0A54623E
:100AD0006D830C6452004B095462259A23C5004C67
:100AE0000753222536074D0B55A245ADA4924A1A4D
:100AF000044E09546225CAA566004F0954624D454B
:100B0000332900500954626545395206510A54622E
:100B10004D4599D2480052095462654539520C53EB
:100B20000953226D830C16005408532265C5160024
:100B300055085462253A9302560C55A2258354A6B3
:100B400098328800570B55A225030D34505D00588C
:100B5000095462259A49C500590A645E259A698339
:100B6000A4005A09546265C43618015B0772DE643A
:100B700075095C0A631E2566103388015D0772DE05
:100B800044750D5E062332AD015F06145E65046098
:100B90000622F62406610844624D459906620A540D
:100BA00062258315655200630743226D6620640A3F
:100BB00054621DA411655200650844624D45150735
:100BC000660954624D450D6406670A645A4D45999D
:100BD00036480A68095462258315CD00690651A27A
:100BE000240D6A0873D934C3E6026B09532225A683
:100BF0009554006C0651A264086D0945A245B55490
:100C0000D2206E0744626545336F0944624D4599B1
:100C10001400700A645A4D4539520619710A645A13
:100C20004D459936C8207209446265450D320073FE
:100C30000944626D65941600740853222DAD580165
:100C400075074462259A6976084462259A490177B6
:100C50000A45A22503955417007809446225CAA4C1
:100C60006200790A645A259A6983A4007A0844626A
:100C700065C472047B0A731E35C59441CC207C0682
:100C8000719EE4087D0B731E258398418A29027E9C
:100C90000935A62D83548304A10761DF248D00A2AA
:100CA0000A645E1DA4919A2B02A3096462CD2A678F
:100CB0001C01A408446665483904A50E759E258369
:100CC00054830C36C8608308A606719E640DA70C79
:100CD000745E6D64A462D2682400A80613362505EC
:100CE000A910771E76830C52542A03A96A90C10476
:100CF000AA063332ED08AB0834662DA99802AC0978
:100D000035A66568945100AD0512EA44AE0F771E12
:100D100076830C52926AA96E90C104AF0614766570
:100D200004B0063332AD0BB10853222DAD8C06B2A0
:100D300008433245839406B307433265A621B406BF
:100D400022F64C01B50C659A25A698621A1B65041B
:100D5000B60C65A26D8C34525231C514B70511EB37
:100D600024B807331A2D8305B90743322DC934BA85
:100D70000944724D45991400BB09346625C5A41277
:100D800000BC0E6722268358839489D41C1906BDA3
:100D90000F6722268358831433486D903218BE1093
:100DA00069A266830C64062B93A906716618BF09B5
:100DB000645E3553B1A500C00B84622DA34CA828F6
:100DC000C70CC10A8462B5A654946306C20B846240
:100DD0004DC50C55946306C30B84622DA94CA828FD
:100DE000C70CC40A7462AD862ACA3103C50A74628C
:100DF0004D132ACA3103C60D57226E8C98415C23CD
:100E0000833802C70C745A4D450D62D2204600C883
:100E10000C84622DA30C87062B8311C90B8462B549
:100E20002686062B8311CA0C84624DC58C86062B40
:100E30008311CB0B7462AD46438395C108CC0A8302
:100E40002225838C56AC06CD0983223565B46235E4
:100E5000CE098322AD0D56AC06CF0973222565B0AD
:100E60006235D00A55A26DC691CAB400D10B846216
:100E70002DA90CA35C6A06D20B84622DA34CA86832
:100E80002605D30A8462B5A654349302D40B846237
:100E90004DC50C55349302D50B84622DA94CA8681E
:100EA0002605D60A7462AD862A9A4901D7063326EA
:100EB0002575D80C56E25583A84692194800D90BDF
:100EC00084622DA30CA3332900DA0A8462B526A21A
:100ED000332900DB0B84624DC58CA2332900DC0A68
:100EE0007462AD46D1991400DD0B945EB526A299CB
:100EF00036480ADE0A6462258315E54819DF09547D
:100F0000624D4555AA04E00B74622DA34CA828D36A
:100F100000E1097462B5A6549469E20A74624DC591
:100F20000C559469E30B74622DA94CA828D300E4F6
:100F3000096462AD862ACA34E50A74624D6A424584
:100F40009906E60A4722CE8A51A63806E709631AAF
:100F50006D66205302E80B74622DA34CA8A8E20032
:100F6000E9097462B5A6545471EA0A74624DC50C5D
:100F7000555471EB096462AD862AAA38EC0862E226
:100F80002466900AED0862E24C835401EE08632265
:100F9000AD8D6205EF0953222565142B00F00B651A
:100FA000A24D43B5628A5102F10A74622DA90C5711
:100FB0003403F20B74622DA34CA8289302F30A7435
:100FC00062B5A654944901F40B74624DC50C559456
:100FD0004901F50B74622DA94CA8289302F60A6406
:100FE00062AD862ACAA400F70955A23553435311AE
:100FF000F80944624DA5919202F90A74622DA30C7E
:10100000A39906FA097462B526A29906FB0A7462CE
:101010004DC58CA29906FC096462AD46D14C03FD16
:101020000B945AB526A29936480AFE0D845A258398
:101030000C569423659001FF0B845AAD46D14C1B8E
:10104000240500000000BF0003020304030504069A
:101050000A00FE07FE07000142028807C4200500BF
:10106000620721073943C7A00422079B5247620940
:10107000230E3D424F294906A53228A52401240C00
:101080003D4257B6D4B624D92200250C3D424FA488
:1010900074ABB4480900260D3D424F964449564969
:1010A000A4480927061953C7002808BB425752AA6B
:1010B000152909BB424756AA94002A0A2D4647968D
:1010C0005406A52D2B0A2D4657180D5218012C0732
:1010D0009B3E8F52022D060D4EC7202E089B3E4F81
:1010E000B224002F083D4267AD6308300B3D4257E4
:1010F00096D46C492D02310A3D4257262561D320F2
:10110000320C3D42CF92859194858300330C3D4251
:10111000C7206699AA250B00340C3D425F2625A501
:1011200064D0C204350B3D42C73131855AB2003616
:101130000C3D4297948589494B1600370B3D42C7B9
:1011400020666156CC00380C3D42CF9269C9926945
:10115000C902390C3D42CF92498A126691043A0A7B
:10116000BB3E4FB2A4C992003B09BB3E4FB2A44A5A
:10117000093C08BC425FD4D8003D081D4AC7A00EF8
:10118000023E08BC4247D8D4063F0A3D42CF9235C2
:10119000E65004400C3D42CF92494B624917004152
:1011A0000C3D425796D4B461C8B400420D3D42C7CD
:1011B0001055A264AA448302430A3D42CF92896D2E
:1011C000C902440F3D42C71055A2244AA2241A1452
:1011D00000450B3D42C7311C92301C04460A3D427B
:1011E000C7311C92B008470B3D42CF9289A52D59BB
:1011F00000480A3D4247661B86CC164908BB42C7D9
:101200001275194A0A3D42D716B64491044B0D3D5A
:1012100042472625252D892A59004C083D4247D8AA
:10122000E3204D0B3D4247A62D4BA2D9024E0C3D6B
:101230004247A64D4A226D5A004F0A3D42CF92794D
:101240004B1600500C3D42C79064DAA08445005113
:101250000A453ECF9279A9AC01520D3D42C7906438
:10126000DAA0942A5900530B3D42CF92A9AB962C99
:101270000054093D42C720853D0155093D4247E6DE
:101280005BB200560D3D4247664B4A4994641100DB
:10129000570A3D4247E69228C92D580B3D4247A6C2
:1012A00025B54A4D0B590A3D4247A625B5B0095A06
:1012B0000A3D42C720661D07015B08BB42C7107587
:1012C0001A5C083D424798760C5D08BB42C7D4695A
:1012D000085E081D525796D4025F060D3EC7206077
:1012E00006125B4714610A2D42CF9A0C5A320462EF
:1012F0000B3D424758316993A200630A2D42CF92B9
:101300008959B200640A3D4267C5B4498A12650A28
:101310002D42CF920D43BA00660B3D429754C986C9
:1013200028AC01670C3D3ACFA069C9106AC90268B0
:101330000A3D4247583169B6006908BB424F28B59B
:101340000C6A0BCC3A5FACD5242951006B0B3D42A3
:1013500047589392A992056C08BB4287D4CB006D85
:101360000B2D4287D2A2244AA2056E092D42476264
:10137000D26C016F092D42CF92D99205700C3D3A83
:101380004762D22645094300710A3D3A8F6993149A
:10139000252C72092D424762128B0073092D42CF12
:1013A000921E1400740C3D424F980D51588A14003F
:1013B00075092D4247E6A42801760B2D4247A62544
:1013C000A5248B00770A2D42476649942E00780A9F
:1013D0002D424796D42AB500790C3D3A476652947F
:1013E000504B16007A092D42C7A0B50D027B0ABCEE
:1013F0004297122662140A7C063943C7217D0BBC32
:10140000428718854A9848007E091D524FA42452ED
:1014100002A005006207A1073943473208A20E3D2A
:101420003E573628511225D9104500A30C3D42974E
:1014300054C9B630521400A40B2D4247964C49B4FF
:101440006401A50D453E47A625B56890C21200A6C9
:10145000063943C732A70B453ECF124E9DC66401E5
:10146000A8068B5E4712A90D3D42CF9229C9A4243C
:101470005AB200AA0AB446CF10294A7108AB0C2E02
:101480004257254AA22CCAA200AC07944AC790052D
:10149000AD068C4EC710AE0C3D42CF920DC93469DB
:1014A000C902AF060D5EC720B0079B524F1700B1AF
:1014B0000B354257180D52180D02B209AC4E8F125F
:1014C000350D01B309AC4EC798884302B406125BD0
:1014D0008F02B50A353E47669B142504B60F3D4280
:1014E000CF30244392285112255112B706094F4795
:1014F00000B806123B8F02B908AB4E4F225506BA10
:101500000AB4468F1249893A04BB0D2E42479445CE
:10151000599444491401BC0D4E3E4FA816A7504B98
:10152000A2210DBD0C4E3E4FA816973049C370BE88
:101530000E4D3E879AA591944949328401BF0A3DD8
:1015400042570E8559CB02C00C45424F9A2D993611
:101550000C9916C10C45425F6DC9B461C8B400C294
:101560000D45425796444BA60D43A605C30D454273
:101570004FA4484BA60D43A605C40C45424F1D5829
:10158000326D18322DC50D45425796444BA60D437A
:10159000A605C60C3E42D790949A86216A1AC70BBC
:1015A0004D3ACF92896DC95603C80C45424F368CCF
:1015B000E19084E120C90C45425F328CE19084E1E6
:1015C00020CA0C454257348CE19084E120CB0C4575
:1015D000424F6518C32109C341CC0AC34247962C28
:1015E00051CB00CD0AC34257922C51CB00CE0AC337
:1015F000424F6548A29601CF0AC34247922D51CB74
:1016000000D00E3D42C71055A2212925D1A000D1FE
:101610000C454257D26D521269D302D20B45424F4C
:101620009A2D995BB200D30A45425F6DC9DC9205E1
:10163000D40C45425796444BE6962C00D50B4542B8
:1016400057D2B4646EC902D60B45424F1D5832B70B
:101650006401D70A2D424796D42AB500D80C3D42E2
:10166000CF125D92694A1600D90A45424F1A65DECB
:101670009205DA0A45425F29F3962C00DB0B4542BE
:101680005796C4995BB200DC0A45424F39F3962C59
:1016900000DD0B45425F29D3925A5802DE0C3D42D1
:1016A000473824D9A0844500DF0D3D42CF924949F7
:1016B000A992290A00E00C45424F9A236B3268C96F
:1016C00010E10C45425F1D5993414B8600E20D45E8
:1016D000425796E4C09A0C5A3204E30D454257D261
:1016E0000EACC9A0254300E40C3D424F1D58934168
:1016F0004B8600E50D4542579664D99A0C5A320440
:10170000E60C2E42CF1026C930658300E70B3D3A28
:10171000CF928959B2D500E80C45424F9A234B36F7
:101720000CE902E90C45425F1D59B261481700EA15
:101730000D45425796E4C0920D43BA00EB0C3D4272
:101740004F1D58B261481700EC09C34247164A2D95
:1017500003ED08C3424F556A19EE08C3424F9BD4AC
:1017600032EF09BB424792492D03F00B3D42872AD5
:101770002D992D5900F10B454257D29C98345B00AE
:10178000F20C45424F9A234B664B1600F30B454231
:101790005F1D59325BB200F40C45425796E4C0928B
:1017A000D99205F50C454257D20E2C992D5900F6C9
:1017B0000B3D424F1D58325BB200F70A2D46570EC3
:1017C0000C3A1001F80B2D42CF202DC9342800F916
:1017D0000B45424F9A039993A204FA0A45425F1DB2
:1017E000C89C1425FB0B45425796C49993A204FC50
:1017F0000A3D424F3973529400FD0D4D3A5F293333
:10180000294AA8250B00FE0C453A473824996D500B
:10181000C210FF0D4D3A4F3933294AA8250B00005D
:10182000000000000000080002010000030407009F
:1018300000000000000000010204081020408001A8
:101840000204081020010204081020040404040407
:10185000040404020202020202030303030303005E
:1018600000000023002600290000000000250028B9
:10187000002B0000000000240027002A0000E019CF
:101880006A1C262311241FBECFEFD8E0DEBFCDBFD8
:1018900013E0A0E0B1E0E0ECF5E702C005900D92A6
:1018A000AC32B107D9F727E0ACE2B3E001C01D923A
:1018B000A434B207E1F71CE0C2E4DCE004C02197E5
:1018C000FE010E943D37CF33D107C9F70E94D736BA
:1018D0000C94DE3A0C940000CF92DF92EF92FF92CC
:1018E0000F931F93CF93DF936C01EB017B01E40E09
:1018F000F51E00E010E0CE15DF0561F06991D6011C
:10190000ED91FC910190F081E02DC6010995080F41
:10191000191FF1CFC801DF91CF911F910F91FF9057
:10192000EF90DF90CF9008959093BF038093BE0314
:101930001092C2031092C1031092C00384E291E09E
:1019400090931B0280931A020895CF93DF93CDB733
:10195000DEB729970FB6F894DEBF0FBECDBF0E9449
:101960007620AB01BC019E01285F3F4F84E095E0EB
:101970000E949925AE014F5F5F4F0E94801E8B81B0
:101980002A8130E09CE3899F200D311D1124809134
:10199000F6049091F7042817390744F081E040914C
:1019A000F4045091F504241735070CF080E02996D3
:1019B0000FB6F894DEBF0FBECDBFDF91CF91089573
:1019C000E0911A02F0911B020280F381E02D309722
:1019D00009F009958EE094E00E94D32BE0911A0261
:1019E000F0911B020190F081E02D09958EE094E0CA
:1019F0000E94E52B8111F2CF089580911A029091F7
:101A00001B028851914011F40C94E00C0895CF9280
:101A1000DF92EF92FF92CF93DF93CDB7DEB72C9793
:101A20000FB6F894DEBF0FBECDBF8091C203909178
:101A3000C303A091C403B091C50388879987AA877F
:101A4000BB871C86CE0108960E946C37825B8F8311
:101A50008091C6039091C703998788871A86CE0123
:101A600008960E946C378E8381508C3010F080E095
:101A700048C08091C8039091C90399878887CE0197
:101A800008960E946C378D8381508F3180F780914A
:101A9000CA039091CB0399878887CE0108960E944C
:101AA0006C378B83893118F78091CC039091CD03EB
:101AB00099878887CE0108960E946C378A838D3378
:101AC000B0F68091CE039091CF0399878887CE019D
:101AD00008960E946C3789838D3348F6CE010196B3
:101AE0000E94831FAB01BC0184E095E00E94332675
:101AF0006B017C010E948123C701B6010E94432033
:101B000081E02C960FB6F894DEBF0FBECDBFDF91FB
:101B1000CF91FF90EF90DF90CF9008950F931F9398
:101B2000CF93DF93EC018C010C5F1F4FFC01E95850
:101B3000FF4F0190F081E02DC80109958E3F2FEFF6
:101B4000920780F4FE01E658FF4FC758DF4F9C0113
:101B500040816881C8010E943A2F288190E0820F5D
:101B6000911D888381E090E0DF91CF911F910F91CB
:101B700008958091F8042091F9043091FA0440917D
:101B8000680350916903882329F081E02417350701
:101B900044F406C02150310981E0421753070CF08C
:101BA00080E00895CF92DF92EF92FF920F931F9300
:101BB0000E9476200091FC041091FD042091FE0407
:101BC0003091FF04601B710B820B930B20E13EE010
:101BD00040E050E00E941B37809102059091030580
:101BE0006C01990FEE08FF0881E02C153D054E05AC
:101BF0005F0508F480E01F910F91FF90EF90DF9058
:101C0000CF900895CF93C091F3040E94A50CC817FC
:101C100049F06091F30481E068276093F304CF9169
:101C20000C947D36CF9108950F931F930E94063533
:101C300000912C0510912D0520912E0530912F0536
:101C4000DC01CB01801B910BA20BB30B81339547B9
:101C5000A105B10530F19091FB04809152029923C6
:101C600079F0893C98F4853110F491E003C0883C08
:101C700019F49FEF9093530290915302890F07C07C
:101C80008A3178F08F3110F489E101C0855080935A
:101C900052026091520270E083E01F910F910C9408
:101CA000B9351F910F9108958091F30481110E941D
:101CB000D20D8093FB040895CF93C091F8048091D6
:101CC000660381110E94B90DC81749F081E06C2F9D
:101CD00068276093F80480E0CF910C947D36CF9113
:101CE000089561E083E00E9441366FEF70E083E089
:101CF0000C94B9350E94063560932C0570932D0520
:101D000080932E0590932F058FEF809352026FEFF3
:101D100070E083E00C94B93580E194E20E940F21D9
:101D20000E94082121E0029709F020E0822F089507
:101D3000CF93DF93C0E0D0E060E0CE010E94993AFB
:101D40002196C11584E0D807B9F7DF91CF910895A6
:101D5000CF93DF9300D0CDB7DEB79A83898342E07B
:101D600050E060E074E0CE0101960E948F3A0F903F
:101D70000F90DF91CF91089582EC93E00E946C3731
:101D800090930305809302050E94A80E81E00895B8
:101D9000CF93DF9300D0CDB7DEB79A83898342E03B
:101DA00050E062E074E0CE0101960E948F3A0F90FD
:101DB0000F90DF91CF91089582EC93E00E946C37F1
:101DC00090930105809300050E94C80E81E008955C
:101DD000CF93DF9300D000D0CDB7DEB769837A838D
:101DE0008B839C8344E050E064E074E0CE01019674
:101DF0000E948F3A0F900F900F900F90DF91CF912C
:101E0000089542E050E060E074E082E095E00E94D6
:101E10007F3A42E050E062E074E080E095E00E94AA
:101E20007F3A44E050E064E074E08CEF94E00C947E
:101E30007F3A0E94010F8091F30481110E94D20D1C
:101E40008093FB0408950E9476206093FC047093B5
:101E5000FD048093FE049093FF040E94E80E10920C
:101E6000FB040895CF93DF9300D0CDB7DEB79A83FC
:101E7000898342E050E060E073E0CE0101960E9469
:101E80008F3A0F900F90DF91CF9108950F931F938A
:101E9000CF93DF9300D000D01F92CDB7DEB78091F3
:101EA000C2039091C3039A8389831B82CE0101965A
:101EB0000E946C378C0185EC93E00E946C3724E023
:101EC000000F111F2A95E1F734E0880F991F3A950A
:101ED000E1F76AE070E00E940737C801860F971F9C
:101EE0009093FA048093F9040E94320F81E00F90DE
:101EF0000F900F900F900F90DF91CF911F910F9146
:101F0000089542E050E060E073E00C947F3A89EF7E
:101F100094E00E94810F8091660381110E94B90DA7
:101F20008093F80461E080E00E9441366091F804FB
:101F300080E00C947D36CF93DF9300D000D0CDB7F6
:101F4000DEB79A8389837C836B8342E050E060E054
:101F500072E0CE0101960E948F3A42E050E062E0CA
:101F600072E0CE0103960E948F3A0F900F900F906F
:101F70000F90DF91CF9108951F93CF93DF9300D0FF
:101F800000D01F92CDB7DEB78091C2039091C303FA
:101F90009A8389831B82CE0101960E946C37182F89
:101FA000893110F080E030C08091C4039091C50366
:101FB0009A838983CE0101960E946C378D3390F706
:101FC00099272CE3129F800D911D112420919E03CF
:101FD00030919F03232B29F49093F7048093F60408
:101FE00004C09093F5048093F4046091F40470911C
:101FF000F5048091F6049091F7040E949B0F1092D3
:10200000BB031092BA0381E00F900F900F900F90D6
:102010000F90DF91CF911F910895CF93DF93EB0144
:1020200042E050E060E072E00E947F3A42E050E01F
:1020300062E072E0CE01DF91CF910C947F3A64EFC1
:1020400074E086EF94E00E940D100E94A50C80932E
:10205000F30461E081E00E9441366091F30481E085
:102060000C947D36CF93DF931F92CDB7DEB785E812
:1020700094E00E947D29882321F089830E947A0EB2
:1020800089810F90DF91CF91089504960C94EB2FE6
:1020900066E470E18EE094E00E94503028E532E082
:1020A0004DE060E08AE094E00C944510EF92FF92DE
:1020B0000F931F93CF93DF93CDB7DEB7E2970FB6A1
:1020C000F894DEBF0FBECDBF82E5E82E84E0F82E87
:1020D00000E420E840E060E08EE094E00E940E2BF7
:1020E00066E470E18EE094E00E9450308EE094E06F
:1020F0000E9448302AE733E045E065E58AE094E055
:102100000E9445106DE371E088ED93E00E949337E3
:102110006AE773E08EE094E00E94693065E5680F3D
:1021200028ED33E045E08AE094E00E94451025E97F
:1021300033E044E363E08AE094E00E94451062E506
:1021400079E08EE094E00E9450308EE094E00E94AE
:10215000483022E833E04FE062E68AE094E00E94F3
:1021600045106DE371E088ED93E00E94933762E8DB
:1021700073E08EE094E00E94693062E6680F28ED1B
:1021800033E04FE08AE094E00E9445106AE873E093
:102190008EE094E00E9469306CE7681B2AE833E027
:1021A00046E38AE094E00E9445108091F30488237E
:1021B00041F002E022E047E069E08EE094E00E9416
:1021C000472B8091F804882341F002E022E047E0A9
:1021D00061E18EE094E00E94472B8091FB0488230C
:1021E000F1F0809101058F93809100058F9383E634
:1021F00092E09F938F938E010F5F1F4F1F930F935A
:102200000E94CE37980149E165E08AE094E00E949F
:1022100045100F900F900F900F900F900F90E29637
:102220000FB6F894DEBF0FBECDBFDF91CF911F91E7
:102230000F91FF90EF9008950F931F93CF93DF932B
:10224000CDB7DEB72B970FB6F894DEBF0FBECDBF6C
:10225000482FFB01CB016CE370E00E94073754EC80
:1022600056039001579F300D11242E0F3F1F3F93AF
:102270002F937F936F9327E832E03F932F938E0144
:102280000F5F1F4F1F930F934B870E94CE3798010C
:102290004B856CE38AE094E00E9445100FB6F894F9
:1022A000DEBF0FBECDBF2B960FB6F894DEBF0FBEBC
:1022B000CDBFDF91CF911F910F910895BC0188EDA3
:1022C00093E00E94933768ED73E08EE094E00E9403
:1022D000693090E00895EF92FF920F931F93CF9390
:1022E000DF93CDB7DEB764970FB6F894DEBF0FBEAD
:1022F000CDBF66E470E18EE094E00E9450308EE045
:1023000094E00E94483069ED70E088ED93E00E940F
:10231000933789ED90E00E945E1197FD01969595A7
:10232000879591958195910960E4680F28ED33E0D8
:1023300040E08AE094E00E94451000917B04002E6A
:10234000000C110B80917C04081B110987FD13956B
:102350000F5F1F4F4FEF400F20E860E08EE094E0EA
:102360000E94D63062E579E08EE094E00E94503021
:102370008EE094E00E944830E0907B040E2C000C2C
:10238000FF0880917C04E81AF10887FDF39467EC5C
:1023900070E088ED93E00E94933728ED33E0402F02
:1023A00060E08AE094E00E94451068EB70E088ED00
:1023B00093E00E949337E00E28ED33E04E2D60E06D
:1023C0008AE094E00E9445104AE0BE016F5F7F4FB3
:1023D00080910205909103050E94A1379E012F5F15
:1023E0003F4F402F64E68AE094E00E9445104AE0A7
:1023F000BE016F5F7F4F80910005909101050E94A3
:10240000A1379E012F5F3F4F4E2D64E68AE094E096
:102410000E94451064960FB6F894DEBF0FBECDBF84
:10242000DF91CF911F910F91FF90EF9008950F933F
:102430001F93CF93DF9366E470E18EE094E00E94F7
:1024400050308EE094E00E94483060E171E088ED09
:1024500093E00E94933780E191E00E945E1197FD26
:1024600001969595879591958195910960E4680FFE
:1024700028ED33E040E08AE094E00E944510C091EE
:102480007B040C2E000CDD0B80917C04C81BD10951
:1024900087FDD39521964C2F415020E860E08EE0D7
:1024A00094E00E94D6308EE094E00E944830009183
:1024B0007B04002E000C110B80917C04081B110979
:1024C00087FD139566E071E088ED93E00E949337F5
:1024D00028ED33E04C2F60E08AE094E00E94451044
:1024E0006EEF70E088ED93E00E9493374C2F400F21
:1024F00028ED33E060E08AE094E00E9445106091AE
:10250000F6047091F704CE010E941C116091F4044E
:102510007091F504CE01800F911FDF91CF911F9133
:102520000F910C941C113F924F925F926F927F9289
:102530008F929F92AF92BF92CF92DF92EF92FF92D3
:102540000F931F93CF93DF9366E470E18EE094E0E6
:102550000E9450308EE094E00E944830E091D60313
:10256000F091D7036081718188ED93E00E949337E9
:10257000E091D603F091D703808191810E945E1192
:1025800097FD01969595879591958195910960E4C0
:10259000680F28ED33E040E08AE094E00E944510A7
:1025A00000917B04002E000C110B80917C04081B11
:1025B000110987FD13950F5F1F4F302E4FEF400F0E
:1025C00020E860E08EE094E00E94D63062E579E099
:1025D0008EE094E00E9450308EE094E00E944830FB
:1025E000C0917B040C2E000CDD0B80917C04C81B79
:1025F000D10987FDD395239680E490E0801B910B51
:10260000BE010E94F3365B0180919E0390919F036F
:102610000E9407376A9D40016B9D900C7A9D900C3B
:102620001124E091D603F091D703C401880F991FBC
:10263000E280F380E80EF91E1C2FC12CD12C27015B
:10264000F70180819181892B09F441C0CA14DB0410
:10265000F4F53601680C791C80919E0390919F03DC
:102660006816790681F480917C040C2F081B20E801
:10267000432D60E08EE094E00E94472B60E08EE006
:1026800094E00E94F63082E0E80EF11CF2016081D5
:10269000718188ED93E00E94933728ED33E043E0A9
:1026A000430D65E08AE094E00E94451080919E030E
:1026B00090919F036816790629F461E08EE094E01A
:1026C0000E94F630FFEFCF1ADF0A310EB8CFDF914C
:1026D000CF911F910F91FF90EF90DF90CF90BF901F
:1026E000AF909F908F907F906F905F904F903F90B2
:1026F00008950F931F93CF93DF9366E470E18EE00C
:1027000094E00E9450308EE094E00E944830E091C6
:10271000BE03F091BF036081718188ED93E00E9458
:102720009337E091BE03F091BF03808191810E94B5
:102730005E1197FD019695958795919581959109E3
:1027400060E4680F28ED33E040E08AE094E00E9406
:10275000451040917B0480917C04481B20E860E098
:102760008EE094E00E94D63062E579E08EE094E05D
:102770000E9450308EE094E00E94483040917B04EB
:10278000042E000C550B80917C04481B510987FDD9
:102790005395E091BE03F091BF0302811381D42FC2
:1027A000C42FCC0FF801619171918F0161157105F2
:1027B00071F088ED93E00E94933728ED33E04C2FC1
:1027C00060E08AE094E00E944510CD0FEBCF2CE64C
:1027D00046E365E08EE094E00E94D63066E470E166
:1027E0008EE094E00E9450308EE094E00E944030F1
:1027F00022EC33E046E365E08AE094E0DF91CF919C
:102800001F910F910C944510E0911A02F0911B0258
:102810000480F581E02D309709F009940895A8957A
:1028200080E395E00E94C81A0E94321081110C9436
:10283000041408958EE094E00E941E348EE094E02B
:102840000E94162C60E08EE094E00E9428340C94E4
:10285000E00C88E191E090931B0280931A020C94A3
:10286000E00C0F931F93CF93DF938C01EB0197FF45
:1028700006C08DE2888311950195110921964AE0E1
:10288000BE01C80124E0959587952A95E1F70E943D
:10289000A13709900020E9F721978EE2FE0181938C
:1028A000BF010F70112724E6209FC001219F900DCA
:1028B00011244AE034E0959587953A95E1F70E9416
:1028C000A1378A81811105C089818A8380E3898348
:1028D0001B82DF91CF911F910F9108950F931F934A
:1028E000CF93DF93CDB7DEB764970FB6F894DEBF12
:1028F0000FBECDBF66E470E18EE094E00E945030E0
:102900008EE094E00E9448306CEE70E088ED93E039
:102910000E9493378CEE90E00E945E1197FD019625
:102920009595879591958195910960E4680F28EDBB
:1029300033E040E08AE094E00E94451000917B047F
:10294000002E000C110B80917C04081B110987FDDF
:1029500013950F5F1F4F4FEF400F20E860E08EE0B0
:1029600094E00E94D6308EE094E00E944830BE0190
:102970006F5F7F4F8091F9049091FA040E943114A7
:102980009E012F5F3F4F402F65E08AE094E00E9458
:1029900045106DE371E088ED93E00E949337BE012E
:1029A0006F5F7F4F8EE094E00E94693065E0680FB2
:1029B00028ED33E0402F8AE094E00E9445106496B1
:1029C0000FB6F894DEBF0FBECDBFDF91CF911F9140
:1029D0000F910895AF92BF92CF92DF92EF92FF9244
:1029E0000F931F93CF93DF93CDB7DEB764970FB6E6
:1029F000F894DEBF0FBECDBF66E470E18EE094E0D8
:102A00000E9450308EE094E00E94483060E371E014
:102A100088ED93E00E94933780E391E00E945E117D
:102A200097FD01969595879591958195910960E41B
:102A3000680F28ED33E040E08AE094E00E94451002
:102A400040917B04042E000C550B80917C04481BA4
:102A5000510987FD53954F5F5F4FC42E415020E8C9
:102A600060E08EE094E00E94D6308EE094E00E9418
:102A70004830E0907B0480917C04E81A3CE2A32E6D
:102A800033E0B32EF12C00E010E0809134039091FC
:102A90003503081719070CF043C04BE050E064E21F
:102AA00071E0CE0101960E948A3780E3800F8C8707
:102AB0001D86DF2CDC0C9E012F5F3F4F4D2D60E00B
:102AC0008AE094E00E944510BE016F5F7F4FF501E0
:102AD000819191915F010E9431149E012F5F3F4FC0
:102AE0004D2D66E58AE094E00E9445106DE371E0AB
:102AF00088ED93E00E949337BE016F5F7F4F8EE0B9
:102B000094E00E94693066E5680F28ED33E04D2DB2
:102B10008AE094E00E9445100F5F1F4FFE0CB5CF76
:102B200064960FB6F894DEBF0FBECDBFDF91CF9194
:102B30001F910F91FF90EF90DF90CF90BF90AF90DB
:102B400008950F931F93CF93DF93CDB7DEB72997E7
:102B50000FB6F894DEBF0FBECDBF0E947620AB014A
:102B6000BC019E01285F3F4F84E095E00E949925BB
:102B7000AE014F5F5F4F0E94801E89811F928F932D
:102B80008A811F928F938B811F928F9382E892E0AC
:102B90009F938F9385E993E09F938F930E94CE3705
:102BA0008F8190E08E54984F9F938F938E811F92C8
:102BB0008F938D811F928F9381E992E09F938F93E2
:102BC0008AE893E09F938F930E94CE3708E613E044
:102BD0006AE773E0F801808191810E94311462E814
:102BE00073E0F801828193810E9431140FB6F8944A
:102BF000DEBF0FBECDBF29960FB6F894DEBF0FBE65
:102C0000CDBFDF91CF911F910F910895FC012181DC
:102C100030E0322F22278081282B3595279544E0FC
:102C2000220F331F4A95E1F724503109468180E194
:102C300090E0841B9109820F931F08958CE693E026
:102C40000E94252140E06CEC8CE693E00E94BF21BD
:102C500041E064E48CE693E00C94BF21EF92FF9294
:102C60000F931F93CF93DF938C01EB018CE693E0DE
:102C70000E942521B8018CE693E00E94142240E0D6
:102C80006EEB8CE693E00E94BF218E017E0189E00D
:102C9000E80EF11C8CE693E00E94F821F801819384
:102CA0008F01EE15FF05B1F768E0CE010E94072302
:102CB00091E02885821390E0892FDF91CF911F91B9
:102CC0000F91FF90EF900895BF92CF92DF92EF9215
:102CD000FF920F931F93CF93DF93CDB7DEB761972A
:102CE0000FB6F894DEBF0FBECDBF96E3E92E93E09A
:102CF000F92E670100E010E028E0B22E0430110543
:102D0000D1F0BE01665F7F4F8CE693E00E94722295
:102D1000882389F08A85803189F70F5F1F4FFE0174
:102D20003A96D6018B2D01900D928A95E1F788E0B5
:102D3000C80ED11CE3CF8CE693E00E944122109391
:102D40003503009334030E941E166EEE72E080E09D
:102D500090E00E9437358CE2C82E83E0D82E00E048
:102D600010E0809134039091350308171907A4F4FB
:102D7000BE016F5F7F4FC7010E942E16CE010196E4
:102D80000E940616F601819391936F010F5F1F4F0A
:102D9000F8E0EF0EF11CE5CF61960FB6F894DEBFB8
:102DA0000FBECDBFDF91CF911F910F91FF90EF909C
:102DB000DF90CF90BF9008958531910508F002C152
:102DC000FC01EC5CFF4F0C943D3788E191E0F6C0CC
:102DD0001092BD031092BC031092BB031092BA0371
:102DE00088EF91E00CC081E090E09093BD03809368
:102DF000BC031092BB031092BA038AEE91E0909349
:102E0000D7038093D6038EE191E0D8C01092BD0322
:102E10001092BC031092BB031092BA038EED91E0A6
:102E2000BEC081E090E09093BD038093BC0390937B
:102E3000BB038093BA0382EC91E0E1CF85E090E0A0
:102E40009093BD038093BC031092BB031092BA030E
:102E500082E191E090931B0280931A020E94641613
:102E6000B1C085E090E09093BD038093BC031092C5
:102E7000BB031092BA0388EB91E091C081E090E02F
:102E80009093BD038093BC0385E090E09093BB03D7
:102E90008093BA0382EA91E0B2CF0E94980E81E05B
:102EA00090E052C081E090E09093BD038093BC031A
:102EB00082E090E09093BB038093BA0386E891E0B0
:102EC0009ECF1092BD031092BC038AE791E067C0C9
:102ED0008AE090E09093BD038093BC031092BB0303
:102EE0001092BA038CE091E069C081E090E0909389
:102EF000BD038093BC0383E090E09093BB03809379
:102F0000BA0388E691E07BCF8DE090E09093BD031B
:102F10008093BC0381E090E09093BB038093BA035D
:102F20008CE591E03CC08DE090E09093BD038093F0
:102F3000BC031092BB031092BA0386E091E03EC03E
:102F40000E94230F80E090E00E94DC163BC081E0ED
:102F500090E09093BD038093BC0384E090E0909355
:102F6000BB038093BA0382E491E049CF80E190E013
:102F70009093BD038093BC031092BB031092BA03DD
:102F800086E391E00CC080E190E09093BD038093D4
:102F9000BC031092BB031092BA038AE291E00E9434
:102FA000940C10C080E190E09093BD038093BC032B
:102FB0001092BB031092BA0380E091E090931B0241
:102FC00080931A020C94E00C823451F08434B1F4F2
:102FD00088E191E090931B0280931A020C94E00C1C
:102FE0008091BA039091BB0390939F0380939E03BB
:102FF0008091BC039091BD030C94DC16089583323C
:1030000051F0833451F410929F0310929E0381E09B
:1030100090E00C94DC160C94230F0895082E000CFD
:10302000990BAA0BBB0BFC01F297E331F10508F0F9
:103030005DC0E75BFF4F0C943D3788E191E09093D2
:103040001B0280931A020CC080919E0390919F03F3
:10305000009709F44BC0019790939F0380939E03C0
:103060000C94E00C80919E0390919F03E091D60315
:10307000F091D70301969C01220F331F0280F38148
:10308000E02DE20FF31F20813181232B29F72EC081
:10309000A091D603B091D70380919E0390919F0396
:1030A000880F991F1696ED91FC911797E80FF91F5D
:1030B0002081318130939F0320939E0314962D919C
:1030C0003C911597F901E80FF91F808191810CC09F
:1030D0008091BA039091BB0390939F0380939E03CA
:1030E0008091BC039091BD030C94DC16089582344A
:1030F00041F11CF4813469F031C0833409F446C0D5
:10310000843461F588E191E090931B0280931A0268
:103110003BC0E091BE03F091BF030480F581E02D38
:103120000995882399F18091BA039091BB039093FC
:103130009F0380939E038091BC039091BD030C94E8
:10314000DC168091C0039091C1030097F9F00197BC
:103150009093C1038093C003FC0113C02091C0036E
:103160003091C1032331310589F0A9014F5F5F4FD1
:103170005093C1034093C003F901EE53FC4F808389
:10318000FA01EE53FC4F10820C94E00C08950F935B
:103190001F93CF93DF93CDB7DEB729970FB6F8947F
:1031A000DEBF0FBECDBFBE016F5F7F4F86E593E0F0
:1031B0000E942E16CE0101960E94061608E613E024
:1031C000F80191838083BE016F5F7F4F8EE593E0AE
:1031D0000E942E16CE0101960E940616F8019383D6
:1031E00082830E941E1629960FB6F894DEBF0FBE8A
:1031F000CDBFDF91CF911F910F910895FB0123E087
:10320000880F991F2A95E1F7BC01739548E050E0BB
:10321000CF010C948F3AFB0123E0880F991F2A9568
:10322000E1F7BC01739548E050E0CF010C947F3A80
:1032300066E573E080E090E00E940B196EE573E0B4
:1032400081E090E00C940B196091C20388E0680261
:10325000B00111246A547E4F80919E0390919F0388
:103260000E94FE180E94181981E00895CF92DF9203
:10327000EF92FF920F931F93CF93DF93CDB7DEB7FB
:1032800029970FB6F894DEBF0FBECDBF0E94181964
:103290000E941E166EEE72E080E090E00E943735CC
:1032A00006E513E086E6C82E83E0D82E98E6E92EE0
:1032B00093E0F92EBE016F5F7F4FC8010E942E166A
:1032C000F60181936F01882339F0CE0101960E94A7
:1032D0000616F70191838083085F1F4FF2E0EF0E1F
:1032E000F11C83E00636180729F781E090E0299663
:1032F0000FB6F894DEBF0FBECDBFDF91CF911F9107
:103300000F91FF90EF90DF90CF90089598E288E1C1
:103310000FB6F894A895809360000FBE909360005C
:1033200062E082E00E9441360E94710E0E941A14EF
:103330000E948C0E0E941F100E9436190E94870F57
:103340000E94190F27EC38E144E358E060E070E098
:1033500080E395E00E94331B2DEF3CE044E650E013
:1033600060E070E080E395E00E94331B24E13EE0E2
:1033700048E250E060E070E080E395E00E94331B9B
:1033800022E03EE044E853E060E070E080E395E056
:103390000E94331B2CE53EE048E456E260E070E01A
:1033A00080E395E00E94331B24E53EE04CED55E0C0
:1033B00060E070E080E395E00E94331B0C942914D8
:1033C000CF92DF92EF92FF920F931F93CF93DF93F1
:1033D00080E395E00E94B41A8DB79EB70C970FB6A4
:1033E000F8949EBF0FBE8DBFADB7BEB711968CE0EF
:1033F000EAE3F2E001900D928A95E1F7C09046026F
:10340000D0904702E0904802F090490200914A02B1
:1034100010914B0220914C0230914D0240914E028E
:1034200050914F02609150027091510284E095E0FA
:103430000E94312484E0E82E04E022E232E046E2F9
:1034400052E06AE272E085E894E00E948026CAE0D9
:10345000D4E01B821A828EE992E09983888388E106
:1034600092E39093820480938104109283041092DB
:1034700084048EE094E00E94223286EA92E09983EE
:10348000888327E939E24BEF59E263ED72E08EE081
:1034900094E00E942C2C2FEF49E06AE08EE094E04B
:1034A0000E94B02A8DB79EB70C960FB6F8949EBFB7
:1034B0000FBE8DBF64E08CE693E0DF91CF911F914A
:1034C0000F91FF90EF90DF90CF900C944D22FC0174
:1034D00010820895CF92DF92EF92FF92CF93DF9305
:1034E000EC010E9406356B017C018B859C85AD85C6
:1034F000BE85B701A601481B590B6A0B7B0B89815E
:103500009A81AB81BC81481759076A077B07D8F0BD
:103510008881813019F0823029F00CC0E985FA8564
:10352000099508C061E09885911160E068878F81F6
:103530000E947D36CB86DC86ED86FE868F85988957
:103540000196988B8F878D819E8197FD06C02F8570
:103550003889281739070CF01882DF91CF91FF9036
:10356000EF90DF90CF9008950F931F93CF93DF9349
:10357000EC018C0106551F4FCE010E94671A61961F
:10358000C017D107C9F7DF91CF911F910F9108950F
:103590000F931F93CF93DF93EC018C0106551F4FC0
:1035A0008881882319F0CE010E946A1A6196C0179B
:1035B000D107B1F7DF91CF911F910F910895FC01D1
:1035C00090E08081882331F09F5F71969A30C9F72F
:1035D0008FEF0895892F0895AF92BF92CF92DF9217
:1035E000EF92FF920F931F93CF93DF9300D000D001
:1035F000CDB7DEB75C017901680149835A836B83DB
:103600007C830E94DF1A182F49815A816B817C814B
:103610008F3FC9F081E11802A00CB11C112481E098
:10362000F50180834183528363837483D682C5828C
:10363000F286E1860E940635F501638774878587E7
:103640009687108A1786812F0F900F900F900F90FA
:10365000DF91CF911F910F91FF90EF90DF90CF906E
:10366000BF90AF9008950F931F930FEF1FEF0E942D
:10367000EC1A1F910F91089580910A0690E0209115
:103680000B06821B9109089590910B0680910A0602
:10369000981750F4E92FF0E0E45FF94F208130E013
:1036A0009F5F90930B0602C02FEF3FEFC901089573
:1036B000E0910B0680910A06E81730F4F0E0E45F31
:1036C000F94F808190E008958FEF9FEF089508955E
:1036D000CF92DF92EF92FF920F931F93CF93DF93DE
:1036E0007C01262F972F8A018091E605882391F08F
:1036F000C62FD72F6E01C40ED51ECC15DD0571F077
:103700006991D701ED91FC910190F081E02DC70105
:103710000995F3CF642F822F0E942A1DC801DF91E3
:10372000CF911F910F91FF90EF90DF90CF90089570
:10373000CF93DF931F92CDB7DEB769832091E60563
:103740002223D1F02091E705203240F021E030E043
:10375000FC013383228380E090E015C08091E8056E
:10376000E82FF0E0E751FA4F998190838F5F8093C3
:10377000E8058093E70505C061E0CE0101960E944F
:103780002A1D81E090E00F90DF91CF910895FC0118
:103790001382128288EE93E0A0E0B0E084839583E8
:1037A000A683B7838EEA92E0918380830895109276
:1037B0000B0610920A061092E8051092E7050C9489
:1037C0006E1C81E08093E605609309061092E8057F
:1037D0001092E70508950C94E11B0F93062F21E04A
:1037E0004091E70569EE75E0809109060E94D41CBE
:1037F0001092E8051092E7051092E6050F910895E2
:103800004F925F926F927F92AF92BF92CF92EF9260
:10381000FF920F931F93CF93DF935C01F62ED42F6B
:1038200028013901EE2021F10E94E11BCE2DC43088
:1038300008F0C3E0C150C0F0D501ED91FC91B8E0B3
:10384000CB9FC0011124A301920104C05695479556
:10385000379527958A95D2F7CA01B9010190F08171
:10386000E02DC5010995E6CF60E0C5010E94ED1B82
:103870004D2FD13208F040E22C2D6CE076E08F2DF8
:103880000E948C1C10920B0680930A06DF91CF9148
:103890001F910F91FF90EF90CF90BF90AF907F90CE
:1038A0006F905F904F900895CF92EF920F931F9378
:1038B000C22EE12C00E010E098010E94001C1F9134
:1038C0000F91EF90CF90089521E00C94541C61E08B
:1038D0000C94ED1B8AED95E00C94C71B1092990691
:1038E00081E0809397061092960661E082E10E9443
:1038F0007D3661E083E10E947D36E9EBF0E0808176
:103900008E7F808380818D7F808388E48093B80060
:1039100085E48093BC000895413208F043C0909143
:1039200099069111FCCF91E0909399062093970608
:103930002FEF20932C0610927106240F209370060F
:103940009093980690919806880F892B80939806FB
:1039500080919606813061F41092960680919806C7
:103960008093BB008091BC0083FDF8CF85EC01C043
:1039700085EE8093BC00809199068130E1F38091BF
:103980007106841710F44091710622E736E0FB01BE
:10399000D9018A2F821B841718F48D918193F9CF56
:1039A000842F089580E008950F93413208F04AC0B3
:1039B000909199069111FCCF32E0309399060093D3
:1039C00097063FEF30932C061092710640937006D5
:1039D000FB0162E776E0DB013A2F361B341718F45F
:1039E00031913D93F9CF1092980630919806880F47
:1039F000832B8093980680919606813061F4109213
:103A00009606809198068093BB008091BC0083FD50
:103A1000F8CF85EC01C085EE8093BC00222321F015
:103A2000809199068230D1F380912C068F3F79F0F6
:103A300080912C06803241F080912C06803331F049
:103A400094E005C091E003C092E001C093E0892FAB
:103A50000F910895613298F420919906243089F4E9
:103A600060934E06FC0120E536E0D9018A2F821BC7
:103A7000861718F481918D93F9CF80E0089581E045
:103A8000089582E0089585ED8093BC008091BC008C
:103A900084FDFCCF10929906089585EC8093BC00BC
:103AA0001092990608951F920F920FB60F9211244B
:103AB0002F933F934F935F936F937F938F939F9336
:103AC000AF93BF93EF93FF938091B900887F8036C7
:103AD00009F49EC078F5883209F45DC090F4803115
:103AE00009F456C038F4882309F4F5C0883009F485
:103AF0004FC0F5C0883109F44EC0803209F45FC070
:103B0000EEC0803409F46AC058F4803309F457C019
:103B1000883309F0E4C080932C060E944D1DDFC05D
:103B2000803509F44FC0883509F45DC0883409F048
:103B3000D6C0D3C0883909F4C4C0A8F4883709F4C2
:103B400067C038F4883609F463C0803709F460C070
:103B5000C6C0883809F4B5C0803909F45FC0803820
:103B600009F0BDC05BC0803B09F483C038F4803AE3
:103B700009F466C0883A09F47CC0B1C0803C09F4FD
:103B8000A4C0883C09F4A1C0883B09F487C0A7C041
:103B90008091980610C090917106809170069817D8
:103BA00070F5E091710681E08E0F80937106F0E070
:103BB000EE58F94F80818093BB0085EC83C08093E1
:103BC0002C068BC0E091710681E08E0F8093710608
:103BD0008091BB00F0E0EE58F94F80839091710620
:103BE000809170066BC0E091710681E08E0F80932A
:103BF00071068091BB00F0E0EE58F94F8083809110
:103C0000970681116AC081E08093960684EA5EC0BF
:103C100083E08093990610922D06CFCF80912D06D8
:103C2000803208F04EC0E0912D0681E08E0F809327
:103C30002D068091BB00F0E0E25DF94F8083BDCF9F
:103C40000E944D1D80912D06803230F4E0912D06AA
:103C5000F0E0E25DF94F108260912D0670E0E09196
:103C60009206F09193068EE296E0099510922D0649
:103C700036C084E08093990610924F0610924E064B
:103C8000E0919406F0919506099580914E06811178
:103C900005C081E080934E0610925006E0914F06D9
:103CA00081E08E0F80934F06F0E0E05BF94F80815A
:103CB0008093BB0090914F0680914E06981708F4B0
:103CC0007CCF85E88093BC000AC085EC8093BC0063
:103CD0001092990604C010922C060E94431DFF9179
:103CE000EF91BF91AF919F918F917F916F915F9174
:103CF0004F913F912F910F900FBE0F901F901895ED
:103D00006F927F928F929F92AF92BF92CF92DF92EB
:103D1000EF92FF920F931F93CF93DF93EA012CE36F
:103D2000C22ED12CE12CF12CA70196010E941B3749
:103D30006883CA01B901A70196010E941B376983F4
:103D4000CA01B90128E130E040E050E00E941B3791
:103D500069017A016A83CA01B9016C5F7F4F8F4F95
:103D60009F4F27E030E040E050E00E941B376F5F3C
:103D70006B83812C912C540140E034E6632E712C2E
:103D800000E911E0242F30E02E54384FF901E370A0
:103D9000FF27309789F4C901B3010E940737892BA7
:103DA00031F4C901B8010E940737892B29F48EE646
:103DB00091E0A0E0B0E004C08DE691E0A0E0B0E0CA
:103DC000880E991EAA1EBB1ED501C401AA27BB27B7
:103DD000C816D906EA06FB0610F04F5FD3CF4E8314
:103DE000309799F4C90164E670E00E940737892B87
:103DF00039F4C90160E971E00E940737892B29F481
:103E00008EE691E0A0E0B0E004C08DE691E0A0E095
:103E1000B0E0881A990AAA0ABB0AC818D908EA08A1
:103E2000FB08C90164E670E00E9407378C01C901F4
:103E300060E971E00E940737AAEBB2E020E0213090
:103E400041F4309751F40115110529F4009729F434
:103E500002C04C9103C04DE101C04CE150E060E074
:103E600070E0C416D506E606F70640F0C41AD50A77
:103E7000E60AF70A2F5F11962C3009F72F5F2D8382
:103E8000C394CC82DF91CF911F910F91FF90EF905F
:103E9000DF90CF90BF90AF909F908F907F906F906A
:103EA0000895CF92DF92EF92FF92C090AA06D09031
:103EB000AB06E090AC06F090AD066C157D058E0566
:103EC0009F0571F06B017C014EEA56E00E94801E56
:103ED000C092AA06D092AB06E092AC06F092AD0674
:103EE000FF90EF90DF90CF9008950E94511F809136
:103EF000B10690E008950E94511F8091B40690E0B1
:103F00008E54984F08956F927F928F929F92AF92A6
:103F1000BF92CF92DF92EF92FF920F931F93CF93B6
:103F2000DF93EC01EE81AE2FB0E020E833E341EE09
:103F300051E00E9459374B015C0122EB37E0FD0153
:103F400004E610E080E9E82EFF24F394C901825BC7
:103F500097408E179F07DCF4C90183709927892B3E
:103F600099F4C901B8010E940737892B31F4C901BE
:103F7000B7010E940737892B39F480E8880E81E564
:103F8000981E81E0A81EB11C2F5F3F4FDFCF6D80D0
:103F9000712CEE54F84FCF0164E670E00E940737B1
:103FA0007C01CF0160E971E00E9407376C0101E0FC
:103FB00010E0E370FF27061517052CF502301105F8
:103FC00081F4309771F4E114F10419F4C114D104AF
:103FD00041F480E8880E8BE3981E86E2A81EB11C8F
:103FE0000FC0D801A754BD4FAC91B0E020E831E537
:103FF00041E050E00E945937860E971EA81EB91E58
:104000000F5F1F4FD8CF49812A8130E0A0E1BEE089
:104010000E9443376B017C01242F30E0ACE3B0E019
:104020000E944337DC01CB018C0D9D1DAE1DBF1DD1
:1040300028816C017D01C20ED11CE11CF11CAC81F8
:10404000B0E0119720E831E541E050E00E9464378C
:10405000DC01CB018C0D9D1DAE1DBF1DBC01CD0132
:10406000680D791D8A1D9B1DDF91CF911F910F91C6
:10407000FF90EF90DF90CF90BF90AF909F908F9088
:104080007F906F9008950F931F936093A60670938F
:10409000A7068093A8069093A90600915402109158
:1040A00055022091560230915702DC01CB01800F5E
:1040B000911FA21FB31F80939E0690939F06A0930B
:1040C000A006B093A10682E090E090939D068093B5
:1040D0009C060E9406356093A2067093A306809307
:1040E000A4069093A5061F910F910895CF92DF9299
:1040F000EF92FF920F931F930E940635C090A20685
:10410000D090A306E090A406F090A5068B019C0138
:104110000C191D092E093F098091A6069091A7064A
:10412000A091A806B091A906083E134021053105CB
:10413000D0F00196A11DB11D8093A6069093A7060D
:10414000A093A806B093A906B701A60148515C4FF9
:104150006F4F7F4F4093A2065093A3066093A4062F
:104160007093A506C9CF40919E0650919F0660911D
:10417000A0067091A10684179507A607B707C8F196
:10418000E0919A06F0919B06309799F10995611597
:1041900071058105910519F00E9443202AC04091C4
:1041A00054025091550260915602709157028091CD
:1041B000A6069091A706A091A806B091A906840F23
:1041C000951FA61FB71F80939E0690939F06A093EE
:1041D000A006B093A10681E090E020919C0630916A
:1041E0009D06232B11F480E090E090939D06809330
:1041F0009C066091A6067091A7068091A8069091F2
:10420000A9061F910F91FF90EF90DF90CF90089536
:104210000E94762080919C0690919D06089590932F
:104220009B0680939A068091A6069091A706A0917E
:10423000A806B091A90680939E0690939F06A0932E
:10424000A006B093A1060C9476200F931F93CF93F2
:10425000DF93FC011081C181D281F8948A81012F02
:10426000009580238A838981812B8983789480EECD
:1042700091E00E947335F8948981082309838A812B
:10428000812B8A8386E490E00E94733508817894BC
:104290008AE991E00E9473358881812321F491E0BD
:1042A0009093B50606C0102381E009F080E01092DB
:1042B000B506DF91CF911F910F9108951F93CF9372
:1042C000DF93FC011081C181D281812F809560FF35
:1042D00012C0F8949A8189238A838981812B8983EA
:1042E0008AE090E00E9473358A81182B1A837894B3
:1042F00087E390E011C0F8949A8189238A838981A9
:10430000812B898381E490E00E9473358A81182B88
:104310001A83789485E090E0DF91CF911F910C94FF
:1043200073350F931F93CF93DF93FC011081C181ED
:10433000D281F8948A81012F009580238A83898114
:10434000812B898383E090E00E9473358981082363
:1043500009838A81812B8A838AE090E00E947335E9
:10436000C881789485E390E00E9473351C2381E036
:1043700009F480E0DF91CF911F910F910895CF92C2
:10438000DF92EF92FF920F931F93CF93DF931F92D1
:10439000CDB7DEB76C01E62E08E010E0FF24F39401
:1043A00061E08F2D8E2109F460E0C60149830E94EF
:1043B0005E21FF0C0150110949810115110581F79A
:1043C00041110CC0F894D6011196ED91FC91129711
:1043D00091818C9180958923818378940F90DF91CE
:1043E000CF911F910F91FF90EF90DF90CF900895A4
:1043F000EF92FF920F931F93CF93DF937C0108E01E
:1044000010E0C0E0D1E0C7010E9491218111CD2BC5
:10441000DD0F01501109B9F78C2FDF91CF911F915A
:104420000F91FF90EF900895CF92DF92EF92FF925D
:104430000F931F93CF93DF931F92CDB7DEB78C01FD
:10444000F62E40E065E579830E94BF21CF2C79816B
:10445000D72E760188E0E80EF11CF60161916F011C
:1044600040E0C8010E94BF21CE14DF04B1F70F90D5
:10447000DF91CF911F910F91FF90EF90DF90CF9040
:104480000895FC01138615861486DC011B9633966D
:104490001E92AE17BF07E1F708950F931F93CF93B6
:1044A0008C01C62F60E08C2F0E9441366C2F70E08B
:1044B000FB01E95CF74EE491D801EC93FB01E55B6D
:1044C000F74EE491F0E0EE0FFF1FE15AF74E8591B1
:1044D0009491F80192838183C801CF911F910F912C
:1044E0000C944122AF92BF92CF92DF92EF92FF9253
:1044F0000F931F93CF93DF931F92CDB7DEB75C016D
:10450000E62ED72EFC01858581115DC0C5010E9474
:104510002521811105C0F5011386158614866BC00F
:1045200040E060EFC5010E94BF2101E0F12CC12CE9
:1045300011E0C5010E949121682FC50169830E9485
:1045400091216981613019F48130B9F433C04F2D64
:1045500050E068131BC0F5018385181730F4E40F91
:10456000F51F8381802349F402C0181731F060E001
:10457000193058F4F501148708C0F501EF0DF11D4D
:104580008381802B838361E009C0C12EF501E40F94
:10459000F51F9381802F809589238383C5010E9415
:1045A0005E211F5F000F11F4F39401E0F7E0FF15A7
:1045B00008F0BFCF113438F0F501C386C11015C023
:1045C00081E0858712C0F50113861586148680E088
:1045D000D5011396EE2DFD2D9501255F3F4F9D9141
:1045E0009193A217B307D9F706C0F50183818823F9
:1045F00051F381E0EDCF0F90DF91CF911F910F919B
:10460000FF90EF90DF90CF90BF90AF900895DC01C6
:10461000E0E0615038F08D91E827F0E0EE5AF74F76
:10462000E491F7CF8E2F08956AE00E94E73620E1EB
:10463000829F900D1124892F0895982F92959F7035
:104640008F702AE0929F800D112408958AED95E0E5
:104650000C94D71BCF93DF93EC0168E670E08AEDF2
:1046600095E00E94EB1B60E08AED95E00E94981BAC
:1046700088810E941423682F8AED95E00E94981B80
:1046800089810E941423682F8AED95E00E94981B6F
:104690008A810E941423682F8AED95E00E94981B5E
:1046A0008B810E941423682F8AED95E00E94981B4D
:1046B0008C810E941423682F8AED95E00E94981B3C
:1046C0008D810E941423682F8AED95E00E94981B2B
:1046D0008E818E510E941423682F8AED95E00E94EE
:1046E000981B8AED95E00E94671C882321F01092A8
:1046F000B60680E003C081E08093B606DF91CF91DB
:104700000895CF93DF93CDB7DEB727970FB6F89410
:10471000DEBF0FBECDBFAE014F5F5F4F0E94801E58
:10472000898180688983CE0101960E942A2389812C
:104730008F778983CE0101960E942A2327960FB690
:10474000F894DEBF0FBECDBFDF91CF9108951F93C8
:10475000CF93DF93EC0168E670E08AED95E00E946C
:10476000EB1B60E08AED95E00E94981B8AED95E0D6
:104770000E94671C882319F01092B6064CC081E095
:104780008093B60647E050E068E670E08AED95E079
:104790000E94641C8AED95E00E943C1B0797DCF1A7
:1047A0008AED95E00E94441B182F8F770E941D23ED
:1047B00088838AED95E00E94441B0E941D23898313
:1047C0008AED95E00E94441B8F730E941D238A830B
:1047D0008AED95E00E94441B0E941D238B838AED85
:1047E00095E00E94441B0E941D238C838AED95E076
:1047F0000E94441B0E941D238D838AED95E00E9438
:10480000441B0E941D23825E8E83812F8095881F0A
:104810008827881F01C080E0DF91CF911F91089504
:10482000CF93DF93CDB7DEB727970FB6F894DEBFEF
:104830000FBECDBFCE0101960E94A723882329F089
:10484000CE0101960E94831F03C060E070E0CB019F
:1048500027960FB6F894DEBF0FBECDBFDF91CF9184
:104860000895AF92BF92CF92DF92EF92FF920F9393
:104870001F93CF93DF93CDB7DEB72C970FB6F89485
:10488000DEBF0FBECDBF5C01C982DA82EB82FC8243
:104890000D831E832F83388749875A876B877C87D0
:1048A0008CE0FE013196D50101900D928A95E1F7D9
:1048B0009CE0FE017996D5011C9601900D929A9587
:1048C000E1F72C960FB6F894DEBF0FBECDBFDF9197
:1048D000CF911F910F91FF90EF90DF90CF90BF90FD
:1048E000AF9008958F929F92AF92BF92CF92DF9236
:1048F000EF92FF920F931F93CF93DF93CDB7DEB765
:1049000064970FB6F894DEBF0FBECDBF3F87598BBB
:10491000F22E211109C04F5F4D3040F04FEFA41A25
:10492000B40A31E041E003C0322F01C031E089898F
:104930008B831A82198281E08D834E838EE48A0DE7
:104940008F83CE0101963C8B0E94831F4B015C013B
:104950000F8510E00E94751F3C89432F50E04150A5
:10496000510967E0649F9001659F300D1124A801F3
:10497000481B590BCA01079667E070E00E94073791
:10498000D901A80FB91F20E831E541E050E00E94AD
:104990006437680D791D8A1D9B1DF11004C0605895
:1049A0007A438940910964960FB6F894DEBF0FBE32
:1049B000CDBFDF91CF911F910F91FF90EF90DF90CE
:1049C000CF90BF90AF909F908F9008958F929F92BD
:1049D000AF92BF92CF92DF92EF92FF920F931F930D
:1049E000CF93DF93EC015B01C880D980EA80FB8024
:1049F0000C811D812E813F81488559856A857B8583
:104A00000E94722468A379A38AA39BA3CC84DD842B
:104A1000EE84FF84088919892A893B894C895D893C
:104A20006E897F89CE010E9472246B017C016CA388
:104A30007DA38EA39FA3AE89BF892CE330E00E94A3
:104A4000523708A119A12AA13BA148015901861A90
:104A5000970AA80AB90A888E998EAA8EBB8EAA8553
:104A6000BB852CE330E00E945237C61AD70AE80A09
:104A7000F90ACC8EDD8EEE8EFF8EDF91CF911F91E5
:104A80000F91FF90EF90DF90CF90BF90AF909F90ED
:104A90008F900895CF92DF92EF92FF920F931F9322
:104AA000CF93DF93EC016A017B01CB01BA010E9435
:104AB0007B1F8C01688D798D8A8D9B8D0E947B1F59
:104AC0000817190741F0C701B6010E947B1FBC01FE
:104AD000CE010E94E6240C8D1D8D2E8D3F8D488DBC
:104AE000598D6A8D7B8D401751076207730760F4FB
:104AF000C416D506E606F70690F081E0C016D1068A
:104B0000E206F30668F00BC081E0C016D106E206AB
:104B1000F30630F0C416D506E606F70608F480E082
:104B2000DF91CF911F910F91FF90EF90DF90CF9089
:104B30000895AF92BF92CF92DF92EF92FF920F93C0
:104B40001F93CF93DF93EC016A017B018901CB01B5
:104B5000BA010E947B1F5C01688D798D8A8D9B8DC7
:104B60000E947B1FA816B90641F0C701B6010E943A
:104B70007B1FBC01CE010E94E624B701A601CE0135
:104B80000E944A25882331F0F801D183C083AA8589
:104B9000BB8507C0CE010C96F80191838083AE8956
:104BA000BF892CE330E00E9452376C0D7D1D8E1DB5
:104BB0009F1DDF91CF911F910F91FF90EF90DF909C
:104BC000CF90BF90AF900895CF92DF92EF92FF9277
:104BD0000F931F93CF93DF93EC016A017B01CB010D
:104BE000BA010E947B1F8C0168A179A18AA19BA1B7
:104BF0000E947B1F0817190741F0C701B6010E94E8
:104C00007B1FBC01CE010E94E6240CA11DA12EA198
:104C10003FA148A159A16AA17BA140175107620792
:104C2000730760F4C416D506E606F70690F081E037
:104C3000C016D106E206F30668F00BC081E0C0168C
:104C4000D106E206F30630F0C416D506E606F706EE
:104C500008F480E0DF91CF911F910F91FF90EF90CA
:104C6000DF90CF900895CF92DF92EF92FF920F9353
:104C70001F93CF93DF93EC016A017B01CB01BA0153
:104C80000E947B1F8C0168A179A18AA19BA10E942F
:104C90007B1F0817190741F0C701B6010E947B1F4F
:104CA000BC01CE010E94E624B701A601CE010E94FC
:104CB000E425882319F0AA85BB8502C0AE89BF8987
:104CC0002CE330E00E945237A7019601261B370BD8
:104CD000480B590BCA01B901DF91CF911F910F9178
:104CE000FF90EF90DF90CF900895862F0C94AD3613
:104CF000862F642F0C947D36862F642F0C944136BA
:104D00004F925F926F927F928F929F92AF92BF92DB
:104D1000CF92DF92EF920F93CF93DF93EC015B0181
:104D20003A01490102960E9491298AEC92E0998306
:104D300088836E018CE1C80ED11C2E0188E5480ED7
:104D4000511CC6010E94912986E0C80ED11CC414D2
:104D5000D504B9F7FE01EE59FF4F71826082329699
:104D600091828082329600833196E0823797B182B9
:104D7000A08238968AE090E091838083329684EF17
:104D800091E091838083329611821082C45ADF4F62
:104D9000188219821A821B82DF91CF910F91EF90B6
:104DA000DF90CF90BF90AF909F908F907F906F904B
:104DB0005F904F9008952F923F924F925F926F9223
:104DC0007F928F929F92AF92BF92CF92DF92EF929B
:104DD000FF920F931F93CF93DF93CDB7DEB7289742
:104DE0000FB6F894DEBF0FBECDBF98878F8310E05B
:104DF0004C0186E6880E911CEF80F88492E6E90E5D
:104E0000F11CD4018C911817A0F4AF81B8858D9155
:104E10009C91F701A081B181A10FB11DFC012081FE
:104E2000318142E06C918F819885F90109951F5F6E
:104E3000E8CFF12CEF81F885E959FF4FFA83E98338
:104E4000CF80D884F4E6CF0ED11C412C512C3201F6
:104E500043948F8198858E599F4F9C838B83E981E2
:104E6000FA818081F81608F088C0AF2CB12CAF8190
:104E7000B8858D919C91F601A081B181AA0DBB1DD1
:104E8000FC012081318141E06C918F819885F9018D
:104E90000995AF81B8858D919C91F601A081B18172
:104EA000AA0DBB1DFC012281338140E06C918F81F2
:104EB0009885F9010995D301C2010F2C04C0880F10
:104EC000991FAA1FBB1F0A94D2F79C011C012094B2
:104ED0003094E12CF4018081AF81B885ED91FC9193
:104EE000E81648F50E2D10E0AB81BC818D919C91A8
:104EF000DC01A00FB11F0480F581E02D6C918F8142
:104F000098852D833E830995000F111F2D813E81C9
:104F1000EF81F885E00FF11F892B29F480859185B9
:104F2000822B932B04C080859185822193219187C8
:104F30008087E394CFCFD6018D919C91DC01AA0D9F
:104F4000BB1D0280F381E02D41E06C918F8198853B
:104F50000995AF81B885ED91FC91D6018D919C9119
:104F6000DC01AA0DBB1D0190F081E02D40E06C91A9
:104F70008F8198850995F39472CF28960FB6F8948F
:104F8000DEBF0FBECDBFDF91CF911F910F91FF907C
:104F9000EF90DF90CF90BF90AF909F908F907F90D9
:104FA0006F905F904F903F902F900895FC0180E0AC
:104FB00090E0258D368D2617370739F00196369605
:104FC0008A309105B1F78FEF9FEF0895FC0126E03D
:104FD000629FE00DF11D112450A3478F21E021A312
:104FE000FC01E459FF4F0190F081E02D309721F052
:104FF000DC015C968C91099408956F927F928F9258
:105000009F92AF92BF92CF92DF92EF92FF921F9347
:10501000CF93DF931F92CDB7DEB73C01162FFC0173
:1050200086E0689FE00DF11D112411A2878D90A1EB
:1050300081309105F9F01CF4892B51F04FC082307A
:105040009105B1F1039709F049C040E050E034C048
:10505000442309F443C041E050E0C3010E94E62725
:105060000E940635F301E85AFF4F60837183828303
:10507000938334C049830E940635F301E85AFF4FF9
:10508000C080D180E280F3804B015C018C189D08C8
:10509000AE08BF08729680819181A0E0B0E049819E
:1050A00088159905AA05BB0518F442E050E004C034
:1050B000411114C043E050E0612FC3010F90DF9114
:1050C000CF911F91FF90EF90DF90CF90BF90AF9066
:1050D0009F908F907F906F900C94E6270F90DF91B8
:1050E000CF911F91FF90EF90DF90CF90BF90AF9046
:1050F0009F908F907F906F9008952F923F924F9244
:105100005F926F927F928F929F92AF92BF92CF9257
:10511000DF92EF92FF920F931F93CF93DF9300D014
:105120001F92CDB7DEB79B838A836C012CE1C20E40
:10513000D11C885A9F4FF6012FEF3FEF43815481D6
:10514000452B21F410823283218315823696E8178D
:10515000F907A1F7312C4A805B8036E6430E511CDB
:10516000AA80BB8087E6A80EB11C8A809B80A0E63F
:105170008A0E911CF2018081381608F05CC0212C47
:105180008A819B81830D911D830D911D9C01285F58
:105190003F4F7901D5016C90261408F04AC0F70101
:1051A00000811181022C02C0169507950A94E2F73E
:1051B00001701127369C30011124620C711CD4013E
:1051C000ED91FC91E60DF71D2081B3018A819B8151
:1051D00029830E94D627298197FD04C0402F417062
:1051E000682F1AC0019619F5012B09F1F60160E04C
:1051F00070E08081811115C0E6E0E69FC001E79F65
:10520000900D1124EA81FB81E80FF91F248F768E1F
:10521000658E10A2178E41E08A819B810E94FD2736
:1052200006C06F5F7F4F36966A30710511F7239481
:10523000B1CF33949FCFEA81FB81B1962A813B8124
:10524000235A3F4F80E09081911181E03696E2171A
:10525000F307C9F70F900F900F90DF91CF911F9137
:105260000F91FF90EF90DF90CF90BF90AF909F9005
:105270008F907F906F905F904F903F902F90089508
:10528000CF92DF92EF92FF920F931F93CF93DF9312
:10529000EC010E9406358E01045A1F4FF801C080B0
:1052A000D180E280F380AB01BC014C195D096E092D
:1052B0007F093C9680819181A0E0B0E0841795073A
:1052C000A607B70778F4CE010E94DB26CE010E9424
:1052D0007D28C82F0E940635F80160837183828380
:1052E000938301C0C0E08C2FDF91CF911F910F916C
:1052F000FF90EF90DF90CF900895CF93DF93EC0174
:105300000E944029882339F089A1882321F08F8DBC
:1053100098A1019711F080E001C08C8DDF91CF91B1
:105320000895FC01108214821382158208951F9340
:10533000CF93DF93EC01962F642F9C3268F49A325E
:1053400008F052C0983281F09932C9F570E080E0DF
:1053500090E00E94373548C09D32B1F080F184EB77
:10536000890F8230D8F02BC06B9610E089918F3F67
:1053700039F0103110F461E001C062E00E94413662
:105380001F5F163199F730C0433018F082E090E08B
:1053900002C085E090E00E94733526C09F73C90F5C
:1053A000D11D411107C061E08B8D0E94413660E044
:1053B0008B8D10C062E08B8D0E94413615C09034F9
:1053C000A8F09F73FE01E90FF11D838D8F3F61F0FF
:1053D000903118F40E947D3607C00E94AD3621E05E
:1053E000892B09F420E02E8B81E001C080E0DF9161
:1053F000CF911F910895CF92DF92EF92FF92CF93BA
:10540000DF93EC01683139F138F46431D9F0673158
:1054100009F09EC0F9010FC0693109F477C060320C
:1054200009F096C06AE40E943C346EC00DB407FED9
:10543000FDCF8EB54150442309F466C081918EBDE5
:105440000000F4CFE881F981418169E40E943C3495
:105450000E94863459C0A881B9811C96EC911C9792
:10546000E150E33028F4F0E0E053FD4F808101C0CB
:1054700080E01896CD90DD90ED90FC901B9720E099
:1054800040E052E16AE770E0C416D506E606F7068A
:1054900040F476956795579547952F5F2630A1F78D
:1054A00027E091E092278C708065292F2695822B2A
:1054B000917020913907222399F04FB7F8942091E9
:1054C0003907213059F42DB3209337073DB320918C
:1054D0003807209523232DBB4FBF02C040933707C9
:1054E0008CBD9DBDE881F981408169E4CE010E94B7
:1054F0003C34A881B981EA85FB8520E030E0129632
:105500004C916CE2CE01099581E023C0A881B9815C
:10551000EA85FB8520E030E013964C916CE209951A
:10552000E881F981418169E4CE010E943C34809197
:105530003907882349F32FB7F89480913907909160
:105540003707813019F49DBB2FBF03C09FBFDCCF4D
:1055500080E0DF91CF91FF90EF90DF90CF900895A2
:10556000FC0164A345A326A308956F927F928F92B6
:105570009F92AF92BF92CF92DF92EF92FF920F93E2
:105580001F93CF93DF937C01C62FB42E48016C018B
:1055900081E7C80ED11CF601A080162F120F01E082
:1055A000040F212FC7010E940E31882341F1D1E061
:1055B0003701F0E76F0E711CC117F9F0F401849107
:1055C0008D2319F0F601A08209C0F30180818111B9
:1055D0000CC081E0A11080E0F601808300E021E0B2
:1055E0004B2D6C2FC7010E94C830CF5FDD0F21F714
:1055F000FFEF8F1A9F0AD1E0DFCFF601A082DF9183
:10560000CF911F910F91FF90EF90DF90CF90BF90BF
:10561000AF909F908F907F906F9008958F929F9200
:10562000AF92BF92CF92DF92EF92FF920F931F93B0
:10563000CF93DF935C01962EC42F822ED42FD00FF0
:10564000260F0D2F0E940E318823A1F087E0880DD0
:10565000C82EC694C694C694D12CCD1759F0870194
:10566000282D4C2F692DC5010E94B52AEC0CFD1C7C
:10567000CF5FF3CFDF91CF911F910F91FF90EF900C
:10568000DF90CF90BF90AF909F908F900895DF9262
:10569000EF92FF920F931F93CF93DF937C01162F0E
:1056A000C42FD22ED42FD00F262F2D0D0D2F0E94B8
:1056B0000E31882359F0CD1749F000E02D2D4C2FE5
:1056C000612FC7010E94C830CF5FF5CFDF91CF9126
:1056D0001F910F91FF90EF90DF900895BF92CF92AE
:1056E000DF92EF92FF920F931F93CF93DF937C0192
:1056F000DC01D796BC90D797D896DC90D897ED91DF
:10570000FC91C188C0E0D0E0D701ED91FC911197E8
:105710002089D5960D911C91D697B8E02B9FA001BA
:1057200011244C9FC0014D9F900D5C9F900D112442
:10573000080F191F4C2F4D0D60E0C7010E94F13377
:105740008C2F8F5F8B1528F421968C2F8D0D8C1547
:10575000D8F2DF91CF911F910F91FF90EF90DF90E2
:10576000CF90BF900895FC01A081B18150969C918B
:1057700047A9949FA001112483E0440F551F8A95E7
:10578000E1F760E070E085A996A90C949A37DC01F6
:10579000D8966C93D897D396ED91FC91D4970190BD
:1057A000F081E02D0994CF93DF93EC01FC01EE58DA
:1057B000FF4F8081882319F0CE010E94B32B60E057
:1057C000CE01DF91CF910C94C72B0F931F93CF93F2
:1057D000DF931F92CDB7DEB78C010E946E2BD801EC
:1057E000D8966C91D897D7968C91D797680FED91F2
:1057F000FC918189681728F0C8010E94323480E04A
:105800000FC0F801EE58FF4F8081882329F0C801AE
:1058100069830E94B32B6981C8010E94C72B81E074
:105820000F90DF91CF911F910F910895CF93DF9348
:10583000EC010E94D32BCE010E94E52B8111FBCFFE
:1058400060E0CE01DF91CF910C94C72B21E0FC01E9
:10585000208387EB96E00895CF92DF92EF92FF923C
:105860000F931F93CF93DF931F92CDB7DEB77C01C9
:105870006B0189019A0147EC52E367E773E30E94E9
:105880006134CE0101960E94262C86012AE331E381
:105890004981BC01C7010E94ED310F90DF91CF918A
:1058A0001F910F91FF90EF90DF90CF900895FC0132
:1058B000E60FF11D849190E0982F88273196E491AE
:1058C0008E0F911D0895213039F020F0223031F4EF
:1058D000841B0895840F0895860F0895861B0895EC
:1058E000213039F020F0223031F4861B0895860FE4
:1058F0000895841B0895840F089580E00895FC01A5
:10590000E259FF4F80810895FC01E359FF4F8081E8
:105910008F5F08950F931F93CF93DF93EC018B015B
:10592000FB01849188833196E491E983FB013296EF
:10593000E491EA83FB013396E491EB83FB01349617
:10594000E491EC83FB013596E491ED83FB013696FF
:10595000E491EE83FB013796E491EF83FB013896E7
:10596000E491E887FB013996E491E987FB013A96D7
:10597000E491EA87FB013B96E491EB87FB013C96BF
:10598000E491EC87FB013D96E491ED87FB013E96A7
:10599000E491EE87FB013F96E491EF87FB0170965F
:1059A000E491E88B61E1C8010E94572C9A8B898BA6
:1059B00063E1C8010E94572C9C8B8B8B65E1C80169
:1059C0000E94572C9E8B8D8BDF91CF911F910F9151
:1059D0000895DC0118964C911897ED91FC91119760
:1059E000249130E0042E02C0359527950A94E2F701
:1059F000862F840F883010F4E22F0EC03196119656
:105A0000FC93EE939491E92F98E0941B01C0EE0F64
:105A10009A95EAF7E22B885018968C9381E090E0F3
:105A200001C0880F6A95EAF781508E2308950F937D
:105A30001F93CF93DF938C01EC01C85BDF4F798319
:105A400068831886FC01E75AFF4F6081CE010E94EF
:105A5000E92C8E83F801E65AFF4F6081CE010E9447
:105A6000E92C8F83F801EF58FF4F90819A8781E0EE
:105A7000911180E08B87DF91CF911F910F91089555
:105A8000CF93C62F0E94E92CC15021E030E001C025
:105A9000220FCA95EAF7821BCF9108955F926F9209
:105AA0007F928F929F92AF92BF92CF92DF92EF92AE
:105AB000FF920F931F93CF93DF935C01F62E642E1A
:105AC000EC01C85BDF4F1C81DD804C0181E7880E53
:105AD000911CEE80E11ACE2CFE1408F4CF2C5B80D2
