:100000000C94ED0B0C94150C0C94150C0C94150C15
:100010000C94150C0C94150C0C94150C0C94150CDC
:100020000C94150C0C94150C0C94150C0C94150CCC
:100030000C94150C0C94150C0C94150C0C94150CBC
:100040000C9453340C94150C0C94150C0C94150C46
:100050000C94150C0C94150C0C94150C0C94150C9C
:100060000C94EA1C0C94150C8B168E168817991696
:10007000AC16B716C416D716E416F316F8160E17F4
:1000800007171B1739172A174D1778175C176917A9
:100090004617CA171C180E18EE17EE171C18D8179B
:1000A0001C181C181C181C181C181C181C181C18B0
:1000B000EE170E181C18C317446F7365202870655F
:1000C0006C6C6574732900496E74657276616C207E
:1000D00028686F757273290046454544494E47208C
:1000E00053455454494E4753005345542054454DAD
:1000F0005045524154555245004F6666004F6E00C0
:100100004C494748544E494E472054494D450054A8
:100110006865726D6F6D65746572200054454D5051
:10012000455241545552455300B0430028696E2052
:1001300070656C6C6574732900456E746572206E11
:10014000657720646F73650028696E20686F75722B
:10015000732900456E746572206E657720696E7430
:10016000657276616C005345542046454544494EBE
:100170004700466565640053657420646F736500CD
:1001800053657420696E74657276616C00536565A1
:100190002070726F6772616D6D696E6700464545CC
:1001A00044494E470045783A2032352A35203D20D3
:1001B00032352E35B04300456E746572206E65771A
:1001C0002074656D706572617475726520736574F5
:1001D00074696E67005345542054454D5045524153
:1001E00054555245004368616E67652070726F67B1
:1001F00072616D6D696E67005365652070726F671F
:1002000072616D6D696E670054454D5045524154A1
:1002100055524500466F726D61743A2048484D4D05
:1002200000456E746572206E6577206C6F63616C3B
:100230002074696D65004C494748544E494E47202B
:1002400054494D45004368616E6765206F666620BE
:1002500074696D65004368616E6765206F6E207418
:10026000696D65005365652070726F6772616D6DB1
:10027000696E67004C494748544E494E47004572E5
:100280006173650043616E63656C0045524153457F
:1002900020454550524F4D00456E7465722074687C
:1002A00065726D6F6D65746572206E756D626572D5
:1002B0000053455420544845524D4F4D45544552E6
:1002C000005365742061697220746865726D6F6D8A
:1002D000657465720053657420776174657220746B
:1002E0006865726D6F6D657465720052656164203A
:1002F00074656D70657261747572657300544845FC
:10030000524D4F4D455445525300466F726D6174C6
:100310003A20595959594D4D444448484D4D53532D
:1003200000456E746572206E6577206C6F63616C3A
:100330002074696D65005345542044415445204163
:100340004E442054494D45005365742064617465E2
:1003500020616E642074696D6500434C4F434B000F
:10036000457261736520454550524F4D00466565A5
:1003700064696E670054656D706572617475726151
:10038000004C696768746E696E6700546865726DC9
:100390006F6D657465727300436C6F636B004D41E4
:1003A000494E204D454E5500FFFFFFFFFFFFFFFF69
:1003B000FFFFFFFFFFFFFFFFFFFFFFFFFFFFFFFF4D
:1003C000FFFFFFFFFFFFFFFFE1FF3F000000000016
:1003D00000000000000000FCF1FFFFFFFFFFFFFF37
:1003E000FFFFFFFFFFFFFFFF7100E00000000000C4
:1003F00000000600000000F0310FCF0000000000F8
:1004000000000600000000E0B190D00000000000F5
:1004100000000600000000C0B190D0000000000005
:100420000000060000000080B190D0000000000035
:100430000000060000000080B190D0000000000025
:100440000000060000000080310FCF000000000017
:1004500000000600000000803100C0000000000025
:1004600000000600000000803101C700000000000D
:1004700000000600000000803101C1000000000003
:1004800000000C00000000803107C70000000000E1
:1004900000001800000000807100E0000000000073
:1004A0000000300000000080F1FFFF0000000000AD
:1004B0000000600000000080E1FF7F0000000000FD
:1004C0000000C000000000800100000000000000EB
:1004D000000080010000008001000000000000001A
:1004E0000000000300000080010000000000000088
:1004F0000000000600000080010000000000000075
:100500000000000C0000008001000000000000005E
:100510000000001800000080010000000000000042
:10052000000000F0FFFFFFFF0100000000000000DE
:10053000000000000000008001000000000000003A
:10054000000000000000008001000000000000002A
:10055000000000000000008001000000000000001A
:10056000000000000000008001000000000000000A
:1005700000000000000000800100000000000000FA
:1005800000000000000000800100000000000000EA
:1005900000000000000000800100000000000000DA
:1005A00000000000000000800100000000000000CA
:1005B00000000000000000800100000000000000BA
:1005C00000000000000000800100000000000000AA
:1005D000000000000000008001000000000000009A
:1005E000000000000000008001000000000000008A
:1005F000000000000000008001000000000000007A
:100600000000000000000080010000000000000069
:100610000000000000000080010000000000000059
:100620000000000000000080010000000000000049
:100630000000000000000080010000000000000039
:100640000000000000000080010000000000000029
:100650000000000000000080010000000000000019
:100660000000000000000080010000000000000009
:1006700000000000000000800100000000000000F9
:1006800000000000000000800100000000000000E9
:1006900000000000000000800100000000000000D9
:1006A00000000000000000800100000000000000C9
:1006B00000000000000000800100000000000000B9
:1006C00000000000000000800100000000000000A9
:1006D0000000000000000080FFFFFFFFFFFF070099
:1006E00000000000000000800300000000000C007B
:1006F0000000000000000080010000000000F8FF82
:10070000FFFFFFFFFFFFFFBF010000000000080028
:1007100000000000000000E00100000000000800F0
:1007200000000000000000C0010000000000080000
:100730000000000000000080010000000000080030
:100740000000000000000080010000000000080020
:100750000000000000000080010000000000080010
:1007600000000000000000C00300000000000C00BA
:1007700000000000000000E007000000000006008C
:1007800000000000000000F0FFFFFFFFFFFFFFFF81
:10079000FFFFFFFFFFFFFFFFFFFFFFFFFFFFFFFF69
:1007A000FFFFFFFFFFFFFFFF005EBCE2613FDD8355
:1007B000C29C7E20A3FD1F419DC3217FFCA2401E41
:1007C0005F01E3BD3E6082DC237D9FC1421CFEA031
:1007D000E1BF5D0380DE3C62BEE0025CDF81633D21
:1007E0007C22C09E1D43A1FF4618FAA427799BC511
:1007F00084DA3866E5BB5907DB856739BAE4065801
:100800001947A5FB7826C49A653BD987045AB8E6F0
:10081000A7F91B45C6987A24F8A6441A99C7257BE0
:100820003A6486D85B05E7B98CD2306EEDB3510FD0
:100830004E10F2AC2F7193CD114FADF3702ECC92C0
:10084000D38D6F31B2EC0E50AFF1134DCE90722CB0
:100850006D33D18F0C52B0EE326C8ED0530DEFB1A0
:10086000F0AE4C1291CF2D73CA947628ABF5174990
:100870000856B4EA6937D58B5709EBB536688AD480
:1008800095CB2977F4AA4816E9B7550B88D6346A70
:100890002B7597C94A14F6A8742AC896154BA9F760
:1008A000B6E80A54D7896B35BE000202040402047C
:1008B000050A0AFFFE05FE06FF010F022C06DB20DB
:1008C0000500A204210761E364A400220733322556
:1008D0005901230A55A2AD1AAA1AAA02240A731EA4
:1008E0002D6E90C14C00250A55A245AE0C324853DE
:1008F000260C65A22D8394410629962A270531B23C
:1009000064280772DE4C7506290872DE24A696025A
:100910002A06332E25752B0733672DAD042C07329D
:10092000DA4429002D05132A652E0511A2242F096A
:10093000631EB58A29460030085322ADB22A003121
:100940000652E26C35320854624DC5E608330A544B
:100950006265A3A4D1480034095462259A698300D2
:10096000350A54626568B0D14800360A54624D6554
:10097000B062520037095462656410DB00380A54D3
:10098000624DC5A4625200390A54624DC5B4415249
:10099000003A0631E324053B0852DA2C83A4003CDC
:1009A0000A54621D24959146013D07332665830153
:1009B0003E0A546225238D92CA003F0964624DC5E8
:1009C000361501400B65A26D65A09295E1024109C3
:1009D00054624D45396600420A546265C591E24849
:1009E00000430A54624D450D625200440954626549
:1009F00045732400450A54626568B0321801460AFE
:100A000054626568B032C800470A54624D6590660A
:100A100052004809546225CA3165004907532265CE
:100A2000C56A4A0A54626D830C6452004B095462D1
:100A3000259A23C5004C0753222536074D0B55A296
:100A400045ADA4924A1A044E09546225CAA566000F
:100A50004F0954624D4533290050095462654539A8
:100A60005206510A54624D4599D2480052095462C7
:100A7000654539520C530953226D830C16005408F6
:100A8000532265C5160055085462253A9302560C48
:100A900055A2258354A698328800570B55A22503EA
:100AA0000D34505D0058095462259A49C500590A11
:100AB000645E259A6983A4005A09546265C4361895
:100AC000015B0772DE6475095C0A631E25661033DC
:100AD00088015D0772DE44750D5E062332AD015F4D
:100AE00006145E6504600622F62406610844624D21
:100AF000459906620A5462258315655200630743CF
:100B0000226D6620640A54621DA4116552006508B6
:100B100044624D451507660954624D450D640667EC
:100B20000A645A4D459936480A6809546225831566
:100B3000CD00690651A2240D6A0873D934C3E602B8
:100B40006B09532225A69554006C0651A264086DCA
:100B50000945A245B554D2206E0744626545336FFE
:100B60000944624D45991400700A645A4D45395242
:100B70000619710A645A4D459936C82072094462B3
:100B800065450D3200730944626D65941600740862
:100B900053222DAD580175074462259A69760844A1
:100BA00062259A4901770A45A225039554170078D2
:100BB00009446225CAA46200790A645A259A6983A5
:100BC000A4007A08446265C472047B0A731E35C5AA
:100BD0009441CC207C06719EE4087D0B731E258316
:100BE00098418A29027E0935A62D83548304A107E2
:100BF00061DF248D00A20A645E1DA4919A2B02A3DA
:100C0000096462CD2A671C01A4084466654839045A
:100C1000A50E759E258354830C36C8608308A606EE
:100C2000719E640DA70C745E6D64A462D26824008A
:100C3000A80613362505A910771E76830C52542A70
:100C400003A96A90C104AA063332ED08AB083466E2
:100C50002DA99802AC0935A66568945100AD05121E
:100C6000EA44AE0F771E76830C52926AA96E90C149
:100C700004AF0614766504B0063332AD0BB10853E9
:100C8000222DAD8C06B208433245839406B3074348
:100C90003265A621B40622F64C01B50C659A25A64C
:100CA00098621A1B6504B60C65A26D8C34525231E1
:100CB000C514B70511EB24B807331A2D8305B907FE
:100CC00043322DC934BA0944724D45991400BB0909
:100CD000346625C5A41200BC0E672226835883946F
:100CE00089D41C1906BD0F67222683588314334804
:100CF0006D903218BE1069A266830C64062B93A90E
:100D000006716618BF09645E3553B1A500C00B8437
:100D1000622DA34CA828C70CC10A8462B5A65494BE
:100D20006306C20B84624DC50C55946306C30B84E5
:100D3000622DA94CA828C70CC40A7462AD862ACAC1
:100D40003103C50A74624D132ACA3103C60D5722F6
:100D50006E8C98415C23833802C70C745A4D450D44
:100D600062D2204600C80C84622DA30C87062B8318
:100D700011C90B8462B52686062B8311CA0C8462C6
:100D80004DC58C86062B8311CB0B7462AD46438315
:100D900095C108CC0A832225838C56AC06CD0983E5
:100DA000223565B46235CE098322AD0D56AC06CF2F
:100DB0000973222565B06235D00A55A26DC691CA65
:100DC000B400D10B84622DA90CA35C6A06D20B84FB
:100DD000622DA34CA8682605D30A8462B5A65434B4
:100DE0009302D40B84624DC50C55349302D50B8409
:100DF000622DA94CA8682605D60A7462AD862A9A87
:100E00004901D70633262575D80C56E25583A846E6
:100E100092194800D90B84622DA30CA3332900DA60
:100E20000A8462B526A2332900DB0B84624DC58C8F
:100E3000A2332900DC0A7462AD46D1991400DD0B9F
:100E4000945EB526A29936480ADE0A6462258315A7
:100E5000E54819DF0954624D4555AA04E00B746258
:100E60002DA34CA828D300E1097462B5A654946957
:100E7000E20A74624DC50C559469E30B74622DA9A6
:100E80004CA828D300E4096462AD862ACA34E50A76
:100E900074624D6A42459906E60A4722CE8A51A6F7
:100EA0003806E709631A6D66205302E80B74622D59
:100EB000A34CA8A8E200E9097462B5A6545471EAEB
:100EC0000A74624DC50C555471EB096462AD862AF3
:100ED000AA38EC0862E22466900AED0862E24C83CC
:100EE0005401EE086322AD8D6205EF09532225659A
:100EF000142B00F00B65A24D43B5628A5102F10A32
:100F000074622DA90C573403F20B74622DA34CA804
:100F1000289302F30A7462B5A654944901F40B7441
:100F2000624DC50C55944901F50B74622DA94CA86E
:100F3000289302F60A6462AD862ACAA400F709550E
:100F4000A23553435311F80944624DA5919202F919
:100F50000A74622DA30CA39906FA097462B526A23D
:100F60009906FB0A74624DC58CA29906FC0964625D
:100F7000AD46D14C03FD0B945AB526A29936480ACA
:100F8000FE0D845A25830C569423659001FF0B8433
:100F90005AAD46D14C1B240500000000BF000302DF
:100FA0000304030504060A00FE07FE0700014202CF
:100FB0008807C4200500620721073943C7A004221F
:100FC000079B52476209230E3D424F294906A5322D
:100FD00028A52401240C3D4257B6D4B624D92200BA
:100FE000250C3D424FA474ABB4480900260D3D4288
:100FF0004F9644495649A4480927061953C7002863
:1010000008BB425752AA152909BB424756AA940069
:101010002A0A2D4647965406A52D2B0A2D46571809
:101020000D5218012C079B3E8F52022D060D4EC704
:10103000202E089B3E4FB224002F083D4267AD632F
:1010400008300B3D425796D46C492D02310A3D427F
:1010500057262561D320320C3D42CF92859194854D
:101060008300330C3D42C7206699AA250B00340C3F
:101070003D425F2625A564D0C204350B3D42C731F1
:1010800031855AB200360C3D4297948589494B16FA
:1010900000370B3D42C720666156CC00380C3D42FC
:1010A000CF9269C99269C902390C3D42CF92498AEF
:1010B000126691043A0ABB3E4FB2A4C992003B09A2
:1010C000BB3E4FB2A44A093C08BC425FD4D8003DA5
:1010D000081D4AC7A00E023E08BC4247D8D4063FAE
:1010E0000A3D42CF9235E65004400C3D42CF924932
:1010F0004B62491700410C3D425796D4B461C8B4C5
:1011000000420D3D42C71055A264AA448302430A1F
:101110003D42CF92896DC902440F3D42C71055A28E
:10112000244AA2241A1400450B3D42C7311C9230B8
:101130001C04460A3D42C7311C92B008470B3D4291
:10114000CF9289A52D5900480A3D4247661B86CC9F
:10115000164908BB42C71275194A0A3D42D716B64E
:101160004491044B0D3D42472625252D892A5900DF
:101170004C083D4247D8E3204D0B3D4247A62D4B3E
:10118000A2D9024E0C3D4247A64D4A226D5A004F4D
:101190000A3D42CF92794B1600500C3D42C79064F5
:1011A000DAA0844500510A453ECF9279A9AC01529C
:1011B0000D3D42C79064DAA0942A5900530B3D427A
:1011C000CF92A9AB962C0054093D42C720853D0122
:1011D00055093D4247E65BB200560D3D4247664B1E
:1011E0004A4994641100570A3D4247E69228C92DA6
:1011F000580B3D4247A625B54A4D0B590A3D42477B
:10120000A625B5B0095A0A3D42C720661D07015BF5
:1012100008BB42C710751A5C083D424798760C5DC2
:1012200008BB42C7D469085E081D525796D4025FB6
:10123000060D3EC7206006125B4714610A2D42CF9F
:101240009A0C5A3204620B3D424758316993A2000E
:10125000630A2D42CF928959B200640A3D4267C5A4
:10126000B4498A12650A2D42CF920D43BA00660B2B
:101270003D429754C98628AC01670C3D3ACFA0691E
:10128000C9106AC902680A3D4247583169B6006907
:1012900008BB424F28B50C6A0BCC3A5FACD5242969
:1012A00051006B0B3D4247589392A992056C08BBC5
:1012B0004287D4CB006D0B2D4287D2A2244AA205CF
:1012C0006E092D424762D26C016F092D42CF92D92F
:1012D0009205700C3D3A4762D22645094300710AD7
:1012E0003D3A8F699314252C72092D424762128B67
:1012F0000073092D42CF921E1400740C3D424F988A
:101300000D51588A140075092D4247E6A42801762C
:101310000B2D4247A625A5248B00770A2D42476650
:1013200049942E00780A2D424796D42AB500790CAC
:101330003D3A47665294504B16007A092D42C7A099
:10134000B50D027B0ABC4297122662140A7C06394C
:1013500043C7217D0BBC428718854A9848007E0907
:101360001D524FA4245202A005006207A107394371
:10137000473208A20E3D3E573628511225D9104556
:1013800000A30C3D429754C9B630521400A40B2D53
:101390004247964C49B46401A50D453E47A625B584
:1013A0006890C21200A6063943C732A70B453ECF4C
:1013B000124E9DC66401A8068B5E4712A90D3D42E0
:1013C000CF9229C9A4245AB200AA0AB446CF102940
:1013D0004A7108AB0C2E4257254AA22CCAA200AC77
:1013E00007944AC79005AD068C4EC710AE0C3D421F
:1013F000CF920DC93469C902AF060D5EC720B00790
:101400009B524F1700B10B354257180D52180D0261
:10141000B209AC4E8F12350D01B309AC4EC7988896
:101420004302B406125B8F02B50A353E47669B1431
:101430002504B60F3D42CF30244392285112255146
:1014400012B706094F4700B806123B8F02B908AB26
:101450004E4F225506BA0AB4468F1249893A04BB48
:101460000D2E42479445599444491401BC0D4E3EFB
:101470004FA816A7504BA2210DBD0C4E3E4FA816EB
:10148000973049C370BE0E4D3E879AA59194494945
:10149000328401BF0A3D42570E8559CB02C00C452C
:1014A000424F9A2D99360C9916C10C45425F6DC971
:1014B000B461C8B400C20D45425796444BA60D43D3
:1014C000A605C30D45424FA4484BA60D43A605C42F
:1014D0000C45424F1D58326D18322DC50D454257EF
:1014E00096444BA60D43A605C60C3E42D790949A4F
:1014F00086216A1AC70B4D3ACF92896DC95603C827
:101500000C45424F368CE19084E120C90C45425F86
:10151000328CE19084E120CA0C454257348CE19032
:1015200084E120CB0C45424F6518C32109C341CC4F
:101530000AC34247962C51CB00CD0AC34257922C86
:1015400051CB00CE0AC3424F6548A29601CF0AC3D1
:101550004247922D51CB00D00E3D42C71055A221DB
:101560002925D1A000D10C454257D26D521269D322
:1015700002D20B45424F9A2D995BB200D30A4542E5
:101580005F6DC9DC9205D40C45425796444BE696F4
:101590002C00D50B454257D2B4646EC902D60B4518
:1015A000424F1D5832B76401D70A2D424796D42ABC
:1015B000B500D80C3D42CF125D92694A1600D90A97
:1015C00045424F1A65DE9205DA0A45425F29F396D5
:1015D0002C00DB0B45425796C4995BB200DC0A45F0
:1015E000424F39F3962C00DD0B45425F29D3925AC6
:1015F0005802DE0C3D42473824D9A0844500DF0D57
:101600003D42CF924949A992290A00E00C45424F38
:101610009A236B3268C910E10C45425F1D59934112
:101620004B8600E20D45425796E4C09A0C5A3204AC
:10163000E30D454257D20EACC9A0254300E40C3D52
:10164000424F1D5893414B8600E50D454257966425
:10165000D99A0C5A3204E60C2E42CF1026C93065B6
:101660008300E70B3D3ACF928959B2D500E80C458B
:10167000424F9A234B360CE902E90C45425F1D5953
:10168000B261481700EA0D45425796E4C0920D43F7
:10169000BA00EB0C3D424F1D58B261481700EC09EF
:1016A000C34247164A2D03ED08C3424F556A19EE4F
:1016B00008C3424F9BD432EF09BB424792492D03E6
:1016C000F00B3D42872A2D992D5900F10B454257C9
:1016D000D29C98345B00F20C45424F9A234B664BE8
:1016E0001600F30B45425F1D59325BB200F40C4506
:1016F000425796E4C092D99205F50C454257D20E56
:101700002C992D5900F60B3D424F1D58325BB2000B
:10171000F70A2D46570E0C3A1001F80B2D42CF2038
:101720002DC9342800F90B45424F9A039993A2041E
:10173000FA0A45425F1DC89C1425FB0B454257968B
:10174000C49993A204FC0A3D424F3973529400FDA0
:101750000D4D3A5F2933294AA8250B00FE0C453A66
:10176000473824996D50C210FF0D4D3A4F39332937
:101770004AA8250B0000000000000000080002013C
:101780000000030407000000000000000001020444
:1017900008102040800102040810200102040810F3
:1017A00020040404040404040402020202020203EA
:1017B00003030303030000000023002600290000A8
:1017C000000000250028002B000000000024002756
:1017D000002A00007719011CBD2211241FBECFEF83
:1017E000D8E0DEBFCDBF13E0A0E0B1E0EEEEF4E75D
:1017F00002C005900D92AA32B107D9F727E0AAE2FC
:10180000B3E001C01D92A034B207E1F71BE0CDEEBA
:10181000DBE004C02197FE010E94D436CA3ED10706
:10182000C9F70E946E360C94753A0C9400008091B2
:10183000F4042091F5043091F60440916403509132
:101840006503882329F081E02417350744F406C096
:101850002150310981E0421753070CF080E00895D0
:10186000CF92DF92EF92FF920F931F93CF93DF936C
:101870006C01EB017B01E40EF51E00E010E0CE15DB
:10188000DF0561F06991D601ED91FC910190F08145
:10189000E02DC6010995080F191FF1CFC801DF918E
:1018A000CF911F910F91FF90EF90DF90CF9008950F
:1018B0009093BB038093BA031092BE031092BD03B2
:1018C0001092BC0384E291E090931B0280931A0271
:1018D0000895CF93C091F4040E94170CC81749F0E3
:1018E00081E06C2F68276093F40480E0CF910C9422
:1018F0001436CF910895CF93DF93CDB7DEB72997F4
:101900000FB6F894DEBF0FBECDBF0E940D20AB0115
:10191000BC019E01285F3F4F80E095E00E9430258A
:10192000AE014F5F5F4F0E94171E8B812A8130E00E
:101930009CE3899F200D311D11248091F204909128
:10194000F3042817390744F081E04091F0045091E6
:10195000F104241735070CF080E029960FB6F894AF
:10196000DEBF0FBECDBFDF91CF910895E0911A0287
:10197000F0911B020280F381E02D309709F0099568
:101980008AE094E00E946A2BE0911A02F0911B0217
:101990000190F081E02D09958AE094E00E947C2B73
:1019A0008111F2CF089580911A0290911B02885103
:1019B000914011F40C94B60C0895CF92DF92EF92FF
:1019C000FF92CF93DF93CDB7DEB72C970FB6F89485
:1019D000DEBF0FBECDBF8091BE039091BF03A0912B
:1019E000C003B091C10388879987AA87BB871C86EB
:1019F000CE0108960E940337825B8F838091C203D9
:101A00009091C303998788871A86CE0108960E9411
:101A100003378E8381508C3010F080E048C0809175
:101A2000C4039091C50399878887CE0108960E94C8
:101A300003378D8381508F3180F78091C603909159
:101A4000C70399878887CE0108960E9403378B8346
:101A5000893118F78091C8039091C90399878887C5
:101A6000CE0108960E9403378A838D33B0F68091A9
:101A7000CA039091CB0399878887CE0108960E946C
:101A8000033789838D3348F6CE0101960E941A1FD1
:101A9000AB01BC0180E095E00E94CA256B017C018E
:101AA0000E941823C701B6010E94DA1F81E02C961C
:101AB0000FB6F894DEBF0FBECDBFDF91CF91FF9080
:101AC000EF90DF90CF9008950F931F93CF93DF9304
:101AD000EC018C010C5F1F4FFC01E958FF4F019096
:101AE000F081E02DC80109958E3F2FEF920780F419
:101AF000FE01E658FF4FC758DF4F9C0140816881C7
:101B0000C8010E94D12E288190E0820F911D888308
:101B100081E090E0DF91CF911F910F910895CF92D6
:101B2000DF92EF92FF920F931F930E940D2000917E
:101B3000F8041091F9042091FA043091FB04601B21
:101B4000710B820B930B20E13EE040E050E00E94DD
:101B5000B2368091FE049091FF046C01990FEE085B
:101B6000FF0881E02C153D054E055F0508F480E077
:101B70001F910F91FF90EF90DF90CF900895CF933A
:101B8000C091EF040E947B0CC81749F06091EF04EC
:101B900081E068276093EF04CF910C941436CF91C5
:101BA00008950F931F930E949D3400912805109172
:101BB000290520912A0530912B05DC01CB01801BE2
:101BC000910BA20BB30B81339547A105B10530F101
:101BD0009091F70480915202992379F0893C98F40E
:101BE000853110F491E003C0883C19F49FEF909385
:101BF000530290915302890F07C08A3178F08F31D8
:101C000010F489E101C08550809352026091520224
:101C100070E083E01F910F910C9450351F910F914C
:101C200008958091EF0481110E948F0D8093F70435
:101C3000089561E083E00E94D8356FEF70E083E0A3
:101C40000C9450350E949D346093280570932905AB
:101C500080932A0590932B058FEF809352026FEFAC
:101C600070E083E00C94503587EA93E20E94A6204E
:101C70000E949F2021E0029709F020E0822F089522
:101C8000CF93DF93C0E0D0E060E0CE010E94303A15
:101C90002196C11584E0D807B9F7DF91CF91089557
:101CA000CF93DF9300D0CDB7DEB79A83898342E02C
:101CB00050E060E074E0CE0101960E94263A0F9059
:101CC0000F90DF91CF9108958EEB93E00E94033740
:101CD0009093FF048093FE040E94500E81E00895CB
:101CE000CF93DF9300D0CDB7DEB79A83898342E0EC
:101CF00050E062E074E0CE0101960E94263A0F9017
:101D00000F90DF91CF9108958EEB93E00E940337FF
:101D10009093FD048093FC040E94700E81E008956E
:101D2000CF93DF9300D000D0CDB7DEB769837A833D
:101D30008B839C8344E050E064E074E0CE01019624
:101D40000E94263A0F900F900F900F90DF91CF9145
:101D5000089542E050E060E074E08EEF94E00E946D
:101D6000163A42E050E062E074E08CEF94E00E94AA
:101D7000163A44E050E064E074E088EF94E00C949C
:101D8000163A0E94A90E8091EF0481110E948F0DD6
:101D90008093F70408950E940D206093F8047093D7
:101DA000F9048093FA049093FB040E94900E109221
:101DB000F7040895CF93DF9300D0CDB7DEB79A83B1
:101DC000898342E050E060E073E0CE0101960E941A
:101DD000263A0F900F90DF91CF9108950F931F93A4
:101DE000CF93DF9300D000D01F92CDB7DEB78091A4
:101DF000BE039091BF039A8389831B82CE01019613
:101E00000E9403378C0181EC93E00E94033724E0A9
:101E1000000F111F2A95E1F734E0880F991F3A95BA
:101E2000E1F76AE070E00E949E36C801860F971FB6
:101E30009093F6048093F5040E94DA0E81E00F90EF
:101E40000F900F900F900F90DF91CF911F910F91F6
:101E5000089542E050E060E073E00C94163A85EF9C
:101E600094E00E94290F0E94170C8093F40461E013
:101E700080E00E94D8356091F40480E00C94143620
:101E8000CF93DF9300D000D0CDB7DEB79A8389839C
:101E90007C836B8342E050E060E072E0CE0101960B
:101EA0000E94263A42E050E062E072E0CE010396E2
:101EB0000E94263A0F900F900F900F90DF91CF91D4
:101EC00008951F93CF93DF9300D000D01F92CDB71A
:101ED000DEB78091BE039091BF039A8389831B82F2
:101EE000CE0101960E940337182F893110F080E04F
:101EF00030C08091C0039091C1039A838983CE0141
:101F000001960E9403378D3390F799272CE3129F97
:101F1000800D911D112420919A0330919B03232B56
:101F200029F49093F3048093F20404C09093F10495
:101F30008093F0046091F0047091F1048091F204B8
:101F40009091F3040E94400F1092B7031092B603D1
:101F500081E00F900F900F900F900F90DF91CF9135
:101F60001F910895CF93DF93EB0142E050E060E0D2
:101F700072E00E94163A42E050E062E072E0CE0168
:101F8000DF91CF910C94163A60EF74E082EF94E009
:101F90000E94B20F0E947B0C8093EF0461E081E00D
:101FA0000E94D8356091EF0481E00C941436CF93F1
:101FB000DF931F92CDB7DEB781E894E00E94142929
:101FC000882321F089830E94220E89810F90DF915E
:101FD000CF91089504960C94822F6CE97FE08AE0FB
:101FE00094E00E94E72F28E532E04DE060E086E0D3
:101FF00094E00C94EA0FEF92FF920F931F93CF930C
:10200000DF93CDB7DEB7E2970FB6F894DEBF0FBE11
:10201000CDBF88EAE82E83E0F82E00E420E840E017
:1020200060E08AE094E00E94A52A6CE97FE08AE003
:1020300094E00E94E72F8AE094E00E94DF2F26E7D9
:1020400033E045E065E586E094E00E94EA0F69E24E
:1020500071E084ED93E00E942A3766E773E08AE03E
:1020600094E00E94003065E5680F24ED33E045E020
:1020700086E094E00E94EA0F21E933E044E363E064
:1020800086E094E00E94EA0F68EA78E08AE094E053
:102090000E94E72F8AE094E00E94DF2F2EE733E0D2
:1020A0004FE062E686E094E00E94EA0F69E271E0A8
:1020B00084ED93E00E942A376EE773E08AE094E0B3
:1020C0000E94003062E6680F24ED33E04FE086E0C6
:1020D00094E00E94EA0F66E873E08AE094E00E94D0
:1020E00000306CE7681B26E833E046E386E094E0C6
:1020F0000E94EA0F8091EF04882341F002E022E081
:1021000047E069E08AE094E00E94DE2A8091F404CE
:10211000882341F002E022E047E061E18AE094E0B8
:102120000E94DE2A8091F7048823F1F08091FD045B
:102130008F938091FC048F9383E692E09F938F931B
:102140008E010F5F1F4F1F930F930E9465379801F9
:1021500049E165E086E094E00E94EA0F0F900F905D
:102160000F900F900F900F90E2960FB6F894DEBF8D
:102170000FBECDBFDF91CF911F910F91FF90EF90D8
:1021800008950F931F93CF93DF93CDB7DEB72B97AF
:102190000FB6F894DEBF0FBECDBF482FFB01CB01B9
:1021A0006CE370E00E949E3654EC56039001579FFA
:1021B000300D11242E0F3F1F3F932F937F936F936A
:1021C00024E832E03F932F938E010F5F1F4F1F9340
:1021D0000F934B870E94653798014B856CE386E02F
:1021E00094E00E94EA0F0FB6F894DEBF0FBECDBF99
:1021F0002B960FB6F894DEBF0FBECDBFDF91CF9107
:102200001F910F910895BC0184ED93E00E942A373D
:1022100064ED73E08AE094E00E94003090E008955D
:10222000EF92FF920F931F93CF93DF93CDB7DEB75B
:1022300064970FB6F894DEBF0FBECDBF6CE97FE0A8
:102240008AE094E00E94E72F8AE094E00E94DF2F6A
:1022500068ED70E084ED93E00E942A3788ED90E00D
:102260000E94031197FD019695958795919581950B
:10227000910960E4680F24ED33E040E086E094E0EB
:102280000E94EA0F00917704002E000C110B809140
:102290007804081B110987FD13950F5F1F4F4FEF3F
:1022A000400F20E860E08AE094E00E946D3068EA28
:1022B00078E08AE094E00E94E72F8AE094E00E94B0
:1022C000DF2FE09077040E2C000CFF08809178043B
:1022D000E81AF10887FDF39467EC70E084ED93E071
:1022E0000E942A3724ED33E0402F60E086E094E03E
:1022F0000E94EA0F68EB70E084ED93E00E942A37B9
:10230000E00E24ED33E04E2D60E086E094E00E9484
:10231000EA0F4AE0BE016F5F7F4F8091FE0490910B
:10232000FF040E9438379E012F5F3F4F402F64E625
:1023300086E094E00E94EA0F4AE0BE016F5F7F4FA3
:102340008091FC049091FD040E9438379E012F5F1C
:102350003F4F4E2D64E686E094E00E94EA0F6496BB
:102360000FB6F894DEBF0FBECDBFDF91CF911F91A6
:102370000F91FF90EF9008950F931F93CF93DF93EA
:102380006CE97FE08AE094E00E94E72F8AE094E025
:102390000E94DF2F60E071E084ED93E00E942A3715
:1023A00080E091E00E94031197FD01969595879535
:1023B00091958195910960E4680F24ED33E040E048
:1023C00086E094E00E94EA0FC09177040C2E000C86
:1023D000DD0B80917804C81BD10987FDD395219628
:1023E0004C2F415020E860E08AE094E00E946D307C
:1023F0008AE094E00E94DF2F00917704002E000C09
:10240000110B80917804081B110987FD13956DEF5E
:1024100070E084ED93E00E942A3724ED33E04C2FE6
:1024200060E086E094E00E94EA0F69EF70E084EDDE
:1024300093E00E942A374C2F400F24ED33E060E0F8
:1024400086E094E00E94EA0F6091F2047091F30438
:10245000CE010E94C1106091F0047091F104CE0190
:10246000800F911FDF91CF911F910F910C94C1109C
:102470003F924F925F926F927F928F929F92AF9214
:10248000BF92CF92DF92EF92FF920F931F93CF9361
:10249000DF936CE97FE08AE094E00E94E72F8AE016
:1024A00094E00E94DF2FE091D203F091D30360818A
:1024B000718184ED93E00E942A37E091D203F0917C
:1024C000D303808191810E94031197FD0196959518
:1024D000879591958195910960E4680F24ED33E02B
:1024E00040E086E094E00E94EA0F00917704002E1D
:1024F000000C110B80917804081B110987FD1395BE
:102500000F5F1F4F302E4FEF400F20E860E08AE052
:1025100094E00E946D3068EA78E08AE094E00E94DE
:10252000E72F8AE094E00E94DF2FC09177040C2E01
:10253000000CDD0B80917804C81BD10987FDD39571
:10254000239680E490E0801B910BBE010E948A36A6
:102550005B0180919A0390919B030E949E366A9D35
:1025600040016B9D900C7A9D900C1124E091D20358
:10257000F091D303C401880F991FE280F380E80E25
:10258000F91E1C2FC12CD12C2701F70180819181CC
:10259000892B09F441C0CA14DB04F4F53601680C38
:1025A000791C80919A0390919B036816790681F4B7
:1025B000809178040C2F081B20E8432D60E08AE00E
:1025C00094E00E94DE2A60E08AE094E00E948D3070
:1025D00082E0E80EF11CF2016081718184ED93E0EC
:1025E0000E942A3724ED33E043E0430D65E086E0A6
:1025F00094E00E94EA0F80919A0390919B036816E1
:10260000790629F461E08AE094E00E948D30FFEFC2
:10261000CF1ADF0A310EB8CFDF91CF911F910F9102
:10262000FF90EF90DF90CF90BF90AF909F908F90F2
:102630007F906F905F904F903F9008950F931F93FE
:10264000CF93DF936CE97FE08AE094E00E94E72F6C
:102650008AE094E00E94DF2FE091BA03F091BB037F
:102660006081718184ED93E00E942A37E091BA0382
:10267000F091BB03808191810E94031197FD019627
:102680009595879591958195910960E4680F24ED62
:1026900033E040E086E094E00E94EA0F4091770446
:1026A00080917804481B20E860E08AE094E00E9472
:1026B0006D3068EA78E08AE094E00E94E72F8AE0D3
:1026C00094E00E94DF2F40917704042E000C550BFC
:1026D00080917804481B510987FD5395E091BA0316
:1026E000F091BB0302811381D42FC42FCC0FF801CA
:1026F000619171918F016115710571F084ED93E025
:102700000E942A3724ED33E04C2F60E086E094E00D
:102710000E94EA0FCD0FEBCF2CE646E365E08AE09E
:1027200094E00E946D306CE97FE08AE094E00E94C2
:10273000E72F8AE094E00E94D72F2EEB33E046E3A8
:1027400065E086E094E0DF91CF911F910F910C94AA
:10275000EA0FE0911A02F0911B020480F581E02D4E
:10276000309709F009940895A8958CE295E00E94AD
:102770005F1A0E94D70F81110C94A91308958AE063
:1027800094E00E94B5338AE094E00E94AD2B60E0B3
:102790008AE094E00E94BF330C94B60C88E191E08B
:1027A00090931B0280931A020C94B60C0F931F9304
:1027B000CF93DF938C01EB0197FF06C08DE28883F6
:1027C00011950195110921964AE0BE01C80124E046
:1027D000959587952A95E1F70E9438370990002052
:1027E000E9F721978EE2FE018193BF010F70112757
:1027F00024E6209FC001219F900D11244AE034E07F
:10280000959587953A95E1F70E9438378A8181112D
:1028100005C089818A8380E389831B82DF91CF9100
:102820001F910F9108950F931F93CF93DF93CDB70F
:10283000DEB764970FB6F894DEBF0FBECDBF6CE96C
:102840007FE08AE094E00E94E72F8AE094E00E9413
:10285000DF2F69EE70E084ED93E00E942A3789EE65
:1028600090E00E94031197FD0196959587959195AB
:102870008195910960E4680F24ED33E040E086E043
:1028800094E00E94EA0F00917704002E000C110BD7
:1028900080917804081B110987FD13950F5F1F4F66
:1028A0004FEF400F20E860E08AE094E00E946D3036
:1028B0008AE094E00E94DF2FBE016F5F7F4F80911E
:1028C000F5049091F6040E94D6139E012F5F3F4FAE
:1028D000402F65E086E094E00E94EA0F69E271E033
:1028E00084ED93E00E942A37BE016F5F7F4F8AE03C
:1028F00094E00E94003065E0680F24ED33E0402F43
:1029000086E094E00E94EA0F64960FB6F894DEBF6A
:102910000FBECDBFDF91CF911F910F910895AF9260
:10292000BF92CF92DF92EF92FF920F931F93CF93BC
:10293000DF93CDB7DEB764970FB6F894DEBF0FBE56
:10294000CDBF6CE97FE08AE094E00E94E72F8AE047
:1029500094E00E94DF2F6CE171E084ED93E00E942F
:102960002A378CE191E00E94031197FD019695951D
:10297000879591958195910960E4680F24ED33E086
:1029800040E086E094E00E94EA0F40917704042E34
:10299000000C550B80917804481B510987FD539515
:1029A0004F5F5F4FC42E415020E860E08AE094E022
:1029B0000E946D308AE094E00E94DF2FE09077045F
:1029C00080917804E81A3AE2A32E33E0B32EF12C7A
:1029D00000E010E08091320390913303081719074B
:1029E0000CF043C04BE050E06FE071E0CE01019687
:1029F0000E94213780E3800F8C871D86DF2CDC0C42
:102A00009E012F5F3F4F4D2D60E086E094E00E94D5
:102A1000EA0FBE016F5F7F4FF501819191915F01D8
:102A20000E94D6139E012F5F3F4F4D2D66E586E035
:102A300094E00E94EA0F69E271E084ED93E00E9465
:102A40002A37BE016F5F7F4F8AE094E00E9400301A
:102A500066E5680F24ED33E04D2D86E094E00E949A
:102A6000EA0F0F5F1F4FFE0CB5CF64960FB6F894B8
:102A7000DEBF0FBECDBFDF91CF911F910F91FF90B1
:102A8000EF90DF90CF90BF90AF9008950F931F937A
:102A9000CF93DF93CDB7DEB729970FB6F894DEBF9B
:102AA0000FBECDBF0E940D20AB01BC019E01285F6F
:102AB0003F4F80E095E00E943025AE014F5F5F4FB1
:102AC0000E94171E89811F928F938A811F928F9374
:102AD0008B811F928F938FE792E09F938F9381E971
:102AE00093E09F938F930E9465378F8190E08E547F
:102AF000984F9F938F938E811F928F938D811F92FA
:102B00008F938EE892E09F938F9386E893E09F9354
:102B10008F930E94653704E613E066E773E0F801DF
:102B2000808191810E94D6136EE773E0F801828163
:102B300093810E94D6130FB6F894DEBF0FBECDBFAF
:102B400029960FB6F894DEBF0FBECDBFDF91CF91AF
:102B50001F910F910895FC01218130E0322F22272F
:102B60008081282B3595279544E0220F331F4A9505
:102B7000E1F724503109468180E190E0841B9109FE
:102B8000820F931F089588E693E00E94BC2040E0E6
:102B90006CEC88E693E00E94562141E064E488E60C
:102BA00093E00C945621EF92FF920F931F93CF93D3
:102BB000DF938C01EB0188E693E00E94BC20B80112
:102BC00088E693E00E94AB2140E06EEB88E693E05C
:102BD0000E9456218E017E0189E0E80EF11C88E6F4
:102BE00093E00E948F21F80181938F01EE15FF057C
:102BF000B1F768E0CE010E949E2291E02885821301
:102C000001C090E0892FDF91CF911F910F91FF902C
:102C1000EF900895BF92CF92DF92EF92FF920F93C1
:102C20001F93CF93DF93CDB7DEB761970FB6F894BC
:102C3000DEBF0FBECDBF94E3E92E93E0F92E67010E
:102C400000E010E028E0B22E04301105D1F0BE0102
:102C5000665F7F4F88E693E00E940922882389F00F
:102C60008A85803189F70F5F1F4FFE013A96D601A2
:102C70008B2D01900D928A95E1F788E0C80ED11C4A
:102C8000E3CF88E693E00E94D821109333030093AA
:102C900032030E94C3156EEE72E080E090E00E9465
:102CA000CE348AE2C82E83E0D82E00E010E0809176
:102CB00032039091330308171907A4F4BE016F5F24
:102CC0007F4FC7010E94D315CE0101960E94AB151C
:102CD000F601819391936F010F5F1F4FF8E0EF0EA4
:102CE000F11CE5CF61960FB6F894DEBF0FBECDBFE5
:102CF000DF91CF911F910F91FF90EF90DF90CF90D8
:102D0000BF9008958531910508F002C1FC01EC5C8B
:102D1000FF4F0C94D43688E191E0F6C01092B903CD
:102D20001092B8031092B7031092B60388EF91E0A7
:102D30000CC081E090E09093B9038093B8031092A7
:102D4000B7031092B6038AEE91E09093D303809379
:102D5000D2038EE191E0D8C01092B9031092B8036B
:102D60001092B7031092B6038EED91E0BEC081E0E1
:102D700090E09093B9038093B8039093B703809346
:102D8000B60382EC91E0E1CF85E090E09093B90347
:102D90008093B8031092B7031092B60382E191E0DA
:102DA00090931B0280931A020E940A16B1C085E01C
:102DB00090E09093B9038093B8031092B7031092F8
:102DC000B60388EB91E091C081E090E09093B90365
:102DD0008093B80385E090E09093B7038093B603A7
:102DE00082EA91E0B2CF0E94400E81E090E052C0B2
:102DF00081E090E09093B9038093B80382E090E083
:102E00009093B7038093B60386E891E09ECF10922B
:102E1000B9031092B8038AE791E067C08AE090E0B6
:102E20009093B9038093B8031092B7031092B6033E
:102E30008CE091E069C081E090E09093B9038093C9
:102E4000B80383E090E09093B7038093B60388E6DD
:102E500091E07BCF8DE090E09093B9038093B8032D
:102E600081E090E09093B7038093B6038CE591E006
:102E70003CC08DE090E09093B9038093B80310922A
:102E8000B7031092B60386E091E03EC00E94CB0EDD
:102E900080E090E00E9482163BC081E090E0909339
:102EA000B9038093B80384E090E09093B7038093D4
:102EB000B60382E491E049CF80E190E09093B903BA
:102EC0008093B8031092B7031092B60386E391E0A3
:102ED0000CC080E190E09093B9038093B803109206
:102EE000B7031092B6038AE291E00E94580C10C01A
:102EF00080E190E09093B9038093B8031092B703F8
:102F00001092B60380E091E090931B0280931A0226
:102F10000C94B60C823451F08434B1F488E191E021
:102F200090931B0280931A020C94B60C8091B60306
:102F30009091B70390939B0380939A038091B80379
:102F40009091B9030C9482160895833251F0833422
:102F500051F410929B0310929A0381E090E00C943C
:102F600082160C94CB0E0895082E000C990BAA0B18
:102F7000BB0BFC01F297E331F10508F05DC0E75BA4
:102F8000FF4F0C94D43688E191E090931B0280931C
:102F90001A020CC080919A0390919B03009709F448
:102FA0004BC0019790939B0380939A030C94B60CAB
:102FB00080919A0390919B03E091D203F091D30307
:102FC00001969C01220F331F0280F381E02DE20F56
:102FD000F31F20813181232B29F72EC0A091D2032A
:102FE000B091D30380919A0390919B03880F991F0E
:102FF0001696ED91FC911797E80FF91F208131810A
:1030000030939B0320939A0314962D913C9115972E
:10301000F901E80FF91F808191810CC08091B603FE
:103020009091B70390939B0380939A038091B80388
:103030009091B9030C9482160895823441F11CF4E6
:10304000813469F031C0833409F446C0843461F5B9
:1030500088E191E090931B0280931A023BC0E091BB
:10306000BA03F091BB030480F581E02D0995882314
:1030700099F18091B6039091B70390939B0380934D
:103080009A038091B8039091B9030C9482168091B1
:10309000BC039091BD030097F9F001979093BD0395
:1030A0008093BC03FC0113C02091BC033091BD038D
:1030B0002331310589F0A9014F5F5F4F5093BD0364
:1030C0004093BC03F901E254FC4F8083FA01E254BF
:1030D000FC4F10820C94B60C08950F931F93CF935E
:1030E000DF93CDB7DEB729970FB6F894DEBF0FBEDA
:1030F000CDBFBE016F5F7F4F84E593E00E94D31583
:10310000CE0101960E94AB1504E613E0F80191830D
:103110008083BE016F5F7F4F8CE593E00E94D315E3
:10312000CE0101960E94AB15F801938382830E9421
:10313000C31529960FB6F894DEBF0FBECDBFDF9141
:10314000CF911F910F910895FB0123E0880F991FE4
:103150002A95E1F7BC01739548E050E0CF010C944B
:10316000263AFB0123E0880F991F2A95E1F7BC015D
:10317000739548E050E0CF010C94163A64E573E093
:1031800080E090E00E94B1186CE573E081E090E08F
:103190000C94B1186091BE0388E06802B00111245C
:1031A0006C547E4F80919A0390919B030E94A418C7
:1031B0000E94BE1881E008950F931F93CF93DF9371
:1031C000CDB7DEB729970FB6F894DEBF0FBECDBFDF
:1031D0000E94BE180E94C3156EEE72E080E090E07F
:1031E0000E94CE34BE016F5F7F4F84E593E00E9462
:1031F000D315CE0101960E94AB1504E613E0F80149
:1032000091838083BE016F5F7F4F8CE593E00E94C6
:10321000D315CE0101960E94AB15F80193838283EA
:1032200081E090E029960FB6F894DEBF0FBECDBFC7
:10323000DF91CF911F910F91089598E288E10FB629
:10324000F894A895809360000FBE9093600062E0B0
:1032500082E00E94D8350E94190E0E94BF130E947E
:10326000340E0E94C40F0E94DC180E942F0F0E948F
:10327000C10E2DE638E144E358E060E070E08CE2F6
:1032800095E00E94CA1A23ED3CE044E650E060E07D
:1032900070E08CE295E00E94CA1A21ED3DE048E220
:1032A00050E060E070E08CE295E00E94CA1A2FEBDB
:1032B0003DE044E853E060E070E08CE295E00E947D
:1032C000CA1A29E63CE048E456E260E070E08CE28D
:1032D00095E00E94CA1A21E13EE04CED55E060E025
:1032E00070E08CE295E00E94CA1A0C94CE13CF9243
:1032F000DF92EF92FF920F931F93CF93DF938CE2B5
:1033000095E00E944B1A8DB79EB70C970FB6F894B4
:103310009EBF0FBE8DBFADB7BEB711968CE0EAE37E
:10332000F2E001900D928A95E1F7C0904602D090AC
:103330004702E0904802F090490200914A02109141
:103340004B0220914C0230914D0240914E0250911F
:103350004F02609150027091510280E095E00E940E
:10336000C82384E0E82E04E022E232E046E252E0A4
:103370006AE272E081E894E00E941726C6E0D4E099
:103380001B821A828BE992E0998388838FEA91E30A
:1033900090937E0480937D0410927F0410928004A9
:1033A0008AE094E00E94B93183EA92E099838883AD
:1033B0002EE239E242E959E260ED72E08AE094E0FF
:1033C0000E94C32B2FEF49E06AE08AE094E00E945C
:1033D000472A8DB79EB70C960FB6F8949EBF0FBEC6
:1033E0008DBF64E088E693E0DF91CF911F910F914C
:1033F000FF90EF90DF90CF900C94E421FC011082BD
:103400000895CF92DF92EF92FF92CF93DF93EC017A
:103410000E949D346B017C018B859C85AD85BE85AA
:10342000B701A601481B590B6A0B7B0B89819A8156
:10343000AB81BC81481759076A077B07D8F08881A0
:10344000813019F0823029F00CC0E985FA850995A0
:1034500008C061E09885911160E068878F810E94C3
:103460001436CB86DC86ED86FE868F85988901969C
:10347000988B8F878D819E8197FD06C02F85388917
:10348000281739070CF01882DF91CF91FF90EF9049
:10349000DF90CF9008950F931F93CF93DF93EC01AC
:1034A0008C0106551F4FCE010E94FE196196C01770
:1034B000D107C9F7DF91CF911F910F9108950F9315
:1034C0001F93CF93DF93EC018C0106551F4F88812A
:1034D000882319F0CE010E94011A6196C017D10706
:1034E000B1F7DF91CF911F910F910895FC0190E00A
:1034F0008081882331F09F5F71969A30C9F78FEFF2
:103500000895892F0895AF92BF92CF92DF92EF92E4
:10351000FF920F931F93CF93DF9300D000D0CDB7CE
:10352000DEB75C017901680149835A836B837C8330
:103530000E94761A182F49815A816B817C818F3FB6
:10354000C9F081E11802A00CB11C112481E0F50141
:1035500080834183528363837483D682C582F286DB
:10356000E1860E949D34F50163877487858796877D
:10357000108A1786812F0F900F900F900F90DF9178
:10358000CF911F910F91FF90EF90DF90CF90BF9060
:10359000AF9008950F931F930FEF1FEF0E94831AB0
:1035A0001F910F9108958091060690E020910706E3
:1035B000821B91090895909107068091060698173D
:1035C00050F4E92FF0E0E85FF94F208130E09F5F91
:1035D0009093070602C02FEF3FEFC9010895E091D5
:1035E000070680910606E81730F4F0E0E85FF94F2F
:1035F000808190E008958FEF9FEF08950895CF9216
:10360000DF92EF92FF920F931F93CF93DF937C0192
:10361000262F972F8A018091E205882391F0C62FEB
:10362000D72F6E01C40ED51ECC15DD0571F0699142
:10363000D701ED91FC910190F081E02DC701099532
:10364000F3CF642F822F0E94C11CC801DF91CF915C
:103650001F910F91FF90EF90DF90CF900895CF933F
:10366000DF931F92CDB7DEB769832091E205222355
:10367000D1F02091E305203240F021E030E0FC0160
:103680003383228380E090E015C08091E405E82F29
:10369000F0E0EB51FA4F998190838F5F8093E405BE
:1036A0008093E30505C061E0CE0101960E94C11C34
:1036B00081E090E00F90DF91CF910895FC0113829B
:1036C000128288EE93E0A0E0B0E084839583A68325
:1036D000B7838BEA92E09183808308951092070666
:1036E000109206061092E4051092E3050C94051C56
:1036F00081E08093E205609305061092E405109244
:10370000E30508950C94781B0F93062F21E0409158
:10371000E30565EE75E0809105060E946B1C109232
:10372000E4051092E3051092E2050F9108954F927F
:103730005F926F927F92AF92BF92CF92EF92FF9281
:103740000F931F93CF93DF935C01F62ED42F2801A4
:103750003901EE2021F10E94781BCE2DC43008F0F3
:10376000C3E0C150C0F0D501ED91FC91B8E0CB9F12
:10377000C0011124A301920104C0569547953795C5
:1037800027958A95D2F7CA01B9010190F081E02D01
:10379000C5010995E6CF60E0C5010E94841B4D2F4D
:1037A000D13208F040E22C2D68E076E08F2D0E94A7
:1037B000231C1092070680930606DF91CF911F917C
:1037C0000F91FF90EF90CF90BF90AF907F906F9050
:1037D0005F904F900895CF92EF920F931F93C22E58
:1037E000E12C00E010E098010E94971B1F910F91BF
:1037F000EF90CF90089521E00C94EB1B61E00C94C6
:10380000841B86ED95E00C945E1B1092950681E07A
:10381000809393061092920661E082E10E94143632
:1038200061E083E10E941436E9EBF0E080818E7F55
:10383000808380818D7F808388E48093B80085E4D5
:103840008093BC000895413208F043C090919506E2
:103850009111FCCF91E090939506209393062FEF62
:103860002093280610926D06240F20936C069093E7
:10387000940690919406880F892B809394068091EA
:103880009206813061F410929206809194068093A2
:10389000BB008091BC0083FDF8CF85EC01C085EEB4
:1038A0008093BC00809195068130E1F380916D0694
:1038B000841710F440916D062EE636E0FB01D90125
:1038C0008A2F821B841718F48D918193F9CF842F4E
:1038D000089580E008950F93413208F04AC0909116
:1038E00095069111FCCF32E0309395060093930634
:1038F0003FEF3093280610926D0640936C06FB0153
:103900006EE676E0DB013A2F361B341718F431915E
:103910003D93F9CF1092940630919406880F832B33
:103920008093940680919206813061F41092920601
:10393000809194068093BB008091BC0083FDF8CFFA
:1039400085EC01C085EE8093BC00222321F080919C
:1039500095068230D1F3809128068F3F79F08091CF
:103960002806803241F080912806803331F094E0BF
:1039700005C091E003C092E001C093E0892F0F9150
:103980000895613298F420919506243089F460936B
:103990004A06FC012CE436E0D9018A2F821B8617E7
:1039A00018F481918D93F9CF80E0089581E0089516
:1039B00082E0089585ED8093BC008091BC0084FD79
:1039C000FCCF10929506089585EC8093BC00109270
:1039D000950608951F920F920FB60F9211242F9300
:1039E0003F934F935F936F937F938F939F93AF9387
:1039F000BF93EF93FF938091B900887F803609F4DD
:103A00009EC078F5883209F45DC090F4803109F4E5
:103A100056C038F4882309F4F5C0883009F44FC043
:103A2000F5C0883109F44EC0803209F45FC0EEC0A1
:103A3000803409F46AC058F4803309F457C08833DD
:103A400009F0E4C0809328060E94E41CDFC08035A2
:103A500009F44FC0883509F45DC0883409F0D6C038
:103A6000D3C0883909F4C4C0A8F4883709F467C002
:103A700038F4883609F463C0803709F460C0C6C0E2
:103A8000883809F4B5C0803909F45FC0803809F07E
:103A9000BDC05BC0803B09F483C038F4803A09F4B0
:103AA00066C0883A09F47CC0B1C0803C09F4A4C067
:103AB000883C09F4A1C0883B09F487C0A7C0809165
:103AC000940610C090916D0680916C06981770F561
:103AD000E0916D0681E08E0F80936D06F0E0E25973
:103AE000F94F80818093BB0085EC83C080932806CA
:103AF0008BC0E0916D0681E08E0F80936D06809102
:103B0000BB00F0E0E259F94F808390916D068091FF
:103B10006C066BC0E0916D0681E08E0F80936D06A0
:103B20008091BB00F0E0E259F94F808380919306C9
:103B300081116AC081E08093920684EA5EC083E0CE
:103B40008093950610922906CFCF80912906803266
:103B500008F04EC0E091290681E08E0F809329067F
:103B60008091BB00F0E0E65DF94F8083BDCF0E94FD
:103B7000E41C80912906803230F4E0912906F0E0BF
:103B8000E65DF94F10826091290670E0E0918E06A3
:103B9000F0918F068AE296E009951092290636C0C8
:103BA00084E08093950610924B0610924A06E091AD
:103BB0009006F0919106099580914A06811105C001
:103BC00081E080934A0610924C06E0914B0681E01A
:103BD0008E0F80934B06F0E0E45BF94F8081809379
:103BE000BB0090914B0680914A06981708F47CCF51
:103BF00085E88093BC000AC085EC8093BC001092DD
:103C0000950604C0109228060E94DA1CFF91EF91DD
:103C1000BF91AF919F918F917F916F915F914F91E4
:103C20003F912F910F900FBE0F901F9018956F929C
:103C30007F928F929F92AF92BF92CF92DF92EF923C
:103C4000FF920F931F93CF93DF93EA012CE3C22ED1
:103C5000D12CE12CF12CA70196010E94B236688389
:103C6000CA01B901A70196010E94B2366983CA014F
:103C7000B90128E130E040E050E00E94B23669012D
:103C80007A016A83CA01B9016C5F7F4F8F4F9F4FE2
:103C900027E030E040E050E00E94B2366F5F6B8377
:103CA000812C912C540140E034E6632E712C00E904
:103CB00011E0242F30E02E54384FF901E370FF2734
:103CC000309789F4C901B3010E949E36892B31F4E3
:103CD000C901B8010E949E36892B29F48EE691E035
:103CE000A0E0B0E004C08DE691E0A0E0B0E0880E76
:103CF000991EAA1EBB1ED501C401AA27BB27C81640
:103D0000D906EA06FB0610F04F5FD3CF4E833097FB
:103D100099F4C90164E670E00E949E36892B39F45B
:103D2000C90160E971E00E949E36892B29F48EE674
:103D300091E0A0E0B0E004C08DE691E0A0E0B0E04A
:103D4000881A990AAA0ABB0AC818D908EA08FB08FF
:103D5000C90164E670E00E949E368C01C90160E9E9
:103D600071E00E949E36A7EBB2E020E0213041F4E2
:103D7000309751F40115110529F4009729F402C078
:103D80004C9103C04DE101C04CE150E060E070E0B7
:103D9000C416D506E606F70640F0C41AD50AE60AA8
:103DA000F70A2F5F11962C3009F72F5F2D83C394EC
:103DB000CC82DF91CF911F910F91FF90EF90DF9018
:103DC000CF90BF90AF909F908F907F906F9008950D
:103DD000CF92DF92EF92FF92C090A606D090A706F6
:103DE000E090A806F090A9066C157D058E059F054C
:103DF00071F06B017C014AEA56E00E94171EC092E6
:103E0000A606D092A706E092A806F092A906FF9017
:103E1000EF90DF90CF9008950E94E81E8091AD064C
:103E200090E008950E94E81E8091B00690E08E54C4
:103E3000984F08956F927F928F929F92AF92BF9208
:103E4000CF92DF92EF92FF920F931F93CF93DF9366
:103E5000EC01EE81AE2FB0E020E833E341EE51E01B
:103E60000E94F0364B015C0122EB37E0FD0104E6D5
:103E700010E080E9E82EFF24F394C901825B9740AB
:103E80008E179F07DCF4C90183709927892B99F459
:103E9000C901B8010E949E36892B31F4C901B701CE
:103EA0000E949E36892B39F480E8880E81E5981EA1
:103EB00081E0A81EB11C2F5F3F4FDFCF6D80712CBA
:103EC000EE54F84FCF0164E670E00E949E367C010C
:103ED000CF0160E971E00E949E366C0101E010E0C4
:103EE000E370FF27061517052CF50230110581F444
:103EF000309771F4E114F10419F4C114D10441F4C0
:103F000080E8880E8BE3981E86E2A81EB11C0FC0C5
:103F1000D801AA54BD4FAC91B0E020E831E541E0B2
:103F200050E00E94F036860E971EA81EB91E0F5F45
:103F30001F4FD8CF49812A8130E0A0E1BEE00E9426
:103F4000DA366B017C01242F30E0ACE3B0E00E9454
:103F5000DA36DC01CB018C0D9D1DAE1DBF1D288105
:103F60006C017D01C20ED11CE11CF11CAC81B0E0E2
:103F7000119720E831E541E050E00E94FB36DC017A
:103F8000CB018C0D9D1DAE1DBF1DBC01CD01680D6B
:103F9000791D8A1D9B1DDF91CF911F910F91FF907D
:103FA000EF90DF90CF90BF90AF909F908F907F90D9
:103FB0006F9008950F931F936093A2067093A306CA
:103FC0008093A4069093A506009154021091550287
:103FD0002091560230915702DC01CB01800F911FD6
:103FE000A21FB31F80939A0690939B06A0939C06F2
:103FF000B0939D0682E090E0909399068093980696
:104000000E949D3460939E0670939F068093A00645
:104010009093A1061F910F910895CF92DF92EF9296
:10402000FF920F931F930E949D34C0909E06D090E4
:104030009F06E090A006F090A1068B019C010C1950
:104040001D092E093F098091A2069091A306A09117
:10405000A406B091A506083E134021053105D0F015
:104060000196A11DB11D8093A2069093A306A09373
:10407000A406B093A506B701A60148515C4F6F4F47
:104080007F4F40939E0650939F066093A0067093C7
:10409000A106C9CF40919A0650919B0660919C065B
:1040A00070919D0684179507A607B707C8F1E091A0
:1040B0009606F0919706309799F10995611571056B
:1040C0008105910519F00E94DA1F2AC0409154021F
:1040D0005091550260915602709157028091A2064C
:1040E0009091A306A091A406B091A506840F951FF8
:1040F000A61FB71F80939A0690939B06A0939C06D9
:10410000B0939D0681E090E0209198063091990649
:10411000232B11F480E090E0909399068093980609
:104120006091A2067091A3068091A4069091A506C5
:104130001F910F91FF90EF90DF90CF9008950E9414
:104140000D20809198069091990608959093970676
:10415000809396068091A2069091A306A091A40652
:10416000B091A50680939A0690939B06A0939C0617
:10417000B0939D060C940D200F931F93CF93DF9364
:10418000FC011081C181D281F8948A81012F0095B0
:1041900080238A838981812B8983789480EE91E0C2
:1041A0000E940A35F8948981082309838A81812B2A
:1041B0008A8386E490E00E940A35088178948AE92F
:1041C00091E00E940A358881812321F491E0909347
:1041D000B10606C0102381E009F080E01092B1061C
:1041E000DF91CF911F910F9108951F93CF93DF938C
:1041F000FC011081C181D281812F809560FF12C0A6
:10420000F8949A8189238A838981812B89838AE022
:1042100090E00E940A358A81182B1A83789487E3EC
:1042200090E011C0F8949A8189238A838981812B37
:10423000898381E490E00E940A358A81182B1A83D1
:10424000789485E090E0DF91CF911F910C940A352E
:104250000F931F93CF93DF93FC011081C181D28113
:10426000F8948A81012F009580238A838981812B8C
:10427000898383E090E00E940A35898108230983BD
:104280008A81812B8A838AE090E00E940A35C88166
:10429000789485E390E00E940A351C2381E009F4BC
:1042A00080E0DF91CF911F910F910895CF92DF921F
:1042B000EF92FF920F931F93CF93DF931F92CDB78F
:1042C000DEB76C01E62E08E010E0FF24F39461E015
:1042D0008F2D8E2109F460E0C60149830E94F520EC
:1042E000FF0C0150110949810115110581F7411198
:1042F0000CC0F894D6011196ED91FC911297918122
:104300008C9180958923818378940F90DF91CF9150
:104310001F910F91FF90EF90DF90CF900895EF9253
:10432000FF920F931F93CF93DF937C0108E010E07F
:10433000C0E0D1E0C7010E9428218111CD2BDD0F03
:1043400001501109B9F78C2FDF91CF911F910F9177
:10435000FF90EF900895CF92DF92EF92FF920F932C
:104360001F93CF93DF931F92CDB7DEB78C01F62E4C
:1043700040E065E579830E945621CF2C7981D72EC4
:10438000760188E0E80EF11CF60161916F0140E0D2
:10439000C8010E945621CE14DF04B1F70F90DF91BF
:1043A000CF911F910F91FF90EF90DF90CF900895E4
:1043B000FC01138615861486DC011B9633961E922B
:1043C000AE17BF07E1F708950F931F93CF938C01AA
:1043D000C62F60E08C2F0E94D8356C2F70E0FB0157
:1043E000E357F84EE491D801EC93FB01EF55F84EFA
:1043F000E491F0E0EE0FFF1FEB54F84E859194919D
:10440000F80192838183C801CF911F910F910C9481
:10441000D821AF92BF92CF92DF92EF92FF920F938B
:104420001F93CF93DF931F92CDB7DEB75C01E62ECB
:10443000D72EFC01858581115DC0C5010E94BC207D
:10444000811105C0F5011386158614866BC040E006
:1044500060EFC5010E94562101E0F12CC12C11E052
:10446000C5010E942821682FC50169830E94282167
:104470006981613019F48130B9F433C04F2D50E0B7
:1044800068131BC0F5018385181730F4E40FF51F7E
:104490008381802349F402C0181731F060E019309D
:1044A00058F4F501148708C0F501EF0DF11D838163
:1044B000802B838361E009C0C12EF501E40FF51F55
:1044C0009381802F809589238383C5010E94F520E5
:1044D0001F5F000F11F4F39401E0F7E0FF1508F0FF
:1044E000BFCF113438F0F501C386C11015C081E08B
:1044F000858712C0F50113861586148680E0D501E4
:104500001396EE2DFD2D9501255F3F4F9D919193C3
:10451000A217B307D9F706C0F5018381882351F3A9
:1045200081E0EDCF0F90DF91CF911F910F91FF9020
:10453000EF90DF90CF90BF90AF900895DC01E0E066
:10454000615038F08D91E827F0E0E855F84FE4919C
:10455000F7CF8E2F08956AE00E947E3620E1829F79
:10456000900D1124892F0895982F92959F708F7028
:104570002AE0929F800D1124089586ED95E00C9419
:104580006E1BCF93DF93EC0168E670E086ED95E05B
:104590000E94821B60E086ED95E00E942F1B8881BF
:1045A0000E94AB22682F86ED95E00E942F1B898127
:1045B0000E94AB22682F86ED95E00E942F1B8A8116
:1045C0000E94AB22682F86ED95E00E942F1B8B8105
:1045D0000E94AB22682F86ED95E00E942F1B8C81F4
:1045E0000E94AB22682F86ED95E00E942F1B8D81E3
:1045F0000E94AB22682F86ED95E00E942F1B8E81D2
:104600008E510E94AB22682F86ED95E00E942F1BF1
:1046100086ED95E00E94FE1B882321F01092B206E1
:1046200080E003C081E08093B206DF91CF910895CE
:10463000CF93DF93CDB7DEB727970FB6F894DEBFE1
:104640000FBECDBFAE014F5F5F4F0E94171E898125
:1046500080688983CE0101960E94C12289818F776B
:104660008983CE0101960E94C12227960FB6F89445
:10467000DEBF0FBECDBFDF91CF9108951F93CF93C3
:10468000DF93EC0168E670E086ED95E00E94821B06
:1046900060E086ED95E00E942F1B86ED95E00E947C
:1046A000FE1B882319F01092B2064CC081E0809363
:1046B000B20647E050E068E670E086ED95E00E94C3
:1046C000FB1B86ED95E00E94D31A0797DCF186ED7F
:1046D00095E00E94DB1A182F8F770E94B4228883FE
:1046E00086ED95E00E94DB1A0E94B422898386ED54
:1046F00095E00E94DB1A8F730E94B4228A8386EDB4
:1047000095E00E94DB1A0E94B4228B8386ED95E02F
:104710000E94DB1A0E94B4228C8386ED95E00E94F1
:10472000DB1A0E94B4228D8386ED95E00E94DB1A8D
:104730000E94B422825E8E83812F8095881F8827F5
:10474000881F01C080E0DF91CF911F910895CF9322
:10475000DF93CDB7DEB727970FB6F894DEBF0FBE55
:10476000CDBFCE0101960E943E23882329F0CE01C1
:1047700001960E941A1F03C060E070E0CB012796EB
:104780000FB6F894DEBF0FBECDBFDF91CF91089575
:10479000AF92BF92CF92DF92EF92FF920F931F934F
:1047A000CF93DF93CDB7DEB72C970FB6F894DEBF6B
:1047B0000FBECDBF5C01C982DA82EB82FC820D8321
:1047C0001E832F83388749875A876B877C878CE0C5
:1047D000FE013196D50101900D928A95E1F79CE09A
:1047E000FE017996D5011C9601900D929A95E1F7FC
:1047F0002C960FB6F894DEBF0FBECDBFDF91CF91E0
:104800001F910F91FF90EF90DF90CF90BF90AF90EE
:1048100008958F929F92AF92BF92CF92DF92EF92C4
:10482000FF920F931F93CF93DF93CDB7DEB76497BB
:104830000FB6F894DEBF0FBECDBF3F87598BF22E67
:10484000211109C04F5F4D3040F04FEFA41AB40A58
:1048500031E041E003C0322F01C031E089898B8310
:104860001A82198281E08D834E838EE48A0D8F83B4
:10487000CE0101963C8B0E941A1F4B015C010F85F3
:1048800010E00E940C1F3C89432F50E04150510919
:1048900067E0649F9001659F300D1124A801481BBB
:1048A000590BCA01079667E070E00E949E36D90155
:1048B000A80FB91F20E831E541E050E00E94FB3627
:1048C000680D791D8A1D9B1DF11004C060587A4344
:1048D0008940910964960FB6F894DEBF0FBECDBF34
:1048E000DF91CF911F910F91FF90EF90DF90CF90CC
:1048F000BF90AF909F908F9008958F929F92AF92AC
:10490000BF92CF92DF92EF92FF920F931F93CF93BC
:10491000DF93EC015B01C880D980EA80FB800C81C9
:104920001D812E813F81488559856A857B850E943E
:10493000092468A379A38AA39BA3CC84DD84EE8495
:10494000FF84088919892A893B894C895D896E8988
:104950007F89CE010E9409246B017C016CA37DA399
:104960008EA39FA3AE89BF892CE330E00E94E93675
:1049700008A119A12AA13BA148015901861A970A49
:10498000A80AB90A888E998EAA8EBB8EAA85BB8585
:104990002CE330E00E94E936C61AD70AE80AF90A81
:1049A000CC8EDD8EEE8EFF8EDF91CF911F910F9119
:1049B000FF90EF90DF90CF90BF90AF909F908F903F
:1049C0000895CF92DF92EF92FF920F931F93CF93B0
:1049D000DF93EC016A017B01CB01BA010E94121F37
:1049E0008C01688D798D8A8D9B8D0E94121F08170E
:1049F000190741F0C701B6010E94121FBC01CE0188
:104A00000E947D240C8D1D8D2E8D3F8D488D598DDE
:104A10006A8D7B8D401751076207730760F4C416D7
:104A2000D506E606F70690F081E0C016D106E2064C
:104A3000F30668F00BC081E0C016D106E206F3066B
:104A400030F0C416D506E606F70608F480E0DF91DC
:104A5000CF911F910F91FF90EF90DF90CF9008952D
:104A6000AF92BF92CF92DF92EF92FF920F931F937C
:104A7000CF93DF93EC016A017B018901CB01BA017D
:104A80000E94121F5C01688D798D8A8D9B8D0E941A
:104A9000121FA816B90641F0C701B6010E94121FE5
:104AA000BC01CE010E947D24B701A601CE010E9467
:104AB000E124882331F0F801D183C083AA85BB8526
:104AC00007C0CE010C96F80191838083AE89BF891F
:104AD0002CE330E00E94E9366C0D7D1D8E1D9F1D7C
:104AE000DF91CF911F910F91FF90EF90DF90CF90CA
:104AF000BF90AF900895CF92DF92EF92FF920F9305
:104B00001F93CF93DF93EC016A017B01CB01BA01C4
:104B10000E94121F8C0168A179A18AA19BA10E9409
:104B2000121F0817190741F0C701B6010E94121F92
:104B3000BC01CE010E947D240CA11DA12EA13FA18C
:104B400048A159A16AA17BA14017510762077307C9
:104B500060F4C416D506E606F70690F081E0C016AC
:104B6000D106E206F30668F00BC081E0C016D1065C
:104B7000E206F30630F0C416D506E606F70608F49A
:104B800080E0DF91CF911F910F91FF90EF90DF9028
:104B9000CF900895CF92DF92EF92FF920F931F93E1
:104BA000CF93DF93EC016A017B01CB01BA010E9434
:104BB000121F8C0168A179A18AA19BA10E94121FDA
:104BC0000817190741F0C701B6010E94121FBC0166
:104BD000CE010E947D24B701A601CE010E947B2553
:104BE000882319F0AA85BB8502C0AE89BF892CE352
:104BF00030E00E94E936A7019601261B370B480BCF
:104C0000590BCA01B901DF91CF911F910F91FF900C
:104C1000EF90DF90CF900895862F0C944436862F26
:104C2000642F0C941436862F642F0C94D8354F9231
:104C30005F926F927F928F929F92AF92BF92CF922C
:104C4000DF92EF920F93CF93DF93EC015B013A0178
:104C5000490102960E94282987EC92E09983888373
:104C60006E018CE1C80ED11C2E0188E5480E511C46
:104C7000C6010E94282986E0C80ED11CC414D504A0
:104C8000B9F7FE01EE59FF4F718260823296918230
:104C90008082329600833196E0823797B182A0827B
:104CA00038968AE090E091838083329684EF91E099
:104CB00091838083329611821082C45ADF4F18820A
:104CC00019821A821B82DF91CF910F91EF90DF90B2
:104CD000CF90BF90AF909F908F907F906F905F909C
:104CE0004F9008952F923F924F925F926F927F92D2
:104CF0008F929F92AF92BF92CF92DF92EF92FF92EC
:104D00000F931F93CF93DF93CDB7DEB728970FB6DE
:104D1000F894DEBF0FBECDBF98878F8310E04C01A3
:104D200086E6880E911CEF80F88492E6E90EF11C6D
:104D3000D4018C911817A0F4AF81B8858D919C9106
:104D4000F701A081B181A10FB11DFC01208131814A
:104D500042E06C918F819885F90109951F5FE8CF3A
:104D6000F12CEF81F885E959FF4FFA83E983CF8071
:104D7000D884F4E6CF0ED11C412C512C320143943F
:104D80008F8198858E599F4F9C838B83E981FA810F
:104D90008081F81608F088C0AF2CB12CAF81B8859F
:104DA0008D919C91F601A081B181AA0DBB1DFC01E2
:104DB0002081318141E06C918F819885F9010995BD
:104DC000AF81B8858D919C91F601A081B181AA0D2A
:104DD000BB1DFC012281338140E06C918F8198855D
:104DE000F9010995D301C2010F2C04C0880F991F46
:104DF000AA1FBB1F0A94D2F79C011C012094309477
:104E0000E12CF4018081AF81B885ED91FC91E81629
:104E100048F50E2D10E0AB81BC818D919C91DC0199
:104E2000A00FB11F0480F581E02D6C918F819885D2
:104E30002D833E830995000F111F2D813E81EF8147
:104E4000F885E00FF11F892B29F480859185822B4D
:104E5000932B04C08085918582219321918780873F
:104E6000E394CFCFD6018D919C91DC01AA0DBB1D9F
:104E70000280F381E02D41E06C918F819885099546
:104E8000AF81B885ED91FC91D6018D919C91DC01AB
:104E9000AA0DBB1D0190F081E02D40E06C918F8147
:104EA00098850995F39472CF28960FB6F894DEBFD3
:104EB0000FBECDBFDF91CF911F910F91FF90EF906B
:104EC000DF90CF90BF90AF909F908F907F906F902A
:104ED0005F904F903F902F900895FC0180E090E00C
:104EE000258D368D2617370739F0019636968A308C
:104EF0009105B1F78FEF9FEF0895FC0126E0629FC7
:104F0000E00DF11D112450A3478F21E021A3FC01E6
:104F1000E459FF4F0190F081E02D309721F0DC0142
:104F20005C968C91099408956F927F928F929F92D4
:104F3000AF92BF92CF92DF92EF92FF921F93CF93E7
:104F4000DF931F92CDB7DEB73C01162FFC0186E040
:104F5000689FE00DF11D112411A2878D90A1813071
:104F60009105F9F01CF4892B51F04FC08230910566
:104F7000B1F1039709F049C040E050E034C0442348
:104F800009F443C041E050E0C3010E947D270E9424
:104F90009D34F301E85AFF4F6083718382839383CA
:104FA00034C049830E949D34F301E85AFF4FC0800A
:104FB000D180E280F3804B015C018C189D08AE0823
:104FC000BF08729680819181A0E0B0E04981881588
:104FD0009905AA05BB0518F442E050E004C0411150
:104FE00014C043E050E0612FC3010F90DF91CF91D7
:104FF0001F91FF90EF90DF90CF90BF90AF909F9068
:105000008F907F906F900C947D270F90DF91CF91C0
:105010001F91FF90EF90DF90CF90BF90AF909F9047
:105020008F907F906F9008952F923F924F925F9252
:105030006F927F928F929F92AF92BF92CF92DF92A8
:10504000EF92FF920F931F93CF93DF9300D01F92A5
:10505000CDB7DEB79B838A836C012CE1C20ED11CD5
:10506000885A9F4FF6012FEF3FEF43815481452B24
:1050700021F410823283218315823696E817F907CE
:10508000A1F7312C4A805B8036E6430E511CAA8082
:10509000BB8087E6A80EB11C8A809B80A0E68A0EA2
:1050A000911CF2018081381608F05CC0212C8A81A5
:1050B0009B81830D911D830D911D9C01285F3F4FA6
:1050C0007901D5016C90261408F04AC0F7010081DF
:1050D0001181022C02C0169507950A94E2F701701F
:1050E0001127369C30011124620C711CD401ED9102
:1050F000FC91E60DF71D2081B3018A819B812983F4
:105100000E946D27298197FD04C0402F4170682FB0
:105110001AC0019619F5012B09F1F60160E070E063
:105120008081811115C0E6E0E69FC001E79F900DE8
:105130001124EA81FB81E80FF91F248F768E658E9A
:1051400010A2178E41E08A819B810E94942706C09D
:105150006F5F7F4F36966A30710511F72394B1CF98
:1051600033949FCFEA81FB81B1962A813B81235AF8
:105170003F4F80E09081911181E03696E217F3076E
:10518000C9F70F900F900F90DF91CF911F910F9162
:10519000FF90EF90DF90CF90BF90AF909F908F9057
:1051A0007F906F905F904F903F902F900895CF9297
:1051B000DF92EF92FF920F931F93CF93DF93EC0157
:1051C0000E949D348E01045A1F4FF801C080D18087
:1051D000E280F380AB01BC014C195D096E097F09C7
:1051E0003C9680819181A0E0B0E084179507A607E6
:1051F000B70778F4CE010E947226CE010E941428CF
:10520000C82F0E949D34F801608371838283938349
:1052100001C0C0E08C2FDF91CF911F910F91FF90C3
:10522000EF90DF90CF900895CF93DF93EC010E9431
:10523000D728882339F089A1882321F08F8D98A160
:10524000019711F080E001C08C8DDF91CF9108951E
:10525000FC01108214821382158208951F93CF934C
:10526000DF93EC01962F642F9C3268F49A3208F099
:1052700052C0983281F09932C9F570E080E090E038
:105280000E94CE3448C09D32B1F080F184EB890F8A
:105290008230D8F02BC06B9610E089918F3F39F0A7
:1052A000103110F461E001C062E00E94D8351F5F48
:1052B000163199F730C0433018F082E090E002C018
:1052C00085E090E00E940A3526C09F73C90FD11D6A
:1052D000411107C061E08B8D0E94D83560E08B8D55
:1052E00010C062E08B8D0E94D83515C09034A8F0B4
:1052F0009F73FE01E90FF11D838D8F3F61F09031A7
:1053000018F40E94143607C00E94443621E0892B0D
:1053100009F420E02E8B81E001C080E0DF91CF9185
:105320001F910895CF92DF92EF92FF92CF93DF9378
:10533000EC01683139F138F46431D9F0673109F0A2
:105340009EC0F9010FC0693109F477C0603209F0DD
:1053500096C06AE40E94D3336EC00DB407FEFDCF41
:105360008EB54150442309F466C081918EBD000082
:10537000F4CFE881F981418169E40E94D3330E942E
:105380001D3459C0A881B9811C96EC911C97E1503D
:10539000E33028F4F0E0E353FD4F808101C080E06A
:1053A0001896CD90DD90ED90FC901B9720E040E0AA
:1053B00052E16AE770E0C416D506E606F70640F447
:1053C00076956795579547952F5F2630A1F727E08B
:1053D00091E092278C708065292F2695822B917001
:1053E00020913507222399F04FB7F8942091350783
:1053F000213059F42DB3209333073DB32091340766
:10540000209523232DBB4FBF02C0409333078CBD93
:105410009DBDE881F981408169E4CE010E94D333CA
:10542000A881B981EA85FB8520E030E012964C9195
:105430006CE2CE01099581E023C0A881B981EA859B
:10544000FB8520E030E013964C916CE20995E881F1
:10545000F981418169E4CE010E94D33380913507FF
:10546000882349F32FB7F89480913507909133073B
:10547000813019F49DBB2FBF03C09FBFDCCF80E0FC
:10548000DF91CF91FF90EF90DF90CF900895FC01D6
:1054900064A345A326A308956F927F928F929F9253
:1054A000AF92BF92CF92DF92EF92FF920F931F9332
:1054B000CF93DF937C01C62FB42E48016C0181E7A6
:1054C000C80ED11CF601A080162F120F01E0040FA8
:1054D000212FC7010E94A530882341F1D1E0370177
:1054E000F0E76F0E711CC117F9F0F40184918D2360
:1054F00019F0F601A08209C0F301808181110CC06E
:1055000081E0A11080E0F601808300E021E04B2DD6
:105510006C2FC7010E945F30CF5FDD0F21F7FFEFD7
:105520008F1A9F0AD1E0DFCFF601A082DF91CF91E1
:105530001F910F91FF90EF90DF90CF90BF90AF90B1
:105540009F908F907F906F9008958F929F92AF92CF
:10555000BF92CF92DF92EF92FF920F931F93CF9360
:10556000DF935C01962EC42F822ED42FD00F260FEE
:105570000D2F0E94A5308823A1F087E0880DC82E4A
:10558000C694C694C694D12CCD1759F08701282D06
:105590004C2F692DC5010E944C2AEC0CFD1CCF5FDD
:1055A000F3CFDF91CF911F910F91FF90EF90DF909C
:1055B000CF90BF90AF909F908F900895DF92EF9221
:1055C000FF920F931F93CF93DF937C01162FC42F6D
:1055D000D22ED42FD00F262F2D0D0D2F0E94A530A7
:1055E000882359F0CD1749F000E02D2D4C2F612F65
:1055F000C7010E945F30CF5FF5CFDF91CF911F9140
:105600000F91FF90EF90DF900895BF92CF92DF92BD
:10561000EF92FF920F931F93CF93DF937C01DC01F6
:10562000D796BC90D797D896DC90D897ED91FC91FF
:10563000C188C0E0D0E0D701ED91FC91119720899D
:10564000D5960D911C91D697B8E02B9FA0011124FF
:105650004C9FC0014D9F900D5C9F900D1124080F31
:10566000191F4C2F4D0D60E0C7010E9488338C2F0D
:105670008F5F8B1528F421968C2F8D0D8C15D8F209
:10568000DF91CF911F910F91FF90EF90DF90CF901E
:10569000BF900895FC01A081B18150969C9147A9CB
:1056A000949FA001112483E0440F551F8A95E1F7D0
:1056B00060E070E085A996A90C943137DC01D8969A
:1056C0006C93D897D396ED91FC91D4970190F0818B
:1056D000E02D0994CF93DF93EC01FC01EE58FF4FCE
:1056E0008081882319F0CE010E944A2B60E0CE0110
:1056F000DF91CF910C945E2B0F931F93CF93DF9389
:105700001F92CDB7DEB78C010E94052BD801D89629
:105710006C91D897D7968C91D797680FED91FC91A3
:105720008189681728F0C8010E94C93380E00FC042
:10573000F801EE58FF4F8081882329F0C801698362
:105740000E944A2B6981C8010E945E2B81E00F9064
:10575000DF91CF911F910F910895CF93DF93EC01CB
:105760000E946A2BCE010E947C2B8111FBCF60E04E
:10577000CE01DF91CF910C945E2B21E0FC012083C0
:1057800083EB96E00895CF92DF92EF92FF920F9312
:105790001F93CF93DF931F92CDB7DEB77C016B01D0
:1057A00089019A014EE552E36EE073E30E94F833FB
:1057B000CE0101960E94BD2B860121ED30E3498187
:1057C000BC01C7010E9484310F90DF91CF911F91DE
:1057D0000F91FF90EF90DF90CF900895FC01E60FBE
:1057E000F11D849190E0982F88273196E4918E0FD7
:1057F000911D0895213039F020F0223031F4841BBE
:105800000895840F0895860F0895861B089521300A
:1058100039F020F0223031F4861B0895860F089568
:10582000841B0895840F089580E00895FC01E259D7
:10583000FF4F80810895FC01E359FF4F80818F5F06
:1058400008950F931F93CF93DF93EC018B01FB011E
:10585000849188833196E491E983FB013296E49147
:10586000EA83FB013396E491EB83FB013496E491E8
:10587000EC83FB013596E491ED83FB013696E491D0
:10588000EE83FB013796E491EF83FB013896E491B8
:10589000E887FB013996E491E987FB013A96E491A8
:1058A000EA87FB013B96E491EB87FB013C96E49190
:1058B000EC87FB013D96E491ED87FB013E96E49178
:1058C000EE87FB013F96E491EF87FB017096E49130
:1058D000E88B61E1C8010E94EE2B9A8B898B63E112
:1058E000C8010E94EE2B9C8B8B8B65E1C8010E9446
:1058F000EE2B9E8B8D8BDF91CF911F910F91089591
:10590000DC0118964C911897ED91FC911197249118
:1059100030E0042E02C0359527950A94E2F7862FD1
:10592000840F883010F4E22F0EC031961196FC934C
:10593000EE939491E92F98E0941B01C0EE0F9A9595
:10594000EAF7E22B885018968C9381E090E001C032
:10595000880F6A95EAF781508E2308950F931F935D
:10596000CF93DF938C01EC01C85BDF4F79836883B1
:105970001886FC01E75AFF4F6081CE010E94802CFF
:105980008E83F801E65AFF4F6081CE010E94802C81
:105990008F83F801EF58FF4F90819A8781E0911132
:1059A00080E08B87DF91CF911F910F910895CF9366
:1059B000C62F0E94802CC15021E030E001C0220F90
:1059C000CA95EAF7821BCF9108955F926F927F92FA
:1059D0008F929F92AF92BF92CF92DF92EF92FF92FF
:1059E0000F931F93CF93DF935C01F62E642EEC018F
:1059F000C85BDF4F1C81DD804C0181E7880E911C64
:105A0000EE80E11ACE2CFE1408F4CF2C5B800C85BE
:105A1000202F4D2D612F8A810E94072C782E202F58
:105A20004D2D612F852D0E94FA2B482F662011F0F5
:105A30009A8504C09985911108C09B85F4019083D3
:105A40002C2D672DC5010E945F30FE1420F0FE183A
:105A5000D39410E0D5CF1F0D1C83DD82DF91CF9151
:105A60001F910F91FF90EF90DF90CF90BF90AF907C
:105A70009F908F907F906F905F9008956F927F922C
:105A80008F929F92AF92BF92CF92DF92EF92FF924E
:105A90000F931F93CF93DF931F92CDB7DEB77C0197
:105AA0003C0188E4680E711CC7010E94AE2CF7010E
:105AB000E15BFF4FD0803C966081C3010E94D72CF0
:105AC000A82EF701E45AFF4F6081C3010E94D72C32
:105AD000C82EF701E35AFF4F6081C3010E94D72C03
